{
  "_format": "hh-sol-artifact-1",
  "contractName": "MyEpicGame",
  "sourceName": "contracts/MyEpicGame.sol",
  "abi": [
    {
      "inputs": [
        {
          "internalType": "address",
          "name": "lootContractAddress",
          "type": "address"
        },
        {
          "internalType": "string[]",
          "name": "characterNames",
          "type": "string[]"
        },
        {
          "internalType": "string[]",
          "name": "characterImageURIs",
          "type": "string[]"
        },
        {
          "internalType": "uint256[]",
          "name": "characterHp",
          "type": "uint256[]"
        },
        {
          "internalType": "string",
          "name": "bossName",
          "type": "string"
        },
        {
          "internalType": "string",
          "name": "bossImageURI",
          "type": "string"
        },
        {
          "internalType": "uint256",
          "name": "bossHp",
          "type": "uint256"
        },
        {
          "internalType": "uint256",
          "name": "bossAttackDamage",
          "type": "uint256"
        }
      ],
      "stateMutability": "nonpayable",
      "type": "constructor"
    },
    {
      "anonymous": false,
      "inputs": [
        {
          "indexed": true,
          "internalType": "address",
          "name": "owner",
          "type": "address"
        },
        {
          "indexed": true,
          "internalType": "address",
          "name": "approved",
          "type": "address"
        },
        {
          "indexed": true,
          "internalType": "uint256",
          "name": "tokenId",
          "type": "uint256"
        }
      ],
      "name": "Approval",
      "type": "event"
    },
    {
      "anonymous": false,
      "inputs": [
        {
          "indexed": true,
          "internalType": "address",
          "name": "owner",
          "type": "address"
        },
        {
          "indexed": true,
          "internalType": "address",
          "name": "operator",
          "type": "address"
        },
        {
          "indexed": false,
          "internalType": "bool",
          "name": "approved",
          "type": "bool"
        }
      ],
      "name": "ApprovalForAll",
      "type": "event"
    },
    {
      "anonymous": false,
      "inputs": [
        {
          "indexed": false,
          "internalType": "uint256",
          "name": "newBossHp",
          "type": "uint256"
        },
        {
          "indexed": false,
          "internalType": "uint256",
          "name": "newPlayerHp",
          "type": "uint256"
        }
      ],
      "name": "AttackComplete",
      "type": "event"
    },
    {
      "anonymous": false,
      "inputs": [
        {
          "indexed": false,
          "internalType": "address",
          "name": "sender",
          "type": "address"
        },
        {
          "indexed": false,
          "internalType": "uint256",
          "name": "tokenId",
          "type": "uint256"
        },
        {
          "indexed": false,
          "internalType": "uint256",
          "name": "characterIndex",
          "type": "uint256"
        }
      ],
      "name": "CharacterNFTMinted",
      "type": "event"
    },
    {
      "anonymous": false,
      "inputs": [
        {
          "indexed": true,
          "internalType": "address",
          "name": "from",
          "type": "address"
        },
        {
          "indexed": true,
          "internalType": "address",
          "name": "to",
          "type": "address"
        },
        {
          "indexed": true,
          "internalType": "uint256",
          "name": "tokenId",
          "type": "uint256"
        }
      ],
      "name": "Transfer",
      "type": "event"
    },
    {
      "anonymous": false,
      "inputs": [
        {
          "indexed": false,
          "internalType": "uint256",
          "name": "equippedWeapon",
          "type": "uint256"
        }
      ],
      "name": "WeaponEquipped",
      "type": "event"
    },
    {
      "inputs": [
        {
          "internalType": "address",
          "name": "to",
          "type": "address"
        },
        {
          "internalType": "uint256",
          "name": "tokenId",
          "type": "uint256"
        }
      ],
      "name": "approve",
      "outputs": [],
      "stateMutability": "nonpayable",
      "type": "function"
    },
    {
      "inputs": [],
      "name": "attackBoss",
      "outputs": [],
      "stateMutability": "nonpayable",
      "type": "function"
    },
    {
      "inputs": [
        {
          "internalType": "address",
          "name": "owner",
          "type": "address"
        }
      ],
      "name": "balanceOf",
      "outputs": [
        {
          "internalType": "uint256",
          "name": "",
          "type": "uint256"
        }
      ],
      "stateMutability": "view",
      "type": "function"
    },
    {
      "inputs": [],
      "name": "bigBoss",
      "outputs": [
        {
          "internalType": "string",
          "name": "name",
          "type": "string"
        },
        {
          "internalType": "string",
          "name": "imageURI",
          "type": "string"
        },
        {
          "internalType": "uint256",
          "name": "hp",
          "type": "uint256"
        },
        {
          "internalType": "uint256",
          "name": "maxHp",
          "type": "uint256"
        },
        {
          "internalType": "uint256",
          "name": "attackDamage",
          "type": "uint256"
        }
      ],
      "stateMutability": "view",
      "type": "function"
    },
    {
      "inputs": [],
      "name": "checkIfUserHasNFT",
      "outputs": [
        {
          "components": [
            {
              "internalType": "uint256",
              "name": "characterIndex",
              "type": "uint256"
            },
            {
              "internalType": "string",
              "name": "name",
              "type": "string"
            },
            {
              "internalType": "string",
              "name": "imageURI",
              "type": "string"
            },
            {
              "internalType": "uint256",
              "name": "hp",
              "type": "uint256"
            },
            {
              "internalType": "uint256",
              "name": "maxHp",
              "type": "uint256"
            },
            {
              "internalType": "uint256",
              "name": "equippedWeapon",
              "type": "uint256"
            }
          ],
          "internalType": "struct MyEpicGame.CharacterAttributes",
          "name": "",
          "type": "tuple"
        }
      ],
      "stateMutability": "view",
      "type": "function"
    },
    {
      "inputs": [
        {
          "internalType": "uint256",
          "name": "weaponTokenId",
          "type": "uint256"
        }
      ],
      "name": "equipWeapon",
      "outputs": [],
      "stateMutability": "nonpayable",
      "type": "function"
    },
    {
      "inputs": [],
      "name": "getAllDefaultCharacters",
      "outputs": [
        {
          "components": [
            {
              "internalType": "uint256",
              "name": "characterIndex",
              "type": "uint256"
            },
            {
              "internalType": "string",
              "name": "name",
              "type": "string"
            },
            {
              "internalType": "string",
              "name": "imageURI",
              "type": "string"
            },
            {
              "internalType": "uint256",
              "name": "hp",
              "type": "uint256"
            },
            {
              "internalType": "uint256",
              "name": "maxHp",
              "type": "uint256"
            },
            {
              "internalType": "uint256",
              "name": "equippedWeapon",
              "type": "uint256"
            }
          ],
          "internalType": "struct MyEpicGame.CharacterAttributes[]",
          "name": "",
          "type": "tuple[]"
        }
      ],
      "stateMutability": "view",
      "type": "function"
    },
    {
      "inputs": [
        {
          "internalType": "uint256",
          "name": "tokenId",
          "type": "uint256"
        }
      ],
      "name": "getApproved",
      "outputs": [
        {
          "internalType": "address",
          "name": "",
          "type": "address"
        }
      ],
      "stateMutability": "view",
      "type": "function"
    },
    {
      "inputs": [],
      "name": "getBigBoss",
      "outputs": [
        {
          "components": [
            {
              "internalType": "string",
              "name": "name",
              "type": "string"
            },
            {
              "internalType": "string",
              "name": "imageURI",
              "type": "string"
            },
            {
              "internalType": "uint256",
              "name": "hp",
              "type": "uint256"
            },
            {
              "internalType": "uint256",
              "name": "maxHp",
              "type": "uint256"
            },
            {
              "internalType": "uint256",
              "name": "attackDamage",
              "type": "uint256"
            }
          ],
          "internalType": "struct MyEpicGame.BigBoss",
          "name": "",
          "type": "tuple"
        }
      ],
      "stateMutability": "view",
      "type": "function"
    },
    {
      "inputs": [],
      "name": "getMyHP",
      "outputs": [
        {
          "internalType": "uint256",
          "name": "",
          "type": "uint256"
        }
      ],
      "stateMutability": "view",
      "type": "function"
    },
    {
      "inputs": [
        {
          "internalType": "address",
          "name": "owner",
          "type": "address"
        },
        {
          "internalType": "address",
          "name": "operator",
          "type": "address"
        }
      ],
      "name": "isApprovedForAll",
      "outputs": [
        {
          "internalType": "bool",
          "name": "",
          "type": "bool"
        }
      ],
      "stateMutability": "view",
      "type": "function"
    },
    {
      "inputs": [
        {
          "internalType": "uint256",
          "name": "_characterIndex",
          "type": "uint256"
        },
        {
          "internalType": "uint256",
          "name": "equippedWeapon",
          "type": "uint256"
        }
      ],
      "name": "mintCharacter",
      "outputs": [],
      "stateMutability": "nonpayable",
      "type": "function"
    },
    {
      "inputs": [
        {
          "internalType": "uint256",
          "name": "_characterIndex",
          "type": "uint256"
        }
      ],
      "name": "mintCharacterWithoutWeapon",
      "outputs": [],
      "stateMutability": "nonpayable",
      "type": "function"
    },
    {
      "inputs": [],
      "name": "name",
      "outputs": [
        {
          "internalType": "string",
          "name": "",
          "type": "string"
        }
      ],
      "stateMutability": "view",
      "type": "function"
    },
    {
      "inputs": [
        {
          "internalType": "uint256",
          "name": "",
          "type": "uint256"
        }
      ],
      "name": "nftHolderAttributes",
      "outputs": [
        {
          "internalType": "uint256",
          "name": "characterIndex",
          "type": "uint256"
        },
        {
          "internalType": "string",
          "name": "name",
          "type": "string"
        },
        {
          "internalType": "string",
          "name": "imageURI",
          "type": "string"
        },
        {
          "internalType": "uint256",
          "name": "hp",
          "type": "uint256"
        },
        {
          "internalType": "uint256",
          "name": "maxHp",
          "type": "uint256"
        },
        {
          "internalType": "uint256",
          "name": "equippedWeapon",
          "type": "uint256"
        }
      ],
      "stateMutability": "view",
      "type": "function"
    },
    {
      "inputs": [
        {
          "internalType": "address",
          "name": "",
          "type": "address"
        }
      ],
      "name": "nftHolders",
      "outputs": [
        {
          "internalType": "uint256",
          "name": "",
          "type": "uint256"
        }
      ],
      "stateMutability": "view",
      "type": "function"
    },
    {
      "inputs": [
        {
          "internalType": "uint256",
          "name": "tokenId",
          "type": "uint256"
        }
      ],
      "name": "ownerOf",
      "outputs": [
        {
          "internalType": "address",
          "name": "",
          "type": "address"
        }
      ],
      "stateMutability": "view",
      "type": "function"
    },
    {
      "inputs": [
        {
          "internalType": "address",
          "name": "from",
          "type": "address"
        },
        {
          "internalType": "address",
          "name": "to",
          "type": "address"
        },
        {
          "internalType": "uint256",
          "name": "tokenId",
          "type": "uint256"
        }
      ],
      "name": "safeTransferFrom",
      "outputs": [],
      "stateMutability": "nonpayable",
      "type": "function"
    },
    {
      "inputs": [
        {
          "internalType": "address",
          "name": "from",
          "type": "address"
        },
        {
          "internalType": "address",
          "name": "to",
          "type": "address"
        },
        {
          "internalType": "uint256",
          "name": "tokenId",
          "type": "uint256"
        },
        {
          "internalType": "bytes",
          "name": "_data",
          "type": "bytes"
        }
      ],
      "name": "safeTransferFrom",
      "outputs": [],
      "stateMutability": "nonpayable",
      "type": "function"
    },
    {
      "inputs": [
        {
          "internalType": "address",
          "name": "operator",
          "type": "address"
        },
        {
          "internalType": "bool",
          "name": "approved",
          "type": "bool"
        }
      ],
      "name": "setApprovalForAll",
      "outputs": [],
      "stateMutability": "nonpayable",
      "type": "function"
    },
    {
      "inputs": [
        {
          "internalType": "bytes4",
          "name": "interfaceId",
          "type": "bytes4"
        }
      ],
      "name": "supportsInterface",
      "outputs": [
        {
          "internalType": "bool",
          "name": "",
          "type": "bool"
        }
      ],
      "stateMutability": "view",
      "type": "function"
    },
    {
      "inputs": [],
      "name": "symbol",
      "outputs": [
        {
          "internalType": "string",
          "name": "",
          "type": "string"
        }
      ],
      "stateMutability": "view",
      "type": "function"
    },
    {
      "inputs": [
        {
          "internalType": "uint256",
          "name": "_tokenId",
          "type": "uint256"
        }
      ],
      "name": "tokenURI",
      "outputs": [
        {
          "internalType": "string",
          "name": "",
          "type": "string"
        }
      ],
      "stateMutability": "view",
      "type": "function"
    },
    {
      "inputs": [
        {
          "internalType": "address",
          "name": "from",
          "type": "address"
        },
        {
          "internalType": "address",
          "name": "to",
          "type": "address"
        },
        {
          "internalType": "uint256",
          "name": "tokenId",
          "type": "uint256"
        }
      ],
      "name": "transferFrom",
      "outputs": [],
      "stateMutability": "nonpayable",
      "type": "function"
    }
  ],
  "bytecode": "0x60806040523480156200001157600080fd5b506040516200606438038062006064833981810160405281019062000037919062000a9d565b6040518060400160405280600781526020017f4865726f4e4654000000000000000000000000000000000000000000000000008152506040518060400160405280600381526020017f484e5400000000000000000000000000000000000000000000000000000000008152508160009080519060200190620000bb929190620007ee565b508060019080519060200190620000d4929190620007ee565b5050506040518060a0016040528085815260200184815260200183815260200183815260200182815250600760008201518160000190805190602001906200011e929190620007ee565b5060208201518160010190805190602001906200013d929190620007ee565b50604082015181600201556060820151816003015560808201518160040155905050620002c06040518060600160405280602a81526020016200603a602a9139600760000180546200018f9062000e3b565b80601f0160208091040260200160405190810160405280929190818152602001828054620001bd9062000e3b565b80156200020e5780601f10620001e2576101008083540402835291602001916200020e565b820191906000526020600020905b815481529060010190602001808311620001f057829003601f168201915b5050505050600760020154600760010180546200022b9062000e3b565b80601f0160208091040260200160405190810160405280929190818152602001828054620002599062000e3b565b8015620002aa5780601f106200027e57610100808354040283529160200191620002aa565b820191906000526020600020905b8154815290600101906020018083116200028c57829003601f168201915b50505050506200070360201b620024461760201c565b87600660006101000a81548173ffffffffffffffffffffffffffffffffffffffff021916908373ffffffffffffffffffffffffffffffffffffffff16021790555060005b8751811015620006f457600d6040518060c001604052808381526020018a84815181106200035b577f4e487b7100000000000000000000000000000000000000000000000000000000600052603260045260246000fd5b60200260200101518152602001898481518110620003a2577f4e487b7100000000000000000000000000000000000000000000000000000000600052603260045260246000fd5b60200260200101518152602001888481518110620003e9577f4e487b7100000000000000000000000000000000000000000000000000000000600052603260045260246000fd5b6020026020010151815260200188848151811062000430577f4e487b7100000000000000000000000000000000000000000000000000000000600052603260045260246000fd5b602002602001015181526020016000815250908060018154018082558091505060019003906000526020600020906006020160009091909190915060008201518160000155602082015181600101908051906020019062000493929190620007ee565b506040820151816002019080519060200190620004b2929190620007ee565b50606082015181600301556080820151816004015560a0820151816005015550506000600d828154811062000510577f4e487b7100000000000000000000000000000000000000000000000000000000600052603260045260246000fd5b90600052602060002090600602016040518060c001604052908160008201548152602001600182018054620005459062000e3b565b80601f0160208091040260200160405190810160405280929190818152602001828054620005739062000e3b565b8015620005c45780601f106200059857610100808354040283529160200191620005c4565b820191906000526020600020905b815481529060010190602001808311620005a657829003601f168201915b50505050508152602001600282018054620005df9062000e3b565b80601f01602080910402602001604051908101604052809291908181526020018280546200060d9062000e3b565b80156200065e5780601f1062000632576101008083540402835291602001916200065e565b820191906000526020600020905b8154815290600101906020018083116200064057829003601f168201915b5050505050815260200160038201548152602001600482015481526020016005820154815250509050620006c560405180606001604052806025815260200162006015602591398260200151836060015184604001516200070360201b620024461760201c565b620006dc6010620007af60201b620024e81760201c565b50600181620006ec919062000d6a565b905062000304565b50505050505050505062000f79565b620007a98484848460405160240162000720949392919062000c2f565b6040516020818303038152906040527f8d142cdd000000000000000000000000000000000000000000000000000000007bffffffffffffffffffffffffffffffffffffffffffffffffffffffff19166020820180517bffffffffffffffffffffffffffffffffffffffffffffffffffffffff8381831617835250505050620007c560201b60201c565b50505050565b6001816000016000828254019250508190555050565b60008151905060006a636f6e736f6c652e6c6f679050602083016000808483855afa5050505050565b828054620007fc9062000e3b565b90600052602060002090601f0160209004810192826200082057600085556200086c565b82601f106200083b57805160ff19168380011785556200086c565b828001600101855582156200086c579182015b828111156200086b5782518255916020019190600101906200084e565b5b5090506200087b91906200087f565b5090565b5b808211156200089a57600081600090555060010162000880565b5090565b6000620008b5620008af8462000cba565b62000c91565b90508083825260208201905082856020860282011115620008d557600080fd5b60005b858110156200092457815167ffffffffffffffff811115620008f957600080fd5b80860162000908898262000a59565b85526020850194506020840193505050600181019050620008d8565b5050509392505050565b6000620009456200093f8462000ce9565b62000c91565b905080838252602082019050828560208602820111156200096557600080fd5b60005b858110156200099957816200097e888262000a86565b84526020840193506020830192505060018101905062000968565b5050509392505050565b6000620009ba620009b48462000d18565b62000c91565b905082815260208101848484011115620009d357600080fd5b620009e084828562000e05565b509392505050565b600081519050620009f98162000f45565b92915050565b600082601f83011262000a1157600080fd5b815162000a238482602086016200089e565b91505092915050565b600082601f83011262000a3e57600080fd5b815162000a508482602086016200092e565b91505092915050565b600082601f83011262000a6b57600080fd5b815162000a7d848260208601620009a3565b91505092915050565b60008151905062000a978162000f5f565b92915050565b600080600080600080600080610100898b03121562000abb57600080fd5b600062000acb8b828c01620009e8565b985050602089015167ffffffffffffffff81111562000ae957600080fd5b62000af78b828c01620009ff565b975050604089015167ffffffffffffffff81111562000b1557600080fd5b62000b238b828c01620009ff565b965050606089015167ffffffffffffffff81111562000b4157600080fd5b62000b4f8b828c0162000a2c565b955050608089015167ffffffffffffffff81111562000b6d57600080fd5b62000b7b8b828c0162000a59565b94505060a089015167ffffffffffffffff81111562000b9957600080fd5b62000ba78b828c0162000a59565b93505060c062000bba8b828c0162000a86565b92505060e062000bcd8b828c0162000a86565b9150509295985092959890939650565b600062000bea8262000d4e565b62000bf6818562000d59565b935062000c0881856020860162000e05565b62000c138162000f34565b840191505092915050565b62000c298162000dfb565b82525050565b6000608082019050818103600083015262000c4b818762000bdd565b9050818103602083015262000c61818662000bdd565b905062000c72604083018562000c1e565b818103606083015262000c86818462000bdd565b905095945050505050565b600062000c9d62000cb0565b905062000cab828262000e71565b919050565b6000604051905090565b600067ffffffffffffffff82111562000cd85762000cd762000f05565b5b602082029050602081019050919050565b600067ffffffffffffffff82111562000d075762000d0662000f05565b5b602082029050602081019050919050565b600067ffffffffffffffff82111562000d365762000d3562000f05565b5b62000d418262000f34565b9050602081019050919050565b600081519050919050565b600082825260208201905092915050565b600062000d778262000dfb565b915062000d848362000dfb565b9250827fffffffffffffffffffffffffffffffffffffffffffffffffffffffffffffffff0382111562000dbc5762000dbb62000ea7565b5b828201905092915050565b600062000dd48262000ddb565b9050919050565b600073ffffffffffffffffffffffffffffffffffffffff82169050919050565b6000819050919050565b60005b8381101562000e2557808201518184015260208101905062000e08565b8381111562000e35576000848401525b50505050565b6000600282049050600182168062000e5457607f821691505b6020821081141562000e6b5762000e6a62000ed6565b5b50919050565b62000e7c8262000f34565b810181811067ffffffffffffffff8211171562000e9e5762000e9d62000f05565b5b80604052505050565b7f4e487b7100000000000000000000000000000000000000000000000000000000600052601160045260246000fd5b7f4e487b7100000000000000000000000000000000000000000000000000000000600052602260045260246000fd5b7f4e487b7100000000000000000000000000000000000000000000000000000000600052604160045260246000fd5b6000601f19601f8301169050919050565b62000f508162000dc7565b811462000f5c57600080fd5b50565b62000f6a8162000dfb565b811462000f7657600080fd5b50565b61508c8062000f896000396000f3fe608060405234801561001057600080fd5b50600436106101585760003560e01c80637df124a1116100c3578063b953084e1161007c578063b953084e146103e0578063c87b56dd146103fe578063c8cf27f41461042e578063d4f24c5b1461044c578063e00b726d14610456578063e985e9c51461047257610158565b80637df124a11461030357806395d89b411461033357806398da4c9514610351578063a22cb46514610386578063a9c32679146103a2578063b88d4fde146103c457610158565b806323b872dd1161011557806323b872dd146102315780632990b4711461024d5780632b8c5d031461026b57806342842e0e146102875780636352211e146102a357806370a08231146102d357610158565b806301ffc9a71461015d5780630665f9611461018d57806306fdde03146101ab578063081812fc146101c9578063095ea7b3146101f95780631e0ccb3d14610215575b600080fd5b61017760048036038101906101729190613754565b6104a2565b604051610184919061409c565b60405180910390f35b610195610584565b6040516101a29190614405565b60405180910390f35b6101b36106e0565b6040516101c091906140b7565b60405180910390f35b6101e360048036038101906101de919061384d565b610772565b6040516101f09190613fdc565b60405180910390f35b610213600480360381019061020e9190613718565b6107f7565b005b61022f600480360381019061022a919061384d565b61090f565b005b61024b60048036038101906102469190613612565b610c4e565b005b610255610cae565b6040516102629190614449565b60405180910390f35b6102856004803603810190610280919061384d565b610d16565b005b6102a1600480360381019061029c9190613612565b610e98565b005b6102bd60048036038101906102b8919061384d565b610eb8565b6040516102ca9190613fdc565b60405180910390f35b6102ed60048036038101906102e89190613584565b610f6a565b6040516102fa9190614449565b60405180910390f35b61031d60048036038101906103189190613584565b611022565b60405161032a9190614449565b60405180910390f35b61033b61103a565b60405161034891906140b7565b60405180910390f35b61036b6004803603810190610366919061384d565b6110cc565b60405161037d96959493929190614464565b60405180910390f35b6103a0600480360381019061039b91906136dc565b611218565b005b6103aa611399565b6040516103bb9594939291906141c4565b60405180910390f35b6103de60048036038101906103d99190613661565b6114cd565b005b6103e861152f565b6040516103f5919061407a565b60405180910390f35b6104186004803603810190610413919061384d565b6116da565b60405161042591906140b7565b60405180910390f35b6104366119bc565b6040516104439190614427565b60405180910390f35b610454611b94565b005b610470600480360381019061046b9190613876565b611f91565b005b61048c600480360381019061048791906135d6565b6123b2565b604051610499919061409c565b60405180910390f35b60007f80ac58cd000000000000000000000000000000000000000000000000000000007bffffffffffffffffffffffffffffffffffffffffffffffffffffffff1916827bffffffffffffffffffffffffffffffffffffffffffffffffffffffff1916148061056d57507f5b5e139f000000000000000000000000000000000000000000000000000000007bffffffffffffffffffffffffffffffffffffffffffffffffffffffff1916827bffffffffffffffffffffffffffffffffffffffffffffffffffffffff1916145b8061057d575061057c826124fe565b5b9050919050565b61058c613304565b60076040518060a00160405290816000820180546105a9906147db565b80601f01602080910402602001604051908101604052809291908181526020018280546105d5906147db565b80156106225780601f106105f757610100808354040283529160200191610622565b820191906000526020600020905b81548152906001019060200180831161060557829003601f168201915b5050505050815260200160018201805461063b906147db565b80601f0160208091040260200160405190810160405280929190818152602001828054610667906147db565b80156106b45780601f10610689576101008083540402835291602001916106b4565b820191906000526020600020905b81548152906001019060200180831161069757829003601f168201915b505050505081526020016002820154815260200160038201548152602001600482015481525050905090565b6060600080546106ef906147db565b80601f016020809104026020016040519081016040528092919081815260200182805461071b906147db565b80156107685780601f1061073d57610100808354040283529160200191610768565b820191906000526020600020905b81548152906001019060200180831161074b57829003601f168201915b5050505050905090565b600061077d82612568565b6107bc576040517f08c379a00000000000000000000000000000000000000000000000000000000081526004016107b390614385565b60405180910390fd5b6004600083815260200190815260200160002060009054906101000a900473ffffffffffffffffffffffffffffffffffffffff169050919050565b600061080282610eb8565b90508073ffffffffffffffffffffffffffffffffffffffff168373ffffffffffffffffffffffffffffffffffffffff161415610873576040517f08c379a000000000000000000000000000000000000000000000000000000000815260040161086a906143c5565b60405180910390fd5b8073ffffffffffffffffffffffffffffffffffffffff166108926125d4565b73ffffffffffffffffffffffffffffffffffffffff1614806108c157506108c0816108bb6125d4565b6123b2565b5b610900576040517f08c379a00000000000000000000000000000000000000000000000000000000081526004016108f7906142e5565b60405180910390fd5b61090a83836125dc565b505050565b600061091b6010612695565b905061092733826126a3565b6000600d8381548110610963577f4e487b7100000000000000000000000000000000000000000000000000000000600052603260045260246000fd5b90600052602060002090600602016040518060c001604052908160008201548152602001600182018054610996906147db565b80601f01602080910402602001604051908101604052809291908181526020018280546109c2906147db565b8015610a0f5780601f106109e457610100808354040283529160200191610a0f565b820191906000526020600020905b8154815290600101906020018083116109f257829003601f168201915b50505050508152602001600282018054610a28906147db565b80601f0160208091040260200160405190810160405280929190818152602001828054610a54906147db565b8015610aa15780601f10610a7657610100808354040283529160200191610aa1565b820191906000526020600020905b815481529060010190602001808311610a8457829003601f168201915b50505050508152602001600382015481526020016004820154815260200160058201548152505090506040518060c00160405280848152602001826020015181526020018260400151815260200182606001518152602001826080015181526020016000815250600e6000848152602001908152602001600020600082015181600001556020820151816001019080519060200190610b41929190613333565b506040820151816002019080519060200190610b5e929190613333565b50606082015181600301556080820151816004015560a08201518160050155905050610bc06040518060400160405280601b81526020017f4d696e7465642063686172616374657220666f722025733a202564000000000081525033846126c1565b81600f60003373ffffffffffffffffffffffffffffffffffffffff1673ffffffffffffffffffffffffffffffffffffffff16815260200190815260200160002081905550610c0e60106124e8565b7f4bc303fd457a97b4691b9af582ce71868a3d258638c8d4f8c60988a0f0bfb8cd338385604051610c4193929190614043565b60405180910390a1505050565b610c5f610c596125d4565b82612760565b610c9e576040517f08c379a0000000000000000000000000000000000000000000000000000000008152600401610c95906143e5565b60405180910390fd5b610ca983838361283e565b505050565b600080600f60003373ffffffffffffffffffffffffffffffffffffffff1673ffffffffffffffffffffffffffffffffffffffff1681526020019081526020016000205490506000600e6000838152602001908152602001600020905080600301549250505090565b600660009054906101000a900473ffffffffffffffffffffffffffffffffffffffff1673ffffffffffffffffffffffffffffffffffffffff16636352211e826040518263ffffffff1660e01b8152600401610d719190614449565b60206040518083038186803b158015610d8957600080fd5b505afa158015610d9d573d6000803e3d6000fd5b505050506040513d601f19601f82011682018060405250810190610dc191906135ad565b73ffffffffffffffffffffffffffffffffffffffff163373ffffffffffffffffffffffffffffffffffffffff1614610df857600080fd5b6000600f60003373ffffffffffffffffffffffffffffffffffffffff1673ffffffffffffffffffffffffffffffffffffffff1681526020019081526020016000205490506000600e600083815260200190815260200160002090508281600501819055507f0d933ee2633a9f934f170379efbfb6ef948ddd09580403bbbbddaa6a8c9f909383604051610e8b9190614449565b60405180910390a1505050565b610eb3838383604051806020016040528060008152506114cd565b505050565b6000806002600084815260200190815260200160002060009054906101000a900473ffffffffffffffffffffffffffffffffffffffff169050600073ffffffffffffffffffffffffffffffffffffffff168173ffffffffffffffffffffffffffffffffffffffff161415610f61576040517f08c379a0000000000000000000000000000000000000000000000000000000008152600401610f5890614325565b60405180910390fd5b80915050919050565b60008073ffffffffffffffffffffffffffffffffffffffff168273ffffffffffffffffffffffffffffffffffffffff161415610fdb576040517f08c379a0000000000000000000000000000000000000000000000000000000008152600401610fd290614305565b60405180910390fd5b600360008373ffffffffffffffffffffffffffffffffffffffff1673ffffffffffffffffffffffffffffffffffffffff168152602001908152602001600020549050919050565b600f6020528060005260406000206000915090505481565b606060018054611049906147db565b80601f0160208091040260200160405190810160405280929190818152602001828054611075906147db565b80156110c25780601f10611097576101008083540402835291602001916110c2565b820191906000526020600020905b8154815290600101906020018083116110a557829003601f168201915b5050505050905090565b600e6020528060005260406000206000915090508060000154908060010180546110f5906147db565b80601f0160208091040260200160405190810160405280929190818152602001828054611121906147db565b801561116e5780601f106111435761010080835404028352916020019161116e565b820191906000526020600020905b81548152906001019060200180831161115157829003601f168201915b505050505090806002018054611183906147db565b80601f01602080910402602001604051908101604052809291908181526020018280546111af906147db565b80156111fc5780601f106111d1576101008083540402835291602001916111fc565b820191906000526020600020905b8154815290600101906020018083116111df57829003601f168201915b5050505050908060030154908060040154908060050154905086565b6112206125d4565b73ffffffffffffffffffffffffffffffffffffffff168273ffffffffffffffffffffffffffffffffffffffff16141561128e576040517f08c379a0000000000000000000000000000000000000000000000000000000008152600401611285906142a5565b60405180910390fd5b806005600061129b6125d4565b73ffffffffffffffffffffffffffffffffffffffff1673ffffffffffffffffffffffffffffffffffffffff16815260200190815260200160002060008473ffffffffffffffffffffffffffffffffffffffff1673ffffffffffffffffffffffffffffffffffffffff16815260200190815260200160002060006101000a81548160ff0219169083151502179055508173ffffffffffffffffffffffffffffffffffffffff166113486125d4565b73ffffffffffffffffffffffffffffffffffffffff167f17307eab39ab6107e8899845ad3d59bd9653f200f220920489ca2b5937696c318360405161138d919061409c565b60405180910390a35050565b60078060000180546113aa906147db565b80601f01602080910402602001604051908101604052809291908181526020018280546113d6906147db565b80156114235780601f106113f857610100808354040283529160200191611423565b820191906000526020600020905b81548152906001019060200180831161140657829003601f168201915b505050505090806001018054611438906147db565b80601f0160208091040260200160405190810160405280929190818152602001828054611464906147db565b80156114b15780601f10611486576101008083540402835291602001916114b1565b820191906000526020600020905b81548152906001019060200180831161149457829003601f168201915b5050505050908060020154908060030154908060040154905085565b6114de6114d86125d4565b83612760565b61151d576040517f08c379a0000000000000000000000000000000000000000000000000000000008152600401611514906143e5565b60405180910390fd5b61152984848484612a9a565b50505050565b6060600d805480602002602001604051908101604052809291908181526020016000905b828210156116d157838290600052602060002090600602016040518060c001604052908160008201548152602001600182018054611590906147db565b80601f01602080910402602001604051908101604052809291908181526020018280546115bc906147db565b80156116095780601f106115de57610100808354040283529160200191611609565b820191906000526020600020905b8154815290600101906020018083116115ec57829003601f168201915b50505050508152602001600282018054611622906147db565b80601f016020809104026020016040519081016040528092919081815260200182805461164e906147db565b801561169b5780601f106116705761010080835404028352916020019161169b565b820191906000526020600020905b81548152906001019060200180831161167e57829003601f168201915b50505050508152602001600382015481526020016004820154815260200160058201548152505081526020019060010190611553565b50505050905090565b60606000600e60008481526020019081526020016000206040518060c001604052908160008201548152602001600182018054611716906147db565b80601f0160208091040260200160405190810160405280929190818152602001828054611742906147db565b801561178f5780601f106117645761010080835404028352916020019161178f565b820191906000526020600020905b81548152906001019060200180831161177257829003601f168201915b505050505081526020016002820180546117a8906147db565b80601f01602080910402602001604051908101604052809291908181526020018280546117d4906147db565b80156118215780601f106117f657610100808354040283529160200191611821565b820191906000526020600020905b81548152906001019060200180831161180457829003601f168201915b50505050508152602001600382015481526020016004820154815260200160058201548152505090506000806000806000600660009054906101000a900473ffffffffffffffffffffffffffffffffffffffff1673ffffffffffffffffffffffffffffffffffffffff16631c001d778760a001516040518263ffffffff1660e01b81526004016118b19190614449565b60006040518083038186803b1580156118c957600080fd5b505afa1580156118dd573d6000803e3d6000fd5b505050506040513d6000823e3d601f19601f8201168201806040525081019061190691906137a6565b94509450945094509450600061191f8760600151612af6565b905060006119308860800151612af6565b9050600061193d85612af6565b905060006119838a602001516119528e612af6565b8c6040015187878760405160200161196f96959493929190613f15565b604051602081830303815290604052612ca3565b90506000816040516020016119989190613fba565b6040516020818303038152906040529050809b505050505050505050505050919050565b6119c46133b9565b6000600f60003373ffffffffffffffffffffffffffffffffffffffff1673ffffffffffffffffffffffffffffffffffffffff1681526020019081526020016000205490506000811115611b8357600e60008281526020019081526020016000206040518060c001604052908160008201548152602001600182018054611a49906147db565b80601f0160208091040260200160405190810160405280929190818152602001828054611a75906147db565b8015611ac25780601f10611a9757610100808354040283529160200191611ac2565b820191906000526020600020905b815481529060010190602001808311611aa557829003601f168201915b50505050508152602001600282018054611adb906147db565b80601f0160208091040260200160405190810160405280929190818152602001828054611b07906147db565b8015611b545780601f10611b2957610100808354040283529160200191611b54565b820191906000526020600020905b815481529060010190602001808311611b3757829003601f168201915b505050505081526020016003820154815260200160048201548152602001600582015481525050915050611b91565b611b8b6133b9565b80925050505b90565b6000600f60003373ffffffffffffffffffffffffffffffffffffffff1673ffffffffffffffffffffffffffffffffffffffff1681526020019081526020016000205490506000600e600083815260200190815260200160002090506000806000806000600660009054906101000a900473ffffffffffffffffffffffffffffffffffffffff1673ffffffffffffffffffffffffffffffffffffffff16631c001d7787600501546040518263ffffffff1660e01b8152600401611c569190614449565b60006040518083038186803b158015611c6e57600080fd5b505afa158015611c82573d6000803e3d6000fd5b505050506040513d6000823e3d601f19601f82011682018060405250810190611cab91906137a6565b94509450945094509450611d696040518060600160405280603c815260200161501b603c9139876001018054611ce0906147db565b80601f0160208091040260200160405190810160405280929190818152602001828054611d0c906147db565b8015611d595780601f10611d2e57610100808354040283529160200191611d59565b820191906000526020600020905b815481529060010190602001808311611d3c57829003601f168201915b5050505050886003015485612e61565b611e416040518060400160405280601b81526020017f426f73732025732068617320257320485020616e64202573204144000000000081525060076000018054611db2906147db565b80601f0160208091040260200160405190810160405280929190818152602001828054611dde906147db565b8015611e2b5780601f10611e0057610100808354040283529160200191611e2b565b820191906000526020600020905b815481529060010190602001808311611e0e57829003601f168201915b5050505050600760020154600760040154612e61565b6000866003015411611e88576040517f08c379a0000000000000000000000000000000000000000000000000000000008152600401611e7f90614345565b60405180910390fd5b600060076002015411611ed0576040517f08c379a0000000000000000000000000000000000000000000000000000000008152600401611ec790614245565b60405180910390fd5b816007600201541015611eed576000600760020181905550611f08565b81600760020154611efe91906146f1565b6007600201819055505b60076004015486600301541015611f285760008660030181905550611f46565b6007600401548660030154611f3d91906146f1565b86600301819055505b7f838ab28464562786a6c4ab2311964b82fa60bd9b14aa7e856af1f3f18d41a4146007600201548760030154604051611f809291906144d3565b60405180910390a150505050505050565b6000611f9d6010612695565b9050600660009054906101000a900473ffffffffffffffffffffffffffffffffffffffff1673ffffffffffffffffffffffffffffffffffffffff16636352211e836040518263ffffffff1660e01b8152600401611ffa9190614449565b60206040518083038186803b15801561201257600080fd5b505afa158015612026573d6000803e3d6000fd5b505050506040513d601f19601f8201168201806040525081019061204a91906135ad565b73ffffffffffffffffffffffffffffffffffffffff163373ffffffffffffffffffffffffffffffffffffffff161461208157600080fd5b61208b33826126a3565b6000600d84815481106120c7577f4e487b7100000000000000000000000000000000000000000000000000000000600052603260045260246000fd5b90600052602060002090600602016040518060c0016040529081600082015481526020016001820180546120fa906147db565b80601f0160208091040260200160405190810160405280929190818152602001828054612126906147db565b80156121735780601f1061214857610100808354040283529160200191612173565b820191906000526020600020905b81548152906001019060200180831161215657829003601f168201915b5050505050815260200160028201805461218c906147db565b80601f01602080910402602001604051908101604052809291908181526020018280546121b8906147db565b80156122055780601f106121da57610100808354040283529160200191612205565b820191906000526020600020905b8154815290600101906020018083116121e857829003601f168201915b50505050508152602001600382015481526020016004820154815260200160058201548152505090506040518060c001604052808581526020018260200151815260200182604001518152602001826060015181526020018260800151815260200184815250600e60008481526020019081526020016000206000820151816000015560208201518160010190805190602001906122a4929190613333565b5060408201518160020190805190602001906122c1929190613333565b50606082015181600301556080820151816004015560a082015181600501559050506123236040518060400160405280601b81526020017f4d696e7465642063686172616374657220666f722025733a202564000000000081525033846126c1565b81600f60003373ffffffffffffffffffffffffffffffffffffffff1673ffffffffffffffffffffffffffffffffffffffff1681526020019081526020016000208190555061237160106124e8565b7f4bc303fd457a97b4691b9af582ce71868a3d258638c8d4f8c60988a0f0bfb8cd3383866040516123a493929190614043565b60405180910390a150505050565b6000600560008473ffffffffffffffffffffffffffffffffffffffff1673ffffffffffffffffffffffffffffffffffffffff16815260200190815260200160002060008373ffffffffffffffffffffffffffffffffffffffff1673ffffffffffffffffffffffffffffffffffffffff16815260200190815260200160002060009054906101000a900460ff16905092915050565b6124e2848484846040516024016124609493929190614117565b6040516020818303038152906040527f8d142cdd000000000000000000000000000000000000000000000000000000007bffffffffffffffffffffffffffffffffffffffffffffffffffffffff19166020820180517bffffffffffffffffffffffffffffffffffffffffffffffffffffffff8381831617835250505050612f03565b50505050565b6001816000016000828254019250508190555050565b60007f01ffc9a7000000000000000000000000000000000000000000000000000000007bffffffffffffffffffffffffffffffffffffffffffffffffffffffff1916827bffffffffffffffffffffffffffffffffffffffffffffffffffffffff1916149050919050565b60008073ffffffffffffffffffffffffffffffffffffffff166002600084815260200190815260200160002060009054906101000a900473ffffffffffffffffffffffffffffffffffffffff1673ffffffffffffffffffffffffffffffffffffffff1614159050919050565b600033905090565b816004600083815260200190815260200160002060006101000a81548173ffffffffffffffffffffffffffffffffffffffff021916908373ffffffffffffffffffffffffffffffffffffffff160217905550808273ffffffffffffffffffffffffffffffffffffffff1661264f83610eb8565b73ffffffffffffffffffffffffffffffffffffffff167f8c5be1e5ebec7d5bd14f71427d1e84f3dd0314c0f7b2291e5b200ac8c7c3b92560405160405180910390a45050565b600081600001549050919050565b6126bd828260405180602001604052806000815250612f2c565b5050565b61275b8383836040516024016126d9939291906140d9565b6040516020818303038152906040527f07c81217000000000000000000000000000000000000000000000000000000007bffffffffffffffffffffffffffffffffffffffffffffffffffffffff19166020820180517bffffffffffffffffffffffffffffffffffffffffffffffffffffffff8381831617835250505050612f03565b505050565b600061276b82612568565b6127aa576040517f08c379a00000000000000000000000000000000000000000000000000000000081526004016127a1906142c5565b60405180910390fd5b60006127b583610eb8565b90508073ffffffffffffffffffffffffffffffffffffffff168473ffffffffffffffffffffffffffffffffffffffff16148061282457508373ffffffffffffffffffffffffffffffffffffffff1661280c84610772565b73ffffffffffffffffffffffffffffffffffffffff16145b80612835575061283481856123b2565b5b91505092915050565b8273ffffffffffffffffffffffffffffffffffffffff1661285e82610eb8565b73ffffffffffffffffffffffffffffffffffffffff16146128b4576040517f08c379a00000000000000000000000000000000000000000000000000000000081526004016128ab906143a5565b60405180910390fd5b600073ffffffffffffffffffffffffffffffffffffffff168273ffffffffffffffffffffffffffffffffffffffff161415612924576040517f08c379a000000000000000000000000000000000000000000000000000000000815260040161291b90614285565b60405180910390fd5b61292f838383612f87565b61293a6000826125dc565b6001600360008573ffffffffffffffffffffffffffffffffffffffff1673ffffffffffffffffffffffffffffffffffffffff168152602001908152602001600020600082825461298a91906146f1565b925050819055506001600360008473ffffffffffffffffffffffffffffffffffffffff1673ffffffffffffffffffffffffffffffffffffffff16815260200190815260200160002060008282546129e19190614610565b92505081905550816002600083815260200190815260200160002060006101000a81548173ffffffffffffffffffffffffffffffffffffffff021916908373ffffffffffffffffffffffffffffffffffffffff160217905550808273ffffffffffffffffffffffffffffffffffffffff168473ffffffffffffffffffffffffffffffffffffffff167fddf252ad1be2c89b69c2b068fc378daa952ba7f163c4a11628f55a4df523b3ef60405160405180910390a4505050565b612aa584848461283e565b612ab184848484612f8c565b612af0576040517f08c379a0000000000000000000000000000000000000000000000000000000008152600401612ae790614225565b60405180910390fd5b50505050565b60606000821415612b3e576040518060400160405280600181526020017f30000000000000000000000000000000000000000000000000000000000000008152509050612c9e565b600082905060005b60008214612b70578080612b599061483e565b915050600a82612b699190614666565b9150612b46565b60008167ffffffffffffffff811115612bb2577f4e487b7100000000000000000000000000000000000000000000000000000000600052604160045260246000fd5b6040519080825280601f01601f191660200182016040528015612be45781602001600182028036833780820191505090505b5090505b60008514612c9757600182612bfd91906146f1565b9150600a85612c0c9190614887565b6030612c189190614610565b60f81b818381518110612c54577f4e487b7100000000000000000000000000000000000000000000000000000000600052603260045260246000fd5b60200101907effffffffffffffffffffffffffffffffffffffffffffffffffffffffffffff1916908160001a905350600a85612c909190614666565b9450612be8565b8093505050505b919050565b60606000825190506000811415612ccc5760405180602001604052806000815250915050612e5c565b60006003600283612cdd9190614610565b612ce79190614666565b6004612cf39190614697565b90506000602082612d049190614610565b67ffffffffffffffff811115612d43577f4e487b7100000000000000000000000000000000000000000000000000000000600052604160045260246000fd5b6040519080825280601f01601f191660200182016040528015612d755781602001600182028036833780820191505090505b5090506000604051806060016040528060408152602001614fdb604091399050600181016020830160005b86811015612e195760038101905062ffffff818a015116603f8160121c168401518060081b905060ff603f83600c1c1686015116810190508060081b905060ff603f8360061c1686015116810190508060081b905060ff603f831686015116810190508060e01b90508084526004840193505050612da0565b506003860660018114612e335760028114612e4357612e4e565b613d3d60f01b6002830352612e4e565b603d60f81b60018303525b508484525050819450505050505b919050565b612efd84848484604051602401612e7b9493929190614171565b6040516020818303038152906040527fd5cf17d0000000000000000000000000000000000000000000000000000000007bffffffffffffffffffffffffffffffffffffffffffffffffffffffff19166020820180517bffffffffffffffffffffffffffffffffffffffffffffffffffffffff8381831617835250505050612f03565b50505050565b60008151905060006a636f6e736f6c652e6c6f679050602083016000808483855afa5050505050565b612f368383613123565b612f436000848484612f8c565b612f82576040517f08c379a0000000000000000000000000000000000000000000000000000000008152600401612f7990614225565b60405180910390fd5b505050565b505050565b6000612fad8473ffffffffffffffffffffffffffffffffffffffff166132f1565b15613116578373ffffffffffffffffffffffffffffffffffffffff1663150b7a02612fd66125d4565b8786866040518563ffffffff1660e01b8152600401612ff89493929190613ff7565b602060405180830381600087803b15801561301257600080fd5b505af192505050801561304357506040513d601f19601f82011682018060405250810190613040919061377d565b60015b6130c6573d8060008114613073576040519150601f19603f3d011682016040523d82523d6000602084013e613078565b606091505b506000815114156130be576040517f08c379a00000000000000000000000000000000000000000000000000000000081526004016130b590614225565b60405180910390fd5b805181602001fd5b63150b7a0260e01b7bffffffffffffffffffffffffffffffffffffffffffffffffffffffff1916817bffffffffffffffffffffffffffffffffffffffffffffffffffffffff19161491505061311b565b600190505b949350505050565b600073ffffffffffffffffffffffffffffffffffffffff168273ffffffffffffffffffffffffffffffffffffffff161415613193576040517f08c379a000000000000000000000000000000000000000000000000000000000815260040161318a90614365565b60405180910390fd5b61319c81612568565b156131dc576040517f08c379a00000000000000000000000000000000000000000000000000000000081526004016131d390614265565b60405180910390fd5b6131e860008383612f87565b6001600360008473ffffffffffffffffffffffffffffffffffffffff1673ffffffffffffffffffffffffffffffffffffffff16815260200190815260200160002060008282546132389190614610565b92505081905550816002600083815260200190815260200160002060006101000a81548173ffffffffffffffffffffffffffffffffffffffff021916908373ffffffffffffffffffffffffffffffffffffffff160217905550808273ffffffffffffffffffffffffffffffffffffffff16600073ffffffffffffffffffffffffffffffffffffffff167fddf252ad1be2c89b69c2b068fc378daa952ba7f163c4a11628f55a4df523b3ef60405160405180910390a45050565b600080823b905060008111915050919050565b6040518060a0016040528060608152602001606081526020016000815260200160008152602001600081525090565b82805461333f906147db565b90600052602060002090601f01602090048101928261336157600085556133a8565b82601f1061337a57805160ff19168380011785556133a8565b828001600101855582156133a8579182015b828111156133a757825182559160200191906001019061338c565b5b5090506133b591906133ef565b5090565b6040518060c001604052806000815260200160608152602001606081526020016000815260200160008152602001600081525090565b5b808211156134085760008160009055506001016133f0565b5090565b600061341f61341a84614521565b6144fc565b90508281526020810184848401111561343757600080fd5b613442848285614799565b509392505050565b600061345d61345884614552565b6144fc565b90508281526020810184848401111561347557600080fd5b6134808482856147a8565b509392505050565b60008135905061349781614f6e565b92915050565b6000815190506134ac81614f6e565b92915050565b6000813590506134c181614f85565b92915050565b6000813590506134d681614f9c565b92915050565b6000815190506134eb81614f9c565b92915050565b600082601f83011261350257600080fd5b813561351284826020860161340c565b91505092915050565b60008151905061352a81614fb3565b92915050565b600082601f83011261354157600080fd5b815161355184826020860161344a565b91505092915050565b60008135905061356981614fc3565b92915050565b60008151905061357e81614fc3565b92915050565b60006020828403121561359657600080fd5b60006135a484828501613488565b91505092915050565b6000602082840312156135bf57600080fd5b60006135cd8482850161349d565b91505092915050565b600080604083850312156135e957600080fd5b60006135f785828601613488565b925050602061360885828601613488565b9150509250929050565b60008060006060848603121561362757600080fd5b600061363586828701613488565b935050602061364686828701613488565b92505060406136578682870161355a565b9150509250925092565b6000806000806080858703121561367757600080fd5b600061368587828801613488565b945050602061369687828801613488565b93505060406136a78782880161355a565b925050606085013567ffffffffffffffff8111156136c457600080fd5b6136d0878288016134f1565b91505092959194509250565b600080604083850312156136ef57600080fd5b60006136fd85828601613488565b925050602061370e858286016134b2565b9150509250929050565b6000806040838503121561372b57600080fd5b600061373985828601613488565b925050602061374a8582860161355a565b9150509250929050565b60006020828403121561376657600080fd5b6000613774848285016134c7565b91505092915050565b60006020828403121561378f57600080fd5b600061379d848285016134dc565b91505092915050565b600080600080600060a086880312156137be57600080fd5b600086015167ffffffffffffffff8111156137d857600080fd5b6137e488828901613530565b955050602086015167ffffffffffffffff81111561380157600080fd5b61380d88828901613530565b945050604061381e8882890161351b565b935050606061382f8882890161356f565b92505060806138408882890161356f565b9150509295509295909350565b60006020828403121561385f57600080fd5b600061386d8482850161355a565b91505092915050565b6000806040838503121561388957600080fd5b60006138978582860161355a565b92505060206138a88582860161355a565b9150509250929050565b60006138be8383613dd7565b905092915050565b6138cf81614725565b82525050565b60006138e082614593565b6138ea81856145c1565b9350836020820285016138fc85614583565b8060005b85811015613938578484038952815161391985826138b2565b9450613924836145b4565b925060208a01995050600181019050613900565b50829750879550505050505092915050565b61395381614737565b82525050565b60006139648261459e565b61396e81856145d2565b935061397e8185602086016147a8565b61398781614974565b840191505092915050565b600061399d826145a9565b6139a781856145e3565b93506139b78185602086016147a8565b6139c081614974565b840191505092915050565b60006139d6826145a9565b6139e081856145f4565b93506139f08185602086016147a8565b6139f981614974565b840191505092915050565b6000613a0f826145a9565b613a198185614605565b9350613a298185602086016147a8565b80840191505092915050565b6000613a42600b83614605565b9150613a4d82614985565b600b82019050919050565b6000613a656032836145f4565b9150613a70826149ae565b604082019050919050565b6000613a886028836145f4565b9150613a93826149fd565b604082019050919050565b6000613aab601c836145f4565b9150613ab682614a4c565b602082019050919050565b6000613ace600e83614605565b9150613ad982614a75565b600e82019050919050565b6000613af16024836145f4565b9150613afc82614a9e565b604082019050919050565b6000613b146019836145f4565b9150613b1f82614aed565b602082019050919050565b6000613b37602c836145f4565b9150613b4282614b16565b604082019050919050565b6000613b5a602f83614605565b9150613b6582614b65565b602f82019050919050565b6000613b7d6038836145f4565b9150613b8882614bb4565b604082019050919050565b6000613ba0602a836145f4565b9150613bab82614c03565b604082019050919050565b6000613bc36029836145f4565b9150613bce82614c52565b604082019050919050565b6000613be6602d836145f4565b9150613bf182614ca1565b604082019050919050565b6000613c09600483614605565b9150613c1482614cf0565b600482019050919050565b6000613c2c6020836145f4565b9150613c3782614d19565b602082019050919050565b6000613c4f602c836145f4565b9150613c5a82614d42565b604082019050919050565b6000613c726029836145f4565b9150613c7d82614d91565b604082019050919050565b6000613c95600a83614605565b9150613ca082614de0565b600a82019050919050565b6000613cb86021836145f4565b9150613cc382614e09565b604082019050919050565b6000613cdb601d83614605565b9150613ce682614e58565b601d82019050919050565b6000613cfe6031836145f4565b9150613d0982614e81565b604082019050919050565b6000613d21603d83614605565b9150613d2c82614ed0565b603d82019050919050565b6000613d44602d83614605565b9150613d4f82614f1f565b602d82019050919050565b600060a0830160008301518482036000860152613d778282613992565b91505060208301518482036020860152613d918282613992565b9150506040830151613da66040860182613ef7565b506060830151613db96060860182613ef7565b506080830151613dcc6080860182613ef7565b508091505092915050565b600060c083016000830151613def6000860182613ef7565b5060208301518482036020860152613e078282613992565b91505060408301518482036040860152613e218282613992565b9150506060830151613e366060860182613ef7565b506080830151613e496080860182613ef7565b5060a0830151613e5c60a0860182613ef7565b508091505092915050565b600060c083016000830151613e7f6000860182613ef7565b5060208301518482036020860152613e978282613992565b91505060408301518482036040860152613eb18282613992565b9150506060830151613ec66060860182613ef7565b506080830151613ed96080860182613ef7565b5060a0830151613eec60a0860182613ef7565b508091505092915050565b613f008161478f565b82525050565b613f0f8161478f565b82525050565b6000613f2082613c88565b9150613f2c8289613a04565b9150613f3782613a35565b9150613f438288613a04565b9150613f4e82613b4d565b9150613f5a8287613a04565b9150613f6582613d14565b9150613f718286613a04565b9150613f7c82613ac1565b9150613f888285613a04565b9150613f9382613d37565b9150613f9f8284613a04565b9150613faa82613bfc565b9150819050979650505050505050565b6000613fc582613cce565b9150613fd18284613a04565b915081905092915050565b6000602082019050613ff160008301846138c6565b92915050565b600060808201905061400c60008301876138c6565b61401960208301866138c6565b6140266040830185613f06565b81810360608301526140388184613959565b905095945050505050565b600060608201905061405860008301866138c6565b6140656020830185613f06565b6140726040830184613f06565b949350505050565b6000602082019050818103600083015261409481846138d5565b905092915050565b60006020820190506140b1600083018461394a565b92915050565b600060208201905081810360008301526140d181846139cb565b905092915050565b600060608201905081810360008301526140f381866139cb565b905061410260208301856138c6565b61410f6040830184613f06565b949350505050565b6000608082019050818103600083015261413181876139cb565b9050818103602083015261414581866139cb565b90506141546040830185613f06565b818103606083015261416681846139cb565b905095945050505050565b6000608082019050818103600083015261418b81876139cb565b9050818103602083015261419f81866139cb565b90506141ae6040830185613f06565b6141bb6060830184613f06565b95945050505050565b600060a08201905081810360008301526141de81886139cb565b905081810360208301526141f281876139cb565b90506142016040830186613f06565b61420e6060830185613f06565b61421b6080830184613f06565b9695505050505050565b6000602082019050818103600083015261423e81613a58565b9050919050565b6000602082019050818103600083015261425e81613a7b565b9050919050565b6000602082019050818103600083015261427e81613a9e565b9050919050565b6000602082019050818103600083015261429e81613ae4565b9050919050565b600060208201905081810360008301526142be81613b07565b9050919050565b600060208201905081810360008301526142de81613b2a565b9050919050565b600060208201905081810360008301526142fe81613b70565b9050919050565b6000602082019050818103600083015261431e81613b93565b9050919050565b6000602082019050818103600083015261433e81613bb6565b9050919050565b6000602082019050818103600083015261435e81613bd9565b9050919050565b6000602082019050818103600083015261437e81613c1f565b9050919050565b6000602082019050818103600083015261439e81613c42565b9050919050565b600060208201905081810360008301526143be81613c65565b9050919050565b600060208201905081810360008301526143de81613cab565b9050919050565b600060208201905081810360008301526143fe81613cf1565b9050919050565b6000602082019050818103600083015261441f8184613d5a565b905092915050565b600060208201905081810360008301526144418184613e67565b905092915050565b600060208201905061445e6000830184613f06565b92915050565b600060c0820190506144796000830189613f06565b818103602083015261448b81886139cb565b9050818103604083015261449f81876139cb565b90506144ae6060830186613f06565b6144bb6080830185613f06565b6144c860a0830184613f06565b979650505050505050565b60006040820190506144e86000830185613f06565b6144f56020830184613f06565b9392505050565b6000614506614517565b9050614512828261480d565b919050565b6000604051905090565b600067ffffffffffffffff82111561453c5761453b614945565b5b61454582614974565b9050602081019050919050565b600067ffffffffffffffff82111561456d5761456c614945565b5b61457682614974565b9050602081019050919050565b6000819050602082019050919050565b600081519050919050565b600081519050919050565b600081519050919050565b6000602082019050919050565b600082825260208201905092915050565b600082825260208201905092915050565b600082825260208201905092915050565b600082825260208201905092915050565b600081905092915050565b600061461b8261478f565b91506146268361478f565b9250827fffffffffffffffffffffffffffffffffffffffffffffffffffffffffffffffff0382111561465b5761465a6148b8565b5b828201905092915050565b60006146718261478f565b915061467c8361478f565b92508261468c5761468b6148e7565b5b828204905092915050565b60006146a28261478f565b91506146ad8361478f565b9250817fffffffffffffffffffffffffffffffffffffffffffffffffffffffffffffffff04831182151516156146e6576146e56148b8565b5b828202905092915050565b60006146fc8261478f565b91506147078361478f565b92508282101561471a576147196148b8565b5b828203905092915050565b60006147308261476f565b9050919050565b60008115159050919050565b60007fffffffff0000000000000000000000000000000000000000000000000000000082169050919050565b600073ffffffffffffffffffffffffffffffffffffffff82169050919050565b6000819050919050565b82818337600083830152505050565b60005b838110156147c65780820151818401526020810190506147ab565b838111156147d5576000848401525b50505050565b600060028204905060018216806147f357607f821691505b6020821081141561480757614806614916565b5b50919050565b61481682614974565b810181811067ffffffffffffffff8211171561483557614834614945565b5b80604052505050565b60006148498261478f565b91507fffffffffffffffffffffffffffffffffffffffffffffffffffffffffffffffff82141561487c5761487b6148b8565b5b600182019050919050565b60006148928261478f565b915061489d8361478f565b9250826148ad576148ac6148e7565b5b828206905092915050565b7f4e487b7100000000000000000000000000000000000000000000000000000000600052601160045260246000fd5b7f4e487b7100000000000000000000000000000000000000000000000000000000600052601260045260246000fd5b7f4e487b7100000000000000000000000000000000000000000000000000000000600052602260045260246000fd5b7f4e487b7100000000000000000000000000000000000000000000000000000000600052604160045260246000fd5b6000601f19601f8301169050919050565b7f202d2d204e465420233a20000000000000000000000000000000000000000000600082015250565b7f4552433732313a207472616e7366657220746f206e6f6e20455243373231526560008201527f63656976657220696d706c656d656e7465720000000000000000000000000000602082015250565b7f4572726f723a20626f7373206d757374206861766520485020746f206174746160008201527f636b20626f73732e000000000000000000000000000000000000000000000000602082015250565b7f4552433732313a20746f6b656e20616c7265616479206d696e74656400000000600082015250565b7f2c20226d61785f76616c7565223a000000000000000000000000000000000000600082015250565b7f4552433732313a207472616e7366657220746f20746865207a65726f2061646460008201527f7265737300000000000000000000000000000000000000000000000000000000602082015250565b7f4552433732313a20617070726f766520746f2063616c6c657200000000000000600082015250565b7f4552433732313a206f70657261746f7220717565727920666f72206e6f6e657860008201527f697374656e7420746f6b656e0000000000000000000000000000000000000000602082015250565b7f222c20226465736372697074696f6e223a202249746073206c696b65206d616760008201527f6963222c2022696d616765223a20220000000000000000000000000000000000602082015250565b7f4552433732313a20617070726f76652063616c6c6572206973206e6f74206f7760008201527f6e6572206e6f7220617070726f76656420666f7220616c6c0000000000000000602082015250565b7f4552433732313a2062616c616e636520717565727920666f7220746865207a6560008201527f726f206164647265737300000000000000000000000000000000000000000000602082015250565b7f4552433732313a206f776e657220717565727920666f72206e6f6e657869737460008201527f656e7420746f6b656e0000000000000000000000000000000000000000000000602082015250565b7f4572726f723a20636861726163746572206d757374206861766520485020746f60008201527f2061747461636b20626f73732e00000000000000000000000000000000000000602082015250565b7f7d205d7d00000000000000000000000000000000000000000000000000000000600082015250565b7f4552433732313a206d696e7420746f20746865207a65726f2061646472657373600082015250565b7f4552433732313a20617070726f76656420717565727920666f72206e6f6e657860008201527f697374656e7420746f6b656e0000000000000000000000000000000000000000602082015250565b7f4552433732313a207472616e73666572206f6620746f6b656e2074686174206960008201527f73206e6f74206f776e0000000000000000000000000000000000000000000000602082015250565b7f7b226e616d65223a202200000000000000000000000000000000000000000000600082015250565b7f4552433732313a20617070726f76616c20746f2063757272656e74206f776e6560008201527f7200000000000000000000000000000000000000000000000000000000000000602082015250565b7f646174613a6170706c69636174696f6e2f6a736f6e3b6261736536342c000000600082015250565b7f4552433732313a207472616e736665722063616c6c6572206973206e6f74206f60008201527f776e6572206e6f7220617070726f766564000000000000000000000000000000602082015250565b7f222c202261747472696275746573223a205b207b202274726169745f7479706560008201527f223a20224865616c746820506f696e7473222c202276616c7565223a20000000602082015250565b7f7d2c207b202274726169745f74797065223a202241747461636b2044616d616760008201527f65222c202276616c7565223a2000000000000000000000000000000000000000602082015250565b614f7781614725565b8114614f8257600080fd5b50565b614f8e81614737565b8114614f9957600080fd5b50565b614fa581614743565b8114614fb057600080fd5b50565b60038110614fc057600080fd5b50565b614fcc8161478f565b8114614fd757600080fd5b5056fe4142434445464748494a4b4c4d4e4f505152535455565758595a6162636465666768696a6b6c6d6e6f707172737475767778797a303132333435363738392b2f0a506c6179657220772f206368617261637465722025732061626f757420746f2061747461636b2e2048617320257320485020616e64202573204144a2646970667358221220d05e7b40eb56d9f42d4be604bb954bac115519c7226cf2162172e4b8ee957e5f64736f6c63430008040033446f6e6520696e697469616c697a696e6720257320772f2048502025732c20696d67202573446f6e6520696e697469616c697a696e6720626f737320257320772f2048502025732c20696d67202573",
  "linkReferences": {},
  "deployedLinkReferences": {}
}