{
  "_format": "hh-sol-artifact-1",
  "contractName": "MyEpicGame",
  "sourceName": "contracts/MyEpicGame.sol",
  "abi": [
    {
      "inputs": [
        {
          "internalType": "address",
          "name": "lootContractAddress",
          "type": "address"
        },
        {
          "internalType": "string[]",
          "name": "characterNames",
          "type": "string[]"
        },
        {
          "internalType": "string[]",
          "name": "characterImageURIs",
          "type": "string[]"
        },
        {
          "internalType": "uint256[]",
          "name": "characterHp",
          "type": "uint256[]"
        },
        {
          "internalType": "string",
          "name": "bossName",
          "type": "string"
        },
        {
          "internalType": "string",
          "name": "bossImageURI",
          "type": "string"
        },
        {
          "internalType": "uint256",
          "name": "bossHp",
          "type": "uint256"
        },
        {
          "internalType": "uint256",
          "name": "bossAttackDamage",
          "type": "uint256"
        }
      ],
      "stateMutability": "nonpayable",
      "type": "constructor"
    },
    {
      "anonymous": false,
      "inputs": [
        {
          "indexed": true,
          "internalType": "address",
          "name": "owner",
          "type": "address"
        },
        {
          "indexed": true,
          "internalType": "address",
          "name": "approved",
          "type": "address"
        },
        {
          "indexed": true,
          "internalType": "uint256",
          "name": "tokenId",
          "type": "uint256"
        }
      ],
      "name": "Approval",
      "type": "event"
    },
    {
      "anonymous": false,
      "inputs": [
        {
          "indexed": true,
          "internalType": "address",
          "name": "owner",
          "type": "address"
        },
        {
          "indexed": true,
          "internalType": "address",
          "name": "operator",
          "type": "address"
        },
        {
          "indexed": false,
          "internalType": "bool",
          "name": "approved",
          "type": "bool"
        }
      ],
      "name": "ApprovalForAll",
      "type": "event"
    },
    {
      "anonymous": false,
      "inputs": [
        {
          "indexed": false,
          "internalType": "uint256",
          "name": "newBossHp",
          "type": "uint256"
        },
        {
          "indexed": false,
          "internalType": "uint256",
          "name": "newPlayerHp",
          "type": "uint256"
        }
      ],
      "name": "AttackComplete",
      "type": "event"
    },
    {
      "anonymous": false,
      "inputs": [
        {
          "indexed": false,
          "internalType": "address",
          "name": "sender",
          "type": "address"
        },
        {
          "indexed": false,
          "internalType": "uint256",
          "name": "tokenId",
          "type": "uint256"
        },
        {
          "indexed": false,
          "internalType": "uint256",
          "name": "characterIndex",
          "type": "uint256"
        }
      ],
      "name": "CharacterNFTMinted",
      "type": "event"
    },
    {
      "anonymous": false,
      "inputs": [
        {
          "indexed": true,
          "internalType": "address",
          "name": "from",
          "type": "address"
        },
        {
          "indexed": true,
          "internalType": "address",
          "name": "to",
          "type": "address"
        },
        {
          "indexed": true,
          "internalType": "uint256",
          "name": "tokenId",
          "type": "uint256"
        }
      ],
      "name": "Transfer",
      "type": "event"
    },
    {
      "anonymous": false,
      "inputs": [
        {
          "indexed": false,
          "internalType": "uint256",
          "name": "equippedWeapon",
          "type": "uint256"
        }
      ],
      "name": "WeaponEquipped",
      "type": "event"
    },
    {
      "inputs": [
        {
          "internalType": "address",
          "name": "to",
          "type": "address"
        },
        {
          "internalType": "uint256",
          "name": "tokenId",
          "type": "uint256"
        }
      ],
      "name": "approve",
      "outputs": [],
      "stateMutability": "nonpayable",
      "type": "function"
    },
    {
      "inputs": [],
      "name": "attackBoss",
      "outputs": [],
      "stateMutability": "nonpayable",
      "type": "function"
    },
    {
      "inputs": [
        {
          "internalType": "address",
          "name": "owner",
          "type": "address"
        }
      ],
      "name": "balanceOf",
      "outputs": [
        {
          "internalType": "uint256",
          "name": "",
          "type": "uint256"
        }
      ],
      "stateMutability": "view",
      "type": "function"
    },
    {
      "inputs": [],
      "name": "bigBoss",
      "outputs": [
        {
          "internalType": "string",
          "name": "name",
          "type": "string"
        },
        {
          "internalType": "string",
          "name": "imageURI",
          "type": "string"
        },
        {
          "internalType": "uint256",
          "name": "hp",
          "type": "uint256"
        },
        {
          "internalType": "uint256",
          "name": "maxHp",
          "type": "uint256"
        },
        {
          "internalType": "uint256",
          "name": "attackDamage",
          "type": "uint256"
        }
      ],
      "stateMutability": "view",
      "type": "function"
    },
    {
      "inputs": [],
      "name": "checkIfUserHasNFT",
      "outputs": [
        {
          "components": [
            {
              "internalType": "uint256",
              "name": "characterIndex",
              "type": "uint256"
            },
            {
              "internalType": "string",
              "name": "name",
              "type": "string"
            },
            {
              "internalType": "string",
              "name": "imageURI",
              "type": "string"
            },
            {
              "internalType": "uint256",
              "name": "hp",
              "type": "uint256"
            },
            {
              "internalType": "uint256",
              "name": "maxHp",
              "type": "uint256"
            },
            {
              "internalType": "uint256",
              "name": "equippedWeapon",
              "type": "uint256"
            }
          ],
          "internalType": "struct MyEpicGame.CharacterAttributes",
          "name": "",
          "type": "tuple"
        }
      ],
      "stateMutability": "view",
      "type": "function"
    },
    {
      "inputs": [
        {
          "internalType": "uint256",
          "name": "weaponTokenId",
          "type": "uint256"
        }
      ],
      "name": "equipWeapon",
      "outputs": [],
      "stateMutability": "nonpayable",
      "type": "function"
    },
    {
      "inputs": [],
      "name": "getAllDefaultCharacters",
      "outputs": [
        {
          "components": [
            {
              "internalType": "uint256",
              "name": "characterIndex",
              "type": "uint256"
            },
            {
              "internalType": "string",
              "name": "name",
              "type": "string"
            },
            {
              "internalType": "string",
              "name": "imageURI",
              "type": "string"
            },
            {
              "internalType": "uint256",
              "name": "hp",
              "type": "uint256"
            },
            {
              "internalType": "uint256",
              "name": "maxHp",
              "type": "uint256"
            },
            {
              "internalType": "uint256",
              "name": "equippedWeapon",
              "type": "uint256"
            }
          ],
          "internalType": "struct MyEpicGame.CharacterAttributes[]",
          "name": "",
          "type": "tuple[]"
        }
      ],
      "stateMutability": "view",
      "type": "function"
    },
    {
      "inputs": [
        {
          "internalType": "uint256",
          "name": "tokenId",
          "type": "uint256"
        }
      ],
      "name": "getApproved",
      "outputs": [
        {
          "internalType": "address",
          "name": "",
          "type": "address"
        }
      ],
      "stateMutability": "view",
      "type": "function"
    },
    {
      "inputs": [],
      "name": "getBigBoss",
      "outputs": [
        {
          "components": [
            {
              "internalType": "string",
              "name": "name",
              "type": "string"
            },
            {
              "internalType": "string",
              "name": "imageURI",
              "type": "string"
            },
            {
              "internalType": "uint256",
              "name": "hp",
              "type": "uint256"
            },
            {
              "internalType": "uint256",
              "name": "maxHp",
              "type": "uint256"
            },
            {
              "internalType": "uint256",
              "name": "attackDamage",
              "type": "uint256"
            }
          ],
          "internalType": "struct MyEpicGame.BigBoss",
          "name": "",
          "type": "tuple"
        }
      ],
      "stateMutability": "view",
      "type": "function"
    },
    {
      "inputs": [],
      "name": "getMyHP",
      "outputs": [
        {
          "internalType": "uint256",
          "name": "",
          "type": "uint256"
        }
      ],
      "stateMutability": "view",
      "type": "function"
    },
    {
      "inputs": [
        {
          "internalType": "address",
          "name": "owner",
          "type": "address"
        },
        {
          "internalType": "address",
          "name": "operator",
          "type": "address"
        }
      ],
      "name": "isApprovedForAll",
      "outputs": [
        {
          "internalType": "bool",
          "name": "",
          "type": "bool"
        }
      ],
      "stateMutability": "view",
      "type": "function"
    },
    {
      "inputs": [
        {
          "internalType": "uint256",
          "name": "_characterIndex",
          "type": "uint256"
        },
        {
          "internalType": "uint256",
          "name": "equippedWeapon",
          "type": "uint256"
        }
      ],
      "name": "mintCharacter",
      "outputs": [],
      "stateMutability": "nonpayable",
      "type": "function"
    },
    {
      "inputs": [
        {
          "internalType": "uint256",
          "name": "_characterIndex",
          "type": "uint256"
        }
      ],
      "name": "mintCharacterWithoutWeapon",
      "outputs": [],
      "stateMutability": "nonpayable",
      "type": "function"
    },
    {
      "inputs": [],
      "name": "name",
      "outputs": [
        {
          "internalType": "string",
          "name": "",
          "type": "string"
        }
      ],
      "stateMutability": "view",
      "type": "function"
    },
    {
      "inputs": [
        {
          "internalType": "uint256",
          "name": "",
          "type": "uint256"
        }
      ],
      "name": "nftHolderAttributes",
      "outputs": [
        {
          "internalType": "uint256",
          "name": "characterIndex",
          "type": "uint256"
        },
        {
          "internalType": "string",
          "name": "name",
          "type": "string"
        },
        {
          "internalType": "string",
          "name": "imageURI",
          "type": "string"
        },
        {
          "internalType": "uint256",
          "name": "hp",
          "type": "uint256"
        },
        {
          "internalType": "uint256",
          "name": "maxHp",
          "type": "uint256"
        },
        {
          "internalType": "uint256",
          "name": "equippedWeapon",
          "type": "uint256"
        }
      ],
      "stateMutability": "view",
      "type": "function"
    },
    {
      "inputs": [
        {
          "internalType": "address",
          "name": "",
          "type": "address"
        }
      ],
      "name": "nftHolders",
      "outputs": [
        {
          "internalType": "uint256",
          "name": "",
          "type": "uint256"
        }
      ],
      "stateMutability": "view",
      "type": "function"
    },
    {
      "inputs": [
        {
          "internalType": "uint256",
          "name": "tokenId",
          "type": "uint256"
        }
      ],
      "name": "ownerOf",
      "outputs": [
        {
          "internalType": "address",
          "name": "",
          "type": "address"
        }
      ],
      "stateMutability": "view",
      "type": "function"
    },
    {
      "inputs": [
        {
          "internalType": "address",
          "name": "from",
          "type": "address"
        },
        {
          "internalType": "address",
          "name": "to",
          "type": "address"
        },
        {
          "internalType": "uint256",
          "name": "tokenId",
          "type": "uint256"
        }
      ],
      "name": "safeTransferFrom",
      "outputs": [],
      "stateMutability": "nonpayable",
      "type": "function"
    },
    {
      "inputs": [
        {
          "internalType": "address",
          "name": "from",
          "type": "address"
        },
        {
          "internalType": "address",
          "name": "to",
          "type": "address"
        },
        {
          "internalType": "uint256",
          "name": "tokenId",
          "type": "uint256"
        },
        {
          "internalType": "bytes",
          "name": "_data",
          "type": "bytes"
        }
      ],
      "name": "safeTransferFrom",
      "outputs": [],
      "stateMutability": "nonpayable",
      "type": "function"
    },
    {
      "inputs": [
        {
          "internalType": "address",
          "name": "operator",
          "type": "address"
        },
        {
          "internalType": "bool",
          "name": "approved",
          "type": "bool"
        }
      ],
      "name": "setApprovalForAll",
      "outputs": [],
      "stateMutability": "nonpayable",
      "type": "function"
    },
    {
      "inputs": [
        {
          "internalType": "bytes4",
          "name": "interfaceId",
          "type": "bytes4"
        }
      ],
      "name": "supportsInterface",
      "outputs": [
        {
          "internalType": "bool",
          "name": "",
          "type": "bool"
        }
      ],
      "stateMutability": "view",
      "type": "function"
    },
    {
      "inputs": [],
      "name": "symbol",
      "outputs": [
        {
          "internalType": "string",
          "name": "",
          "type": "string"
        }
      ],
      "stateMutability": "view",
      "type": "function"
    },
    {
      "inputs": [
        {
          "internalType": "uint256",
          "name": "_tokenId",
          "type": "uint256"
        }
      ],
      "name": "tokenURI",
      "outputs": [
        {
          "internalType": "string",
          "name": "",
          "type": "string"
        }
      ],
      "stateMutability": "view",
      "type": "function"
    },
    {
      "inputs": [
        {
          "internalType": "address",
          "name": "from",
          "type": "address"
        },
        {
          "internalType": "address",
          "name": "to",
          "type": "address"
        },
        {
          "internalType": "uint256",
          "name": "tokenId",
          "type": "uint256"
        }
      ],
      "name": "transferFrom",
      "outputs": [],
      "stateMutability": "nonpayable",
      "type": "function"
    }
  ],
  "bytecode": "0x60806040523480156200001157600080fd5b506040516200609638038062006096833981810160405281019062000037919062000a9d565b6040518060400160405280600781526020017f4865726f4e4654000000000000000000000000000000000000000000000000008152506040518060400160405280600381526020017f484e5400000000000000000000000000000000000000000000000000000000008152508160009080519060200190620000bb929190620007ee565b508060019080519060200190620000d4929190620007ee565b5050506040518060a0016040528085815260200184815260200183815260200183815260200182815250600760008201518160000190805190602001906200011e929190620007ee565b5060208201518160010190805190602001906200013d929190620007ee565b50604082015181600201556060820151816003015560808201518160040155905050620002c06040518060600160405280602a81526020016200606c602a9139600760000180546200018f9062000e3b565b80601f0160208091040260200160405190810160405280929190818152602001828054620001bd9062000e3b565b80156200020e5780601f10620001e2576101008083540402835291602001916200020e565b820191906000526020600020905b815481529060010190602001808311620001f057829003601f168201915b5050505050600760020154600760010180546200022b9062000e3b565b80601f0160208091040260200160405190810160405280929190818152602001828054620002599062000e3b565b8015620002aa5780601f106200027e57610100808354040283529160200191620002aa565b820191906000526020600020905b8154815290600101906020018083116200028c57829003601f168201915b50505050506200070360201b6200244e1760201c565b87600660006101000a81548173ffffffffffffffffffffffffffffffffffffffff021916908373ffffffffffffffffffffffffffffffffffffffff16021790555060005b8751811015620006f457600d6040518060c001604052808381526020018a84815181106200035b577f4e487b7100000000000000000000000000000000000000000000000000000000600052603260045260246000fd5b60200260200101518152602001898481518110620003a2577f4e487b7100000000000000000000000000000000000000000000000000000000600052603260045260246000fd5b60200260200101518152602001888481518110620003e9577f4e487b7100000000000000000000000000000000000000000000000000000000600052603260045260246000fd5b6020026020010151815260200188848151811062000430577f4e487b7100000000000000000000000000000000000000000000000000000000600052603260045260246000fd5b602002602001015181526020016000815250908060018154018082558091505060019003906000526020600020906006020160009091909190915060008201518160000155602082015181600101908051906020019062000493929190620007ee565b506040820151816002019080519060200190620004b2929190620007ee565b50606082015181600301556080820151816004015560a0820151816005015550506000600d828154811062000510577f4e487b7100000000000000000000000000000000000000000000000000000000600052603260045260246000fd5b90600052602060002090600602016040518060c001604052908160008201548152602001600182018054620005459062000e3b565b80601f0160208091040260200160405190810160405280929190818152602001828054620005739062000e3b565b8015620005c45780601f106200059857610100808354040283529160200191620005c4565b820191906000526020600020905b815481529060010190602001808311620005a657829003601f168201915b50505050508152602001600282018054620005df9062000e3b565b80601f01602080910402602001604051908101604052809291908181526020018280546200060d9062000e3b565b80156200065e5780601f1062000632576101008083540402835291602001916200065e565b820191906000526020600020905b8154815290600101906020018083116200064057829003601f168201915b5050505050815260200160038201548152602001600482015481526020016005820154815250509050620006c560405180606001604052806025815260200162006047602591398260200151836060015184604001516200070360201b6200244e1760201c565b620006dc6010620007af60201b620024f01760201c565b50600181620006ec919062000d6a565b905062000304565b50505050505050505062000f79565b620007a98484848460405160240162000720949392919062000c2f565b6040516020818303038152906040527f8d142cdd000000000000000000000000000000000000000000000000000000007bffffffffffffffffffffffffffffffffffffffffffffffffffffffff19166020820180517bffffffffffffffffffffffffffffffffffffffffffffffffffffffff8381831617835250505050620007c560201b60201c565b50505050565b6001816000016000828254019250508190555050565b60008151905060006a636f6e736f6c652e6c6f679050602083016000808483855afa5050505050565b828054620007fc9062000e3b565b90600052602060002090601f0160209004810192826200082057600085556200086c565b82601f106200083b57805160ff19168380011785556200086c565b828001600101855582156200086c579182015b828111156200086b5782518255916020019190600101906200084e565b5b5090506200087b91906200087f565b5090565b5b808211156200089a57600081600090555060010162000880565b5090565b6000620008b5620008af8462000cba565b62000c91565b90508083825260208201905082856020860282011115620008d557600080fd5b60005b858110156200092457815167ffffffffffffffff811115620008f957600080fd5b80860162000908898262000a59565b85526020850194506020840193505050600181019050620008d8565b5050509392505050565b6000620009456200093f8462000ce9565b62000c91565b905080838252602082019050828560208602820111156200096557600080fd5b60005b858110156200099957816200097e888262000a86565b84526020840193506020830192505060018101905062000968565b5050509392505050565b6000620009ba620009b48462000d18565b62000c91565b905082815260208101848484011115620009d357600080fd5b620009e084828562000e05565b509392505050565b600081519050620009f98162000f45565b92915050565b600082601f83011262000a1157600080fd5b815162000a238482602086016200089e565b91505092915050565b600082601f83011262000a3e57600080fd5b815162000a508482602086016200092e565b91505092915050565b600082601f83011262000a6b57600080fd5b815162000a7d848260208601620009a3565b91505092915050565b60008151905062000a978162000f5f565b92915050565b600080600080600080600080610100898b03121562000abb57600080fd5b600062000acb8b828c01620009e8565b985050602089015167ffffffffffffffff81111562000ae957600080fd5b62000af78b828c01620009ff565b975050604089015167ffffffffffffffff81111562000b1557600080fd5b62000b238b828c01620009ff565b965050606089015167ffffffffffffffff81111562000b4157600080fd5b62000b4f8b828c0162000a2c565b955050608089015167ffffffffffffffff81111562000b6d57600080fd5b62000b7b8b828c0162000a59565b94505060a089015167ffffffffffffffff81111562000b9957600080fd5b62000ba78b828c0162000a59565b93505060c062000bba8b828c0162000a86565b92505060e062000bcd8b828c0162000a86565b9150509295985092959890939650565b600062000bea8262000d4e565b62000bf6818562000d59565b935062000c0881856020860162000e05565b62000c138162000f34565b840191505092915050565b62000c298162000dfb565b82525050565b6000608082019050818103600083015262000c4b818762000bdd565b9050818103602083015262000c61818662000bdd565b905062000c72604083018562000c1e565b818103606083015262000c86818462000bdd565b905095945050505050565b600062000c9d62000cb0565b905062000cab828262000e71565b919050565b6000604051905090565b600067ffffffffffffffff82111562000cd85762000cd762000f05565b5b602082029050602081019050919050565b600067ffffffffffffffff82111562000d075762000d0662000f05565b5b602082029050602081019050919050565b600067ffffffffffffffff82111562000d365762000d3562000f05565b5b62000d418262000f34565b9050602081019050919050565b600081519050919050565b600082825260208201905092915050565b600062000d778262000dfb565b915062000d848362000dfb565b9250827fffffffffffffffffffffffffffffffffffffffffffffffffffffffffffffffff0382111562000dbc5762000dbb62000ea7565b5b828201905092915050565b600062000dd48262000ddb565b9050919050565b600073ffffffffffffffffffffffffffffffffffffffff82169050919050565b6000819050919050565b60005b8381101562000e2557808201518184015260208101905062000e08565b8381111562000e35576000848401525b50505050565b6000600282049050600182168062000e5457607f821691505b6020821081141562000e6b5762000e6a62000ed6565b5b50919050565b62000e7c8262000f34565b810181811067ffffffffffffffff8211171562000e9e5762000e9d62000f05565b5b80604052505050565b7f4e487b7100000000000000000000000000000000000000000000000000000000600052601160045260246000fd5b7f4e487b7100000000000000000000000000000000000000000000000000000000600052602260045260246000fd5b7f4e487b7100000000000000000000000000000000000000000000000000000000600052604160045260246000fd5b6000601f19601f8301169050919050565b62000f508162000dc7565b811462000f5c57600080fd5b50565b62000f6a8162000dfb565b811462000f7657600080fd5b50565b6150be8062000f896000396000f3fe608060405234801561001057600080fd5b50600436106101585760003560e01c80637df124a1116100c3578063b953084e1161007c578063b953084e146103e0578063c87b56dd146103fe578063c8cf27f41461042e578063d4f24c5b1461044c578063e00b726d14610456578063e985e9c51461047257610158565b80637df124a11461030357806395d89b411461033357806398da4c9514610351578063a22cb46514610386578063a9c32679146103a2578063b88d4fde146103c457610158565b806323b872dd1161011557806323b872dd146102315780632990b4711461024d5780632b8c5d031461026b57806342842e0e146102875780636352211e146102a357806370a08231146102d357610158565b806301ffc9a71461015d5780630665f9611461018d57806306fdde03146101ab578063081812fc146101c9578063095ea7b3146101f95780631e0ccb3d14610215575b600080fd5b6101776004803603810190610172919061375c565b6104a2565b60405161018491906140ce565b60405180910390f35b610195610584565b6040516101a29190614437565b60405180910390f35b6101b36106e0565b6040516101c091906140e9565b60405180910390f35b6101e360048036038101906101de919061387f565b610772565b6040516101f0919061400e565b60405180910390f35b610213600480360381019061020e9190613720565b6107f7565b005b61022f600480360381019061022a919061387f565b61090f565b005b61024b6004803603810190610246919061361a565b610c4e565b005b610255610cae565b604051610262919061447b565b60405180910390f35b6102856004803603810190610280919061387f565b610d16565b005b6102a1600480360381019061029c919061361a565b610e98565b005b6102bd60048036038101906102b8919061387f565b610eb8565b6040516102ca919061400e565b60405180910390f35b6102ed60048036038101906102e8919061358c565b610f6a565b6040516102fa919061447b565b60405180910390f35b61031d6004803603810190610318919061358c565b611022565b60405161032a919061447b565b60405180910390f35b61033b61103a565b60405161034891906140e9565b60405180910390f35b61036b6004803603810190610366919061387f565b6110cc565b60405161037d96959493929190614496565b60405180910390f35b6103a0600480360381019061039b91906136e4565b611218565b005b6103aa611399565b6040516103bb9594939291906141f6565b60405180910390f35b6103de60048036038101906103d99190613669565b6114cd565b005b6103e861152f565b6040516103f591906140ac565b60405180910390f35b6104186004803603810190610413919061387f565b6116da565b60405161042591906140e9565b60405180910390f35b6104366119c0565b6040516104439190614459565b60405180910390f35b610454611b98565b005b610470600480360381019061046b91906138a8565b611f99565b005b61048c600480360381019061048791906135de565b6123ba565b60405161049991906140ce565b60405180910390f35b60007f80ac58cd000000000000000000000000000000000000000000000000000000007bffffffffffffffffffffffffffffffffffffffffffffffffffffffff1916827bffffffffffffffffffffffffffffffffffffffffffffffffffffffff1916148061056d57507f5b5e139f000000000000000000000000000000000000000000000000000000007bffffffffffffffffffffffffffffffffffffffffffffffffffffffff1916827bffffffffffffffffffffffffffffffffffffffffffffffffffffffff1916145b8061057d575061057c82612506565b5b9050919050565b61058c61330c565b60076040518060a00160405290816000820180546105a99061480d565b80601f01602080910402602001604051908101604052809291908181526020018280546105d59061480d565b80156106225780601f106105f757610100808354040283529160200191610622565b820191906000526020600020905b81548152906001019060200180831161060557829003601f168201915b5050505050815260200160018201805461063b9061480d565b80601f01602080910402602001604051908101604052809291908181526020018280546106679061480d565b80156106b45780601f10610689576101008083540402835291602001916106b4565b820191906000526020600020905b81548152906001019060200180831161069757829003601f168201915b505050505081526020016002820154815260200160038201548152602001600482015481525050905090565b6060600080546106ef9061480d565b80601f016020809104026020016040519081016040528092919081815260200182805461071b9061480d565b80156107685780601f1061073d57610100808354040283529160200191610768565b820191906000526020600020905b81548152906001019060200180831161074b57829003601f168201915b5050505050905090565b600061077d82612570565b6107bc576040517f08c379a00000000000000000000000000000000000000000000000000000000081526004016107b3906143b7565b60405180910390fd5b6004600083815260200190815260200160002060009054906101000a900473ffffffffffffffffffffffffffffffffffffffff169050919050565b600061080282610eb8565b90508073ffffffffffffffffffffffffffffffffffffffff168373ffffffffffffffffffffffffffffffffffffffff161415610873576040517f08c379a000000000000000000000000000000000000000000000000000000000815260040161086a906143f7565b60405180910390fd5b8073ffffffffffffffffffffffffffffffffffffffff166108926125dc565b73ffffffffffffffffffffffffffffffffffffffff1614806108c157506108c0816108bb6125dc565b6123ba565b5b610900576040517f08c379a00000000000000000000000000000000000000000000000000000000081526004016108f790614317565b60405180910390fd5b61090a83836125e4565b505050565b600061091b601061269d565b905061092733826126ab565b6000600d8381548110610963577f4e487b7100000000000000000000000000000000000000000000000000000000600052603260045260246000fd5b90600052602060002090600602016040518060c0016040529081600082015481526020016001820180546109969061480d565b80601f01602080910402602001604051908101604052809291908181526020018280546109c29061480d565b8015610a0f5780601f106109e457610100808354040283529160200191610a0f565b820191906000526020600020905b8154815290600101906020018083116109f257829003601f168201915b50505050508152602001600282018054610a289061480d565b80601f0160208091040260200160405190810160405280929190818152602001828054610a549061480d565b8015610aa15780601f10610a7657610100808354040283529160200191610aa1565b820191906000526020600020905b815481529060010190602001808311610a8457829003601f168201915b50505050508152602001600382015481526020016004820154815260200160058201548152505090506040518060c00160405280848152602001826020015181526020018260400151815260200182606001518152602001826080015181526020016000815250600e6000848152602001908152602001600020600082015181600001556020820151816001019080519060200190610b4192919061333b565b506040820151816002019080519060200190610b5e92919061333b565b50606082015181600301556080820151816004015560a08201518160050155905050610bc06040518060400160405280601b81526020017f4d696e7465642063686172616374657220666f722025733a202564000000000081525033846126c9565b81600f60003373ffffffffffffffffffffffffffffffffffffffff1673ffffffffffffffffffffffffffffffffffffffff16815260200190815260200160002081905550610c0e60106124f0565b7f4bc303fd457a97b4691b9af582ce71868a3d258638c8d4f8c60988a0f0bfb8cd338385604051610c4193929190614075565b60405180910390a1505050565b610c5f610c596125dc565b82612768565b610c9e576040517f08c379a0000000000000000000000000000000000000000000000000000000008152600401610c9590614417565b60405180910390fd5b610ca9838383612846565b505050565b600080600f60003373ffffffffffffffffffffffffffffffffffffffff1673ffffffffffffffffffffffffffffffffffffffff1681526020019081526020016000205490506000600e6000838152602001908152602001600020905080600301549250505090565b600660009054906101000a900473ffffffffffffffffffffffffffffffffffffffff1673ffffffffffffffffffffffffffffffffffffffff16636352211e826040518263ffffffff1660e01b8152600401610d71919061447b565b60206040518083038186803b158015610d8957600080fd5b505afa158015610d9d573d6000803e3d6000fd5b505050506040513d601f19601f82011682018060405250810190610dc191906135b5565b73ffffffffffffffffffffffffffffffffffffffff163373ffffffffffffffffffffffffffffffffffffffff1614610df857600080fd5b6000600f60003373ffffffffffffffffffffffffffffffffffffffff1673ffffffffffffffffffffffffffffffffffffffff1681526020019081526020016000205490506000600e600083815260200190815260200160002090508281600501819055507f0d933ee2633a9f934f170379efbfb6ef948ddd09580403bbbbddaa6a8c9f909383604051610e8b919061447b565b60405180910390a1505050565b610eb3838383604051806020016040528060008152506114cd565b505050565b6000806002600084815260200190815260200160002060009054906101000a900473ffffffffffffffffffffffffffffffffffffffff169050600073ffffffffffffffffffffffffffffffffffffffff168173ffffffffffffffffffffffffffffffffffffffff161415610f61576040517f08c379a0000000000000000000000000000000000000000000000000000000008152600401610f5890614357565b60405180910390fd5b80915050919050565b60008073ffffffffffffffffffffffffffffffffffffffff168273ffffffffffffffffffffffffffffffffffffffff161415610fdb576040517f08c379a0000000000000000000000000000000000000000000000000000000008152600401610fd290614337565b60405180910390fd5b600360008373ffffffffffffffffffffffffffffffffffffffff1673ffffffffffffffffffffffffffffffffffffffff168152602001908152602001600020549050919050565b600f6020528060005260406000206000915090505481565b6060600180546110499061480d565b80601f01602080910402602001604051908101604052809291908181526020018280546110759061480d565b80156110c25780601f10611097576101008083540402835291602001916110c2565b820191906000526020600020905b8154815290600101906020018083116110a557829003601f168201915b5050505050905090565b600e6020528060005260406000206000915090508060000154908060010180546110f59061480d565b80601f01602080910402602001604051908101604052809291908181526020018280546111219061480d565b801561116e5780601f106111435761010080835404028352916020019161116e565b820191906000526020600020905b81548152906001019060200180831161115157829003601f168201915b5050505050908060020180546111839061480d565b80601f01602080910402602001604051908101604052809291908181526020018280546111af9061480d565b80156111fc5780601f106111d1576101008083540402835291602001916111fc565b820191906000526020600020905b8154815290600101906020018083116111df57829003601f168201915b5050505050908060030154908060040154908060050154905086565b6112206125dc565b73ffffffffffffffffffffffffffffffffffffffff168273ffffffffffffffffffffffffffffffffffffffff16141561128e576040517f08c379a0000000000000000000000000000000000000000000000000000000008152600401611285906142d7565b60405180910390fd5b806005600061129b6125dc565b73ffffffffffffffffffffffffffffffffffffffff1673ffffffffffffffffffffffffffffffffffffffff16815260200190815260200160002060008473ffffffffffffffffffffffffffffffffffffffff1673ffffffffffffffffffffffffffffffffffffffff16815260200190815260200160002060006101000a81548160ff0219169083151502179055508173ffffffffffffffffffffffffffffffffffffffff166113486125dc565b73ffffffffffffffffffffffffffffffffffffffff167f17307eab39ab6107e8899845ad3d59bd9653f200f220920489ca2b5937696c318360405161138d91906140ce565b60405180910390a35050565b60078060000180546113aa9061480d565b80601f01602080910402602001604051908101604052809291908181526020018280546113d69061480d565b80156114235780601f106113f857610100808354040283529160200191611423565b820191906000526020600020905b81548152906001019060200180831161140657829003601f168201915b5050505050908060010180546114389061480d565b80601f01602080910402602001604051908101604052809291908181526020018280546114649061480d565b80156114b15780601f10611486576101008083540402835291602001916114b1565b820191906000526020600020905b81548152906001019060200180831161149457829003601f168201915b5050505050908060020154908060030154908060040154905085565b6114de6114d86125dc565b83612768565b61151d576040517f08c379a000000000000000000000000000000000000000000000000000000000815260040161151490614417565b60405180910390fd5b61152984848484612aa2565b50505050565b6060600d805480602002602001604051908101604052809291908181526020016000905b828210156116d157838290600052602060002090600602016040518060c0016040529081600082015481526020016001820180546115909061480d565b80601f01602080910402602001604051908101604052809291908181526020018280546115bc9061480d565b80156116095780601f106115de57610100808354040283529160200191611609565b820191906000526020600020905b8154815290600101906020018083116115ec57829003601f168201915b505050505081526020016002820180546116229061480d565b80601f016020809104026020016040519081016040528092919081815260200182805461164e9061480d565b801561169b5780601f106116705761010080835404028352916020019161169b565b820191906000526020600020905b81548152906001019060200180831161167e57829003601f168201915b50505050508152602001600382015481526020016004820154815260200160058201548152505081526020019060010190611553565b50505050905090565b60606000600e60008481526020019081526020016000206040518060c0016040529081600082015481526020016001820180546117169061480d565b80601f01602080910402602001604051908101604052809291908181526020018280546117429061480d565b801561178f5780601f106117645761010080835404028352916020019161178f565b820191906000526020600020905b81548152906001019060200180831161177257829003601f168201915b505050505081526020016002820180546117a89061480d565b80601f01602080910402602001604051908101604052809291908181526020018280546117d49061480d565b80156118215780601f106117f657610100808354040283529160200191611821565b820191906000526020600020905b81548152906001019060200180831161180457829003601f168201915b5050505050815260200160038201548152602001600482015481526020016005820154815250509050600080600080600080600660009054906101000a900473ffffffffffffffffffffffffffffffffffffffff1673ffffffffffffffffffffffffffffffffffffffff16631c001d778860a001516040518263ffffffff1660e01b81526004016118b2919061447b565b60006040518083038186803b1580156118ca57600080fd5b505afa1580156118de573d6000803e3d6000fd5b505050506040513d6000823e3d601f19601f8201168201806040525081019061190791906137ae565b95509550955095509550955060006119228860600151612afe565b905060006119338960800151612afe565b9050600061194085612afe565b905060006119868b602001516119558f612afe565b8d6040015187878760405160200161197296959493929190613f47565b604051602081830303815290604052612cab565b905060008160405160200161199b9190613fec565b6040516020818303038152906040529050809c50505050505050505050505050919050565b6119c86133c1565b6000600f60003373ffffffffffffffffffffffffffffffffffffffff1673ffffffffffffffffffffffffffffffffffffffff1681526020019081526020016000205490506000811115611b8757600e60008281526020019081526020016000206040518060c001604052908160008201548152602001600182018054611a4d9061480d565b80601f0160208091040260200160405190810160405280929190818152602001828054611a799061480d565b8015611ac65780601f10611a9b57610100808354040283529160200191611ac6565b820191906000526020600020905b815481529060010190602001808311611aa957829003601f168201915b50505050508152602001600282018054611adf9061480d565b80601f0160208091040260200160405190810160405280929190818152602001828054611b0b9061480d565b8015611b585780601f10611b2d57610100808354040283529160200191611b58565b820191906000526020600020905b815481529060010190602001808311611b3b57829003601f168201915b505050505081526020016003820154815260200160048201548152602001600582015481525050915050611b95565b611b8f6133c1565b80925050505b90565b6000600f60003373ffffffffffffffffffffffffffffffffffffffff1673ffffffffffffffffffffffffffffffffffffffff1681526020019081526020016000205490506000600e60008381526020019081526020016000209050600080600080600080600660009054906101000a900473ffffffffffffffffffffffffffffffffffffffff1673ffffffffffffffffffffffffffffffffffffffff16631c001d7788600501546040518263ffffffff1660e01b8152600401611c5b919061447b565b60006040518083038186803b158015611c7357600080fd5b505afa158015611c87573d6000803e3d6000fd5b505050506040513d6000823e3d601f19601f82011682018060405250810190611cb091906137ae565b955095509550955095509550611d706040518060600160405280603c815260200161504d603c9139886001018054611ce79061480d565b80601f0160208091040260200160405190810160405280929190818152602001828054611d139061480d565b8015611d605780601f10611d3557610100808354040283529160200191611d60565b820191906000526020600020905b815481529060010190602001808311611d4357829003601f168201915b5050505050896003015485612e69565b611e486040518060400160405280601b81526020017f426f73732025732068617320257320485020616e64202573204144000000000081525060076000018054611db99061480d565b80601f0160208091040260200160405190810160405280929190818152602001828054611de59061480d565b8015611e325780601f10611e0757610100808354040283529160200191611e32565b820191906000526020600020905b815481529060010190602001808311611e1557829003601f168201915b5050505050600760020154600760040154612e69565b6000876003015411611e8f576040517f08c379a0000000000000000000000000000000000000000000000000000000008152600401611e8690614377565b60405180910390fd5b600060076002015411611ed7576040517f08c379a0000000000000000000000000000000000000000000000000000000008152600401611ece90614277565b60405180910390fd5b816007600201541015611ef4576000600760020181905550611f0f565b81600760020154611f059190614723565b6007600201819055505b60076004015487600301541015611f2f5760008760030181905550611f4d565b6007600401548760030154611f449190614723565b87600301819055505b7f838ab28464562786a6c4ab2311964b82fa60bd9b14aa7e856af1f3f18d41a4146007600201548860030154604051611f87929190614505565b60405180910390a15050505050505050565b6000611fa5601061269d565b9050600660009054906101000a900473ffffffffffffffffffffffffffffffffffffffff1673ffffffffffffffffffffffffffffffffffffffff16636352211e836040518263ffffffff1660e01b8152600401612002919061447b565b60206040518083038186803b15801561201a57600080fd5b505afa15801561202e573d6000803e3d6000fd5b505050506040513d601f19601f8201168201806040525081019061205291906135b5565b73ffffffffffffffffffffffffffffffffffffffff163373ffffffffffffffffffffffffffffffffffffffff161461208957600080fd5b61209333826126ab565b6000600d84815481106120cf577f4e487b7100000000000000000000000000000000000000000000000000000000600052603260045260246000fd5b90600052602060002090600602016040518060c0016040529081600082015481526020016001820180546121029061480d565b80601f016020809104026020016040519081016040528092919081815260200182805461212e9061480d565b801561217b5780601f106121505761010080835404028352916020019161217b565b820191906000526020600020905b81548152906001019060200180831161215e57829003601f168201915b505050505081526020016002820180546121949061480d565b80601f01602080910402602001604051908101604052809291908181526020018280546121c09061480d565b801561220d5780601f106121e25761010080835404028352916020019161220d565b820191906000526020600020905b8154815290600101906020018083116121f057829003601f168201915b50505050508152602001600382015481526020016004820154815260200160058201548152505090506040518060c001604052808581526020018260200151815260200182604001518152602001826060015181526020018260800151815260200184815250600e60008481526020019081526020016000206000820151816000015560208201518160010190805190602001906122ac92919061333b565b5060408201518160020190805190602001906122c992919061333b565b50606082015181600301556080820151816004015560a0820151816005015590505061232b6040518060400160405280601b81526020017f4d696e7465642063686172616374657220666f722025733a202564000000000081525033846126c9565b81600f60003373ffffffffffffffffffffffffffffffffffffffff1673ffffffffffffffffffffffffffffffffffffffff1681526020019081526020016000208190555061237960106124f0565b7f4bc303fd457a97b4691b9af582ce71868a3d258638c8d4f8c60988a0f0bfb8cd3383866040516123ac93929190614075565b60405180910390a150505050565b6000600560008473ffffffffffffffffffffffffffffffffffffffff1673ffffffffffffffffffffffffffffffffffffffff16815260200190815260200160002060008373ffffffffffffffffffffffffffffffffffffffff1673ffffffffffffffffffffffffffffffffffffffff16815260200190815260200160002060009054906101000a900460ff16905092915050565b6124ea848484846040516024016124689493929190614149565b6040516020818303038152906040527f8d142cdd000000000000000000000000000000000000000000000000000000007bffffffffffffffffffffffffffffffffffffffffffffffffffffffff19166020820180517bffffffffffffffffffffffffffffffffffffffffffffffffffffffff8381831617835250505050612f0b565b50505050565b6001816000016000828254019250508190555050565b60007f01ffc9a7000000000000000000000000000000000000000000000000000000007bffffffffffffffffffffffffffffffffffffffffffffffffffffffff1916827bffffffffffffffffffffffffffffffffffffffffffffffffffffffff1916149050919050565b60008073ffffffffffffffffffffffffffffffffffffffff166002600084815260200190815260200160002060009054906101000a900473ffffffffffffffffffffffffffffffffffffffff1673ffffffffffffffffffffffffffffffffffffffff1614159050919050565b600033905090565b816004600083815260200190815260200160002060006101000a81548173ffffffffffffffffffffffffffffffffffffffff021916908373ffffffffffffffffffffffffffffffffffffffff160217905550808273ffffffffffffffffffffffffffffffffffffffff1661265783610eb8565b73ffffffffffffffffffffffffffffffffffffffff167f8c5be1e5ebec7d5bd14f71427d1e84f3dd0314c0f7b2291e5b200ac8c7c3b92560405160405180910390a45050565b600081600001549050919050565b6126c5828260405180602001604052806000815250612f34565b5050565b6127638383836040516024016126e19392919061410b565b6040516020818303038152906040527f07c81217000000000000000000000000000000000000000000000000000000007bffffffffffffffffffffffffffffffffffffffffffffffffffffffff19166020820180517bffffffffffffffffffffffffffffffffffffffffffffffffffffffff8381831617835250505050612f0b565b505050565b600061277382612570565b6127b2576040517f08c379a00000000000000000000000000000000000000000000000000000000081526004016127a9906142f7565b60405180910390fd5b60006127bd83610eb8565b90508073ffffffffffffffffffffffffffffffffffffffff168473ffffffffffffffffffffffffffffffffffffffff16148061282c57508373ffffffffffffffffffffffffffffffffffffffff1661281484610772565b73ffffffffffffffffffffffffffffffffffffffff16145b8061283d575061283c81856123ba565b5b91505092915050565b8273ffffffffffffffffffffffffffffffffffffffff1661286682610eb8565b73ffffffffffffffffffffffffffffffffffffffff16146128bc576040517f08c379a00000000000000000000000000000000000000000000000000000000081526004016128b3906143d7565b60405180910390fd5b600073ffffffffffffffffffffffffffffffffffffffff168273ffffffffffffffffffffffffffffffffffffffff16141561292c576040517f08c379a0000000000000000000000000000000000000000000000000000000008152600401612923906142b7565b60405180910390fd5b612937838383612f8f565b6129426000826125e4565b6001600360008573ffffffffffffffffffffffffffffffffffffffff1673ffffffffffffffffffffffffffffffffffffffff16815260200190815260200160002060008282546129929190614723565b925050819055506001600360008473ffffffffffffffffffffffffffffffffffffffff1673ffffffffffffffffffffffffffffffffffffffff16815260200190815260200160002060008282546129e99190614642565b92505081905550816002600083815260200190815260200160002060006101000a81548173ffffffffffffffffffffffffffffffffffffffff021916908373ffffffffffffffffffffffffffffffffffffffff160217905550808273ffffffffffffffffffffffffffffffffffffffff168473ffffffffffffffffffffffffffffffffffffffff167fddf252ad1be2c89b69c2b068fc378daa952ba7f163c4a11628f55a4df523b3ef60405160405180910390a4505050565b612aad848484612846565b612ab984848484612f94565b612af8576040517f08c379a0000000000000000000000000000000000000000000000000000000008152600401612aef90614257565b60405180910390fd5b50505050565b60606000821415612b46576040518060400160405280600181526020017f30000000000000000000000000000000000000000000000000000000000000008152509050612ca6565b600082905060005b60008214612b78578080612b6190614870565b915050600a82612b719190614698565b9150612b4e565b60008167ffffffffffffffff811115612bba577f4e487b7100000000000000000000000000000000000000000000000000000000600052604160045260246000fd5b6040519080825280601f01601f191660200182016040528015612bec5781602001600182028036833780820191505090505b5090505b60008514612c9f57600182612c059190614723565b9150600a85612c1491906148b9565b6030612c209190614642565b60f81b818381518110612c5c577f4e487b7100000000000000000000000000000000000000000000000000000000600052603260045260246000fd5b60200101907effffffffffffffffffffffffffffffffffffffffffffffffffffffffffffff1916908160001a905350600a85612c989190614698565b9450612bf0565b8093505050505b919050565b60606000825190506000811415612cd45760405180602001604052806000815250915050612e64565b60006003600283612ce59190614642565b612cef9190614698565b6004612cfb91906146c9565b90506000602082612d0c9190614642565b67ffffffffffffffff811115612d4b577f4e487b7100000000000000000000000000000000000000000000000000000000600052604160045260246000fd5b6040519080825280601f01601f191660200182016040528015612d7d5781602001600182028036833780820191505090505b509050600060405180606001604052806040815260200161500d604091399050600181016020830160005b86811015612e215760038101905062ffffff818a015116603f8160121c168401518060081b905060ff603f83600c1c1686015116810190508060081b905060ff603f8360061c1686015116810190508060081b905060ff603f831686015116810190508060e01b90508084526004840193505050612da8565b506003860660018114612e3b5760028114612e4b57612e56565b613d3d60f01b6002830352612e56565b603d60f81b60018303525b508484525050819450505050505b919050565b612f0584848484604051602401612e8394939291906141a3565b6040516020818303038152906040527fd5cf17d0000000000000000000000000000000000000000000000000000000007bffffffffffffffffffffffffffffffffffffffffffffffffffffffff19166020820180517bffffffffffffffffffffffffffffffffffffffffffffffffffffffff8381831617835250505050612f0b565b50505050565b60008151905060006a636f6e736f6c652e6c6f679050602083016000808483855afa5050505050565b612f3e838361312b565b612f4b6000848484612f94565b612f8a576040517f08c379a0000000000000000000000000000000000000000000000000000000008152600401612f8190614257565b60405180910390fd5b505050565b505050565b6000612fb58473ffffffffffffffffffffffffffffffffffffffff166132f9565b1561311e578373ffffffffffffffffffffffffffffffffffffffff1663150b7a02612fde6125dc565b8786866040518563ffffffff1660e01b81526004016130009493929190614029565b602060405180830381600087803b15801561301a57600080fd5b505af192505050801561304b57506040513d601f19601f820116820180604052508101906130489190613785565b60015b6130ce573d806000811461307b576040519150601f19603f3d011682016040523d82523d6000602084013e613080565b606091505b506000815114156130c6576040517f08c379a00000000000000000000000000000000000000000000000000000000081526004016130bd90614257565b60405180910390fd5b805181602001fd5b63150b7a0260e01b7bffffffffffffffffffffffffffffffffffffffffffffffffffffffff1916817bffffffffffffffffffffffffffffffffffffffffffffffffffffffff191614915050613123565b600190505b949350505050565b600073ffffffffffffffffffffffffffffffffffffffff168273ffffffffffffffffffffffffffffffffffffffff16141561319b576040517f08c379a000000000000000000000000000000000000000000000000000000000815260040161319290614397565b60405180910390fd5b6131a481612570565b156131e4576040517f08c379a00000000000000000000000000000000000000000000000000000000081526004016131db90614297565b60405180910390fd5b6131f060008383612f8f565b6001600360008473ffffffffffffffffffffffffffffffffffffffff1673ffffffffffffffffffffffffffffffffffffffff16815260200190815260200160002060008282546132409190614642565b92505081905550816002600083815260200190815260200160002060006101000a81548173ffffffffffffffffffffffffffffffffffffffff021916908373ffffffffffffffffffffffffffffffffffffffff160217905550808273ffffffffffffffffffffffffffffffffffffffff16600073ffffffffffffffffffffffffffffffffffffffff167fddf252ad1be2c89b69c2b068fc378daa952ba7f163c4a11628f55a4df523b3ef60405160405180910390a45050565b600080823b905060008111915050919050565b6040518060a0016040528060608152602001606081526020016000815260200160008152602001600081525090565b8280546133479061480d565b90600052602060002090601f01602090048101928261336957600085556133b0565b82601f1061338257805160ff19168380011785556133b0565b828001600101855582156133b0579182015b828111156133af578251825591602001919060010190613394565b5b5090506133bd91906133f7565b5090565b6040518060c001604052806000815260200160608152602001606081526020016000815260200160008152602001600081525090565b5b808211156134105760008160009055506001016133f8565b5090565b600061342761342284614553565b61452e565b90508281526020810184848401111561343f57600080fd5b61344a8482856147cb565b509392505050565b600061346561346084614584565b61452e565b90508281526020810184848401111561347d57600080fd5b6134888482856147da565b509392505050565b60008135905061349f81614fa0565b92915050565b6000815190506134b481614fa0565b92915050565b6000813590506134c981614fb7565b92915050565b6000813590506134de81614fce565b92915050565b6000815190506134f381614fce565b92915050565b600082601f83011261350a57600080fd5b813561351a848260208601613414565b91505092915050565b60008151905061353281614fe5565b92915050565b600082601f83011261354957600080fd5b8151613559848260208601613452565b91505092915050565b60008135905061357181614ff5565b92915050565b60008151905061358681614ff5565b92915050565b60006020828403121561359e57600080fd5b60006135ac84828501613490565b91505092915050565b6000602082840312156135c757600080fd5b60006135d5848285016134a5565b91505092915050565b600080604083850312156135f157600080fd5b60006135ff85828601613490565b925050602061361085828601613490565b9150509250929050565b60008060006060848603121561362f57600080fd5b600061363d86828701613490565b935050602061364e86828701613490565b925050604061365f86828701613562565b9150509250925092565b6000806000806080858703121561367f57600080fd5b600061368d87828801613490565b945050602061369e87828801613490565b93505060406136af87828801613562565b925050606085013567ffffffffffffffff8111156136cc57600080fd5b6136d8878288016134f9565b91505092959194509250565b600080604083850312156136f757600080fd5b600061370585828601613490565b9250506020613716858286016134ba565b9150509250929050565b6000806040838503121561373357600080fd5b600061374185828601613490565b925050602061375285828601613562565b9150509250929050565b60006020828403121561376e57600080fd5b600061377c848285016134cf565b91505092915050565b60006020828403121561379757600080fd5b60006137a5848285016134e4565b91505092915050565b60008060008060008060c087890312156137c757600080fd5b600087015167ffffffffffffffff8111156137e157600080fd5b6137ed89828a01613538565b965050602087015167ffffffffffffffff81111561380a57600080fd5b61381689828a01613538565b955050604087015167ffffffffffffffff81111561383357600080fd5b61383f89828a01613538565b945050606061385089828a01613523565b935050608061386189828a01613577565b92505060a061387289828a01613577565b9150509295509295509295565b60006020828403121561389157600080fd5b600061389f84828501613562565b91505092915050565b600080604083850312156138bb57600080fd5b60006138c985828601613562565b92505060206138da85828601613562565b9150509250929050565b60006138f08383613e09565b905092915050565b61390181614757565b82525050565b6000613912826145c5565b61391c81856145f3565b93508360208202850161392e856145b5565b8060005b8581101561396a578484038952815161394b85826138e4565b9450613956836145e6565b925060208a01995050600181019050613932565b50829750879550505050505092915050565b61398581614769565b82525050565b6000613996826145d0565b6139a08185614604565b93506139b08185602086016147da565b6139b9816149a6565b840191505092915050565b60006139cf826145db565b6139d98185614615565b93506139e98185602086016147da565b6139f2816149a6565b840191505092915050565b6000613a08826145db565b613a128185614626565b9350613a228185602086016147da565b613a2b816149a6565b840191505092915050565b6000613a41826145db565b613a4b8185614637565b9350613a5b8185602086016147da565b80840191505092915050565b6000613a74600b83614637565b9150613a7f826149b7565b600b82019050919050565b6000613a97603283614626565b9150613aa2826149e0565b604082019050919050565b6000613aba602883614626565b9150613ac582614a2f565b604082019050919050565b6000613add601c83614626565b9150613ae882614a7e565b602082019050919050565b6000613b00600e83614637565b9150613b0b82614aa7565b600e82019050919050565b6000613b23602483614626565b9150613b2e82614ad0565b604082019050919050565b6000613b46601983614626565b9150613b5182614b1f565b602082019050919050565b6000613b69602c83614626565b9150613b7482614b48565b604082019050919050565b6000613b8c602f83614637565b9150613b9782614b97565b602f82019050919050565b6000613baf603883614626565b9150613bba82614be6565b604082019050919050565b6000613bd2602a83614626565b9150613bdd82614c35565b604082019050919050565b6000613bf5602983614626565b9150613c0082614c84565b604082019050919050565b6000613c18602d83614626565b9150613c2382614cd3565b604082019050919050565b6000613c3b600483614637565b9150613c4682614d22565b600482019050919050565b6000613c5e602083614626565b9150613c6982614d4b565b602082019050919050565b6000613c81602c83614626565b9150613c8c82614d74565b604082019050919050565b6000613ca4602983614626565b9150613caf82614dc3565b604082019050919050565b6000613cc7600a83614637565b9150613cd282614e12565b600a82019050919050565b6000613cea602183614626565b9150613cf582614e3b565b604082019050919050565b6000613d0d601d83614637565b9150613d1882614e8a565b601d82019050919050565b6000613d30603183614626565b9150613d3b82614eb3565b604082019050919050565b6000613d53603d83614637565b9150613d5e82614f02565b603d82019050919050565b6000613d76602d83614637565b9150613d8182614f51565b602d82019050919050565b600060a0830160008301518482036000860152613da982826139c4565b91505060208301518482036020860152613dc382826139c4565b9150506040830151613dd86040860182613f29565b506060830151613deb6060860182613f29565b506080830151613dfe6080860182613f29565b508091505092915050565b600060c083016000830151613e216000860182613f29565b5060208301518482036020860152613e3982826139c4565b91505060408301518482036040860152613e5382826139c4565b9150506060830151613e686060860182613f29565b506080830151613e7b6080860182613f29565b5060a0830151613e8e60a0860182613f29565b508091505092915050565b600060c083016000830151613eb16000860182613f29565b5060208301518482036020860152613ec982826139c4565b91505060408301518482036040860152613ee382826139c4565b9150506060830151613ef86060860182613f29565b506080830151613f0b6080860182613f29565b5060a0830151613f1e60a0860182613f29565b508091505092915050565b613f32816147c1565b82525050565b613f41816147c1565b82525050565b6000613f5282613cba565b9150613f5e8289613a36565b9150613f6982613a67565b9150613f758288613a36565b9150613f8082613b7f565b9150613f8c8287613a36565b9150613f9782613d46565b9150613fa38286613a36565b9150613fae82613af3565b9150613fba8285613a36565b9150613fc582613d69565b9150613fd18284613a36565b9150613fdc82613c2e565b9150819050979650505050505050565b6000613ff782613d00565b91506140038284613a36565b915081905092915050565b600060208201905061402360008301846138f8565b92915050565b600060808201905061403e60008301876138f8565b61404b60208301866138f8565b6140586040830185613f38565b818103606083015261406a818461398b565b905095945050505050565b600060608201905061408a60008301866138f8565b6140976020830185613f38565b6140a46040830184613f38565b949350505050565b600060208201905081810360008301526140c68184613907565b905092915050565b60006020820190506140e3600083018461397c565b92915050565b6000602082019050818103600083015261410381846139fd565b905092915050565b6000606082019050818103600083015261412581866139fd565b905061413460208301856138f8565b6141416040830184613f38565b949350505050565b6000608082019050818103600083015261416381876139fd565b9050818103602083015261417781866139fd565b90506141866040830185613f38565b818103606083015261419881846139fd565b905095945050505050565b600060808201905081810360008301526141bd81876139fd565b905081810360208301526141d181866139fd565b90506141e06040830185613f38565b6141ed6060830184613f38565b95945050505050565b600060a082019050818103600083015261421081886139fd565b9050818103602083015261422481876139fd565b90506142336040830186613f38565b6142406060830185613f38565b61424d6080830184613f38565b9695505050505050565b6000602082019050818103600083015261427081613a8a565b9050919050565b6000602082019050818103600083015261429081613aad565b9050919050565b600060208201905081810360008301526142b081613ad0565b9050919050565b600060208201905081810360008301526142d081613b16565b9050919050565b600060208201905081810360008301526142f081613b39565b9050919050565b6000602082019050818103600083015261431081613b5c565b9050919050565b6000602082019050818103600083015261433081613ba2565b9050919050565b6000602082019050818103600083015261435081613bc5565b9050919050565b6000602082019050818103600083015261437081613be8565b9050919050565b6000602082019050818103600083015261439081613c0b565b9050919050565b600060208201905081810360008301526143b081613c51565b9050919050565b600060208201905081810360008301526143d081613c74565b9050919050565b600060208201905081810360008301526143f081613c97565b9050919050565b6000602082019050818103600083015261441081613cdd565b9050919050565b6000602082019050818103600083015261443081613d23565b9050919050565b600060208201905081810360008301526144518184613d8c565b905092915050565b600060208201905081810360008301526144738184613e99565b905092915050565b60006020820190506144906000830184613f38565b92915050565b600060c0820190506144ab6000830189613f38565b81810360208301526144bd81886139fd565b905081810360408301526144d181876139fd565b90506144e06060830186613f38565b6144ed6080830185613f38565b6144fa60a0830184613f38565b979650505050505050565b600060408201905061451a6000830185613f38565b6145276020830184613f38565b9392505050565b6000614538614549565b9050614544828261483f565b919050565b6000604051905090565b600067ffffffffffffffff82111561456e5761456d614977565b5b614577826149a6565b9050602081019050919050565b600067ffffffffffffffff82111561459f5761459e614977565b5b6145a8826149a6565b9050602081019050919050565b6000819050602082019050919050565b600081519050919050565b600081519050919050565b600081519050919050565b6000602082019050919050565b600082825260208201905092915050565b600082825260208201905092915050565b600082825260208201905092915050565b600082825260208201905092915050565b600081905092915050565b600061464d826147c1565b9150614658836147c1565b9250827fffffffffffffffffffffffffffffffffffffffffffffffffffffffffffffffff0382111561468d5761468c6148ea565b5b828201905092915050565b60006146a3826147c1565b91506146ae836147c1565b9250826146be576146bd614919565b5b828204905092915050565b60006146d4826147c1565b91506146df836147c1565b9250817fffffffffffffffffffffffffffffffffffffffffffffffffffffffffffffffff0483118215151615614718576147176148ea565b5b828202905092915050565b600061472e826147c1565b9150614739836147c1565b92508282101561474c5761474b6148ea565b5b828203905092915050565b6000614762826147a1565b9050919050565b60008115159050919050565b60007fffffffff0000000000000000000000000000000000000000000000000000000082169050919050565b600073ffffffffffffffffffffffffffffffffffffffff82169050919050565b6000819050919050565b82818337600083830152505050565b60005b838110156147f85780820151818401526020810190506147dd565b83811115614807576000848401525b50505050565b6000600282049050600182168061482557607f821691505b6020821081141561483957614838614948565b5b50919050565b614848826149a6565b810181811067ffffffffffffffff8211171561486757614866614977565b5b80604052505050565b600061487b826147c1565b91507fffffffffffffffffffffffffffffffffffffffffffffffffffffffffffffffff8214156148ae576148ad6148ea565b5b600182019050919050565b60006148c4826147c1565b91506148cf836147c1565b9250826148df576148de614919565b5b828206905092915050565b7f4e487b7100000000000000000000000000000000000000000000000000000000600052601160045260246000fd5b7f4e487b7100000000000000000000000000000000000000000000000000000000600052601260045260246000fd5b7f4e487b7100000000000000000000000000000000000000000000000000000000600052602260045260246000fd5b7f4e487b7100000000000000000000000000000000000000000000000000000000600052604160045260246000fd5b6000601f19601f8301169050919050565b7f202d2d204e465420233a20000000000000000000000000000000000000000000600082015250565b7f4552433732313a207472616e7366657220746f206e6f6e20455243373231526560008201527f63656976657220696d706c656d656e7465720000000000000000000000000000602082015250565b7f4572726f723a20626f7373206d757374206861766520485020746f206174746160008201527f636b20626f73732e000000000000000000000000000000000000000000000000602082015250565b7f4552433732313a20746f6b656e20616c7265616479206d696e74656400000000600082015250565b7f2c20226d61785f76616c7565223a000000000000000000000000000000000000600082015250565b7f4552433732313a207472616e7366657220746f20746865207a65726f2061646460008201527f7265737300000000000000000000000000000000000000000000000000000000602082015250565b7f4552433732313a20617070726f766520746f2063616c6c657200000000000000600082015250565b7f4552433732313a206f70657261746f7220717565727920666f72206e6f6e657860008201527f697374656e7420746f6b656e0000000000000000000000000000000000000000602082015250565b7f222c20226465736372697074696f6e223a202249746073206c696b65206d616760008201527f6963222c2022696d616765223a20220000000000000000000000000000000000602082015250565b7f4552433732313a20617070726f76652063616c6c6572206973206e6f74206f7760008201527f6e6572206e6f7220617070726f76656420666f7220616c6c0000000000000000602082015250565b7f4552433732313a2062616c616e636520717565727920666f7220746865207a6560008201527f726f206164647265737300000000000000000000000000000000000000000000602082015250565b7f4552433732313a206f776e657220717565727920666f72206e6f6e657869737460008201527f656e7420746f6b656e0000000000000000000000000000000000000000000000602082015250565b7f4572726f723a20636861726163746572206d757374206861766520485020746f60008201527f2061747461636b20626f73732e00000000000000000000000000000000000000602082015250565b7f7d205d7d00000000000000000000000000000000000000000000000000000000600082015250565b7f4552433732313a206d696e7420746f20746865207a65726f2061646472657373600082015250565b7f4552433732313a20617070726f76656420717565727920666f72206e6f6e657860008201527f697374656e7420746f6b656e0000000000000000000000000000000000000000602082015250565b7f4552433732313a207472616e73666572206f6620746f6b656e2074686174206960008201527f73206e6f74206f776e0000000000000000000000000000000000000000000000602082015250565b7f7b226e616d65223a202200000000000000000000000000000000000000000000600082015250565b7f4552433732313a20617070726f76616c20746f2063757272656e74206f776e6560008201527f7200000000000000000000000000000000000000000000000000000000000000602082015250565b7f646174613a6170706c69636174696f6e2f6a736f6e3b6261736536342c000000600082015250565b7f4552433732313a207472616e736665722063616c6c6572206973206e6f74206f60008201527f776e6572206e6f7220617070726f766564000000000000000000000000000000602082015250565b7f222c202261747472696275746573223a205b207b202274726169745f7479706560008201527f223a20224865616c746820506f696e7473222c202276616c7565223a20000000602082015250565b7f7d2c207b202274726169745f74797065223a202241747461636b2044616d616760008201527f65222c202276616c7565223a2000000000000000000000000000000000000000602082015250565b614fa981614757565b8114614fb457600080fd5b50565b614fc081614769565b8114614fcb57600080fd5b50565b614fd781614775565b8114614fe257600080fd5b50565b60038110614ff257600080fd5b50565b614ffe816147c1565b811461500957600080fd5b5056fe4142434445464748494a4b4c4d4e4f505152535455565758595a6162636465666768696a6b6c6d6e6f707172737475767778797a303132333435363738392b2f0a506c6179657220772f206368617261637465722025732061626f757420746f2061747461636b2e2048617320257320485020616e64202573204144a264697066735822122021753508a9b94b38f1b1dc07d990e0359f22fbef2308ddd68202ddf6d1bbaec964736f6c63430008040033446f6e6520696e697469616c697a696e6720257320772f2048502025732c20696d67202573446f6e6520696e697469616c697a696e6720626f737320257320772f2048502025732c20696d67202573",
  "linkReferences": {},
  "deployedLinkReferences": {}
}