{
  "_format": "hh-sol-artifact-1",
  "contractName": "MyEpicGame",
  "sourceName": "contracts/MyEpicGame.sol",
  "abi": [
    {
      "inputs": [
        {
          "internalType": "address",
          "name": "lootContractAddress",
          "type": "address"
        },
        {
          "internalType": "string[]",
          "name": "characterNames",
          "type": "string[]"
        },
        {
          "internalType": "string[]",
          "name": "characterImageURIs",
          "type": "string[]"
        },
        {
          "internalType": "uint256[]",
          "name": "characterHp",
          "type": "uint256[]"
        },
        {
          "internalType": "uint8[]",
          "name": "missPercents",
          "type": "uint8[]"
        },
        {
          "internalType": "uint8[]",
          "name": "dodgePercents",
          "type": "uint8[]"
        },
        {
          "internalType": "string",
          "name": "bossName",
          "type": "string"
        },
        {
          "internalType": "string",
          "name": "bossImageURI",
          "type": "string"
        },
        {
          "internalType": "uint256",
          "name": "bossHp",
          "type": "uint256"
        },
        {
          "internalType": "uint256",
          "name": "bossAttackDamage",
          "type": "uint256"
        },
        {
          "internalType": "uint8[]",
          "name": "bossMissDodge",
          "type": "uint8[]"
        }
      ],
      "stateMutability": "nonpayable",
      "type": "constructor"
    },
    {
      "anonymous": false,
      "inputs": [
        {
          "indexed": true,
          "internalType": "address",
          "name": "owner",
          "type": "address"
        },
        {
          "indexed": true,
          "internalType": "address",
          "name": "approved",
          "type": "address"
        },
        {
          "indexed": true,
          "internalType": "uint256",
          "name": "tokenId",
          "type": "uint256"
        }
      ],
      "name": "Approval",
      "type": "event"
    },
    {
      "anonymous": false,
      "inputs": [
        {
          "indexed": true,
          "internalType": "address",
          "name": "owner",
          "type": "address"
        },
        {
          "indexed": true,
          "internalType": "address",
          "name": "operator",
          "type": "address"
        },
        {
          "indexed": false,
          "internalType": "bool",
          "name": "approved",
          "type": "bool"
        }
      ],
      "name": "ApprovalForAll",
      "type": "event"
    },
    {
      "anonymous": false,
      "inputs": [
        {
          "indexed": false,
          "internalType": "uint256",
          "name": "newBossHp",
          "type": "uint256"
        },
        {
          "indexed": false,
          "internalType": "uint256",
          "name": "newPlayerHp",
          "type": "uint256"
        }
      ],
      "name": "AttackComplete",
      "type": "event"
    },
    {
      "anonymous": false,
      "inputs": [
        {
          "indexed": false,
          "internalType": "address",
          "name": "target",
          "type": "address"
        }
      ],
      "name": "BossAttackDodged",
      "type": "event"
    },
    {
      "anonymous": false,
      "inputs": [
        {
          "indexed": false,
          "internalType": "address",
          "name": "target",
          "type": "address"
        }
      ],
      "name": "BossAttackMissed",
      "type": "event"
    },
    {
      "anonymous": false,
      "inputs": [
        {
          "indexed": false,
          "internalType": "uint256",
          "name": "tokenId",
          "type": "uint256"
        }
      ],
      "name": "CharacterHealed",
      "type": "event"
    },
    {
      "anonymous": false,
      "inputs": [
        {
          "indexed": false,
          "internalType": "address",
          "name": "sender",
          "type": "address"
        },
        {
          "indexed": false,
          "internalType": "uint256",
          "name": "tokenId",
          "type": "uint256"
        },
        {
          "indexed": false,
          "internalType": "uint256",
          "name": "characterIndex",
          "type": "uint256"
        }
      ],
      "name": "CharacterNFTMinted",
      "type": "event"
    },
    {
      "anonymous": false,
      "inputs": [],
      "name": "NewBigBoss",
      "type": "event"
    },
    {
      "anonymous": false,
      "inputs": [
        {
          "indexed": false,
          "internalType": "address",
          "name": "target",
          "type": "address"
        }
      ],
      "name": "PlayerAttackDodged",
      "type": "event"
    },
    {
      "anonymous": false,
      "inputs": [
        {
          "indexed": false,
          "internalType": "address",
          "name": "target",
          "type": "address"
        }
      ],
      "name": "PlayerAttackMissed",
      "type": "event"
    },
    {
      "anonymous": false,
      "inputs": [
        {
          "indexed": true,
          "internalType": "address",
          "name": "from",
          "type": "address"
        },
        {
          "indexed": true,
          "internalType": "address",
          "name": "to",
          "type": "address"
        },
        {
          "indexed": true,
          "internalType": "uint256",
          "name": "tokenId",
          "type": "uint256"
        }
      ],
      "name": "Transfer",
      "type": "event"
    },
    {
      "anonymous": false,
      "inputs": [
        {
          "indexed": false,
          "internalType": "uint256",
          "name": "equippedWeapon",
          "type": "uint256"
        }
      ],
      "name": "WeaponEquipped",
      "type": "event"
    },
    {
      "inputs": [
        {
          "internalType": "address",
          "name": "to",
          "type": "address"
        },
        {
          "internalType": "uint256",
          "name": "tokenId",
          "type": "uint256"
        }
      ],
      "name": "approve",
      "outputs": [],
      "stateMutability": "nonpayable",
      "type": "function"
    },
    {
      "inputs": [],
      "name": "attackBoss",
      "outputs": [],
      "stateMutability": "nonpayable",
      "type": "function"
    },
    {
      "inputs": [
        {
          "internalType": "address",
          "name": "",
          "type": "address"
        }
      ],
      "name": "attackCounter",
      "outputs": [
        {
          "internalType": "uint256",
          "name": "",
          "type": "uint256"
        }
      ],
      "stateMutability": "view",
      "type": "function"
    },
    {
      "inputs": [
        {
          "internalType": "address",
          "name": "owner",
          "type": "address"
        }
      ],
      "name": "balanceOf",
      "outputs": [
        {
          "internalType": "uint256",
          "name": "",
          "type": "uint256"
        }
      ],
      "stateMutability": "view",
      "type": "function"
    },
    {
      "inputs": [],
      "name": "becomeBoss",
      "outputs": [],
      "stateMutability": "nonpayable",
      "type": "function"
    },
    {
      "inputs": [],
      "name": "bigBoss",
      "outputs": [
        {
          "internalType": "address",
          "name": "owner",
          "type": "address"
        },
        {
          "internalType": "string",
          "name": "name",
          "type": "string"
        },
        {
          "internalType": "string",
          "name": "imageURI",
          "type": "string"
        },
        {
          "internalType": "uint256",
          "name": "hp",
          "type": "uint256"
        },
        {
          "internalType": "uint256",
          "name": "maxHp",
          "type": "uint256"
        },
        {
          "internalType": "uint256",
          "name": "attackDamage",
          "type": "uint256"
        },
        {
          "internalType": "uint8",
          "name": "missPercent",
          "type": "uint8"
        },
        {
          "internalType": "uint8",
          "name": "dodgePercent",
          "type": "uint8"
        }
      ],
      "stateMutability": "view",
      "type": "function"
    },
    {
      "inputs": [],
      "name": "checkIfUserHasNFT",
      "outputs": [
        {
          "components": [
            {
              "internalType": "uint256",
              "name": "characterIndex",
              "type": "uint256"
            },
            {
              "internalType": "string",
              "name": "name",
              "type": "string"
            },
            {
              "internalType": "string",
              "name": "imageURI",
              "type": "string"
            },
            {
              "internalType": "uint256",
              "name": "hp",
              "type": "uint256"
            },
            {
              "internalType": "uint256",
              "name": "maxHp",
              "type": "uint256"
            },
            {
              "internalType": "uint256",
              "name": "equippedWeapon",
              "type": "uint256"
            },
            {
              "internalType": "uint8",
              "name": "missPercent",
              "type": "uint8"
            },
            {
              "internalType": "uint8",
              "name": "dodgePercent",
              "type": "uint8"
            }
          ],
          "internalType": "struct MyEpicGame.CharacterAttributes",
          "name": "",
          "type": "tuple"
        }
      ],
      "stateMutability": "view",
      "type": "function"
    },
    {
      "inputs": [
        {
          "internalType": "uint256",
          "name": "weaponTokenId",
          "type": "uint256"
        }
      ],
      "name": "equipWeapon",
      "outputs": [],
      "stateMutability": "nonpayable",
      "type": "function"
    },
    {
      "inputs": [],
      "name": "getAllDefaultCharacters",
      "outputs": [
        {
          "components": [
            {
              "internalType": "uint256",
              "name": "characterIndex",
              "type": "uint256"
            },
            {
              "internalType": "string",
              "name": "name",
              "type": "string"
            },
            {
              "internalType": "string",
              "name": "imageURI",
              "type": "string"
            },
            {
              "internalType": "uint256",
              "name": "hp",
              "type": "uint256"
            },
            {
              "internalType": "uint256",
              "name": "maxHp",
              "type": "uint256"
            },
            {
              "internalType": "uint256",
              "name": "equippedWeapon",
              "type": "uint256"
            },
            {
              "internalType": "uint8",
              "name": "missPercent",
              "type": "uint8"
            },
            {
              "internalType": "uint8",
              "name": "dodgePercent",
              "type": "uint8"
            }
          ],
          "internalType": "struct MyEpicGame.CharacterAttributes[]",
          "name": "",
          "type": "tuple[]"
        }
      ],
      "stateMutability": "view",
      "type": "function"
    },
    {
      "inputs": [
        {
          "internalType": "uint256",
          "name": "tokenId",
          "type": "uint256"
        }
      ],
      "name": "getApproved",
      "outputs": [
        {
          "internalType": "address",
          "name": "",
          "type": "address"
        }
      ],
      "stateMutability": "view",
      "type": "function"
    },
    {
      "inputs": [],
      "name": "getBigBoss",
      "outputs": [
        {
          "components": [
            {
              "internalType": "address",
              "name": "owner",
              "type": "address"
            },
            {
              "internalType": "string",
              "name": "name",
              "type": "string"
            },
            {
              "internalType": "string",
              "name": "imageURI",
              "type": "string"
            },
            {
              "internalType": "uint256",
              "name": "hp",
              "type": "uint256"
            },
            {
              "internalType": "uint256",
              "name": "maxHp",
              "type": "uint256"
            },
            {
              "internalType": "uint256",
              "name": "attackDamage",
              "type": "uint256"
            },
            {
              "internalType": "uint8",
              "name": "missPercent",
              "type": "uint8"
            },
            {
              "internalType": "uint8",
              "name": "dodgePercent",
              "type": "uint8"
            }
          ],
          "internalType": "struct MyEpicGame.BigBoss",
          "name": "",
          "type": "tuple"
        }
      ],
      "stateMutability": "view",
      "type": "function"
    },
    {
      "inputs": [],
      "name": "getMyHP",
      "outputs": [
        {
          "internalType": "uint256",
          "name": "",
          "type": "uint256"
        }
      ],
      "stateMutability": "view",
      "type": "function"
    },
    {
      "inputs": [],
      "name": "healCharacter",
      "outputs": [],
      "stateMutability": "nonpayable",
      "type": "function"
    },
    {
      "inputs": [
        {
          "internalType": "address",
          "name": "owner",
          "type": "address"
        },
        {
          "internalType": "address",
          "name": "operator",
          "type": "address"
        }
      ],
      "name": "isApprovedForAll",
      "outputs": [
        {
          "internalType": "bool",
          "name": "",
          "type": "bool"
        }
      ],
      "stateMutability": "view",
      "type": "function"
    },
    {
      "inputs": [
        {
          "internalType": "uint256",
          "name": "_characterIndex",
          "type": "uint256"
        },
        {
          "internalType": "uint256",
          "name": "equippedWeapon",
          "type": "uint256"
        }
      ],
      "name": "mintCharacter",
      "outputs": [],
      "stateMutability": "nonpayable",
      "type": "function"
    },
    {
      "inputs": [
        {
          "internalType": "uint256",
          "name": "_characterIndex",
          "type": "uint256"
        }
      ],
      "name": "mintCharacterWithoutWeapon",
      "outputs": [],
      "stateMutability": "nonpayable",
      "type": "function"
    },
    {
      "inputs": [],
      "name": "name",
      "outputs": [
        {
          "internalType": "string",
          "name": "",
          "type": "string"
        }
      ],
      "stateMutability": "view",
      "type": "function"
    },
    {
      "inputs": [
        {
          "internalType": "uint256",
          "name": "",
          "type": "uint256"
        }
      ],
      "name": "nftHolderAttributes",
      "outputs": [
        {
          "internalType": "uint256",
          "name": "characterIndex",
          "type": "uint256"
        },
        {
          "internalType": "string",
          "name": "name",
          "type": "string"
        },
        {
          "internalType": "string",
          "name": "imageURI",
          "type": "string"
        },
        {
          "internalType": "uint256",
          "name": "hp",
          "type": "uint256"
        },
        {
          "internalType": "uint256",
          "name": "maxHp",
          "type": "uint256"
        },
        {
          "internalType": "uint256",
          "name": "equippedWeapon",
          "type": "uint256"
        },
        {
          "internalType": "uint8",
          "name": "missPercent",
          "type": "uint8"
        },
        {
          "internalType": "uint8",
          "name": "dodgePercent",
          "type": "uint8"
        }
      ],
      "stateMutability": "view",
      "type": "function"
    },
    {
      "inputs": [
        {
          "internalType": "address",
          "name": "",
          "type": "address"
        }
      ],
      "name": "nftHolders",
      "outputs": [
        {
          "internalType": "uint256",
          "name": "",
          "type": "uint256"
        }
      ],
      "stateMutability": "view",
      "type": "function"
    },
    {
      "inputs": [
        {
          "internalType": "uint256",
          "name": "tokenId",
          "type": "uint256"
        }
      ],
      "name": "ownerOf",
      "outputs": [
        {
          "internalType": "address",
          "name": "",
          "type": "address"
        }
      ],
      "stateMutability": "view",
      "type": "function"
    },
    {
      "inputs": [
        {
          "internalType": "address",
          "name": "from",
          "type": "address"
        },
        {
          "internalType": "address",
          "name": "to",
          "type": "address"
        },
        {
          "internalType": "uint256",
          "name": "tokenId",
          "type": "uint256"
        }
      ],
      "name": "safeTransferFrom",
      "outputs": [],
      "stateMutability": "nonpayable",
      "type": "function"
    },
    {
      "inputs": [
        {
          "internalType": "address",
          "name": "from",
          "type": "address"
        },
        {
          "internalType": "address",
          "name": "to",
          "type": "address"
        },
        {
          "internalType": "uint256",
          "name": "tokenId",
          "type": "uint256"
        },
        {
          "internalType": "bytes",
          "name": "_data",
          "type": "bytes"
        }
      ],
      "name": "safeTransferFrom",
      "outputs": [],
      "stateMutability": "nonpayable",
      "type": "function"
    },
    {
      "inputs": [
        {
          "internalType": "address",
          "name": "operator",
          "type": "address"
        },
        {
          "internalType": "bool",
          "name": "approved",
          "type": "bool"
        }
      ],
      "name": "setApprovalForAll",
      "outputs": [],
      "stateMutability": "nonpayable",
      "type": "function"
    },
    {
      "inputs": [
        {
          "internalType": "bytes4",
          "name": "interfaceId",
          "type": "bytes4"
        }
      ],
      "name": "supportsInterface",
      "outputs": [
        {
          "internalType": "bool",
          "name": "",
          "type": "bool"
        }
      ],
      "stateMutability": "view",
      "type": "function"
    },
    {
      "inputs": [],
      "name": "symbol",
      "outputs": [
        {
          "internalType": "string",
          "name": "",
          "type": "string"
        }
      ],
      "stateMutability": "view",
      "type": "function"
    },
    {
      "inputs": [
        {
          "internalType": "uint256",
          "name": "_tokenId",
          "type": "uint256"
        }
      ],
      "name": "tokenURI",
      "outputs": [
        {
          "internalType": "string",
          "name": "",
          "type": "string"
        }
      ],
      "stateMutability": "view",
      "type": "function"
    },
    {
      "inputs": [
        {
          "internalType": "address",
          "name": "from",
          "type": "address"
        },
        {
          "internalType": "address",
          "name": "to",
          "type": "address"
        },
        {
          "internalType": "uint256",
          "name": "tokenId",
          "type": "uint256"
        }
      ],
      "name": "transferFrom",
      "outputs": [],
      "stateMutability": "nonpayable",
      "type": "function"
    }
  ],
  "bytecode": "0x60806040523480156200001157600080fd5b506040516200738538038062007385833981810160405281019062000037919062000da7565b6040518060400160405280600781526020017f4865726f4e4654000000000000000000000000000000000000000000000000008152506040518060400160405280600381526020017f484e5400000000000000000000000000000000000000000000000000000000008152508160009080519060200190620000bb92919062000a3f565b508060019080519060200190620000d492919062000a3f565b5050506040518061010001604052803373ffffffffffffffffffffffffffffffffffffffff1681526020018681526020018581526020018481526020018481526020018381526020018260008151811062000158577f4e487b7100000000000000000000000000000000000000000000000000000000600052603260045260246000fd5b602002602001015160ff16815260200182600181518110620001a3577f4e487b7100000000000000000000000000000000000000000000000000000000600052603260045260246000fd5b602002602001015160ff16815250600760008201518160000160006101000a81548173ffffffffffffffffffffffffffffffffffffffff021916908373ffffffffffffffffffffffffffffffffffffffff16021790555060208201518160010190805190602001906200021892919062000a3f565b5060408201518160020190805190602001906200023792919062000a3f565b50606082015181600301556080820151816004015560a0820151816005015560c08201518160060160006101000a81548160ff021916908360ff16021790555060e08201518160060160016101000a81548160ff021916908360ff160217905550905050620003fc6040518060600160405280602a81526020016200735b602a913960076001018054620002cb9062001210565b80601f0160208091040260200160405190810160405280929190818152602001828054620002f99062001210565b80156200034a5780601f106200031e576101008083540402835291602001916200034a565b820191906000526020600020905b8154815290600101906020018083116200032c57829003601f168201915b505050505060076003015460076002018054620003679062001210565b80601f0160208091040260200160405190810160405280929190818152602001828054620003959062001210565b8015620003e65780601f10620003ba57610100808354040283529160200191620003e6565b820191906000526020600020905b815481529060010190602001808311620003c857829003601f168201915b50505050506200095460201b62002f3d1760201c565b8a600660006101000a81548173ffffffffffffffffffffffffffffffffffffffff021916908373ffffffffffffffffffffffffffffffffffffffff16021790555060005b8a518110156200094257600f6040518061010001604052808381526020018d848151811062000498577f4e487b7100000000000000000000000000000000000000000000000000000000600052603260045260246000fd5b602002602001015181526020018c8481518110620004df577f4e487b7100000000000000000000000000000000000000000000000000000000600052603260045260246000fd5b602002602001015181526020018b848151811062000526577f4e487b7100000000000000000000000000000000000000000000000000000000600052603260045260246000fd5b602002602001015181526020018b84815181106200056d577f4e487b7100000000000000000000000000000000000000000000000000000000600052603260045260246000fd5b60200260200101518152602001600081526020018a8481518110620005bb577f4e487b7100000000000000000000000000000000000000000000000000000000600052603260045260246000fd5b602002602001015160ff16815260200189848151811062000605577f4e487b7100000000000000000000000000000000000000000000000000000000600052603260045260246000fd5b602002602001015160ff1681525090806001815401808255809150506001900390600052602060002090600702016000909190919091506000820151816000015560208201518160010190805190602001906200066492919062000a3f565b5060408201518160020190805190602001906200068392919062000a3f565b50606082015181600301556080820151816004015560a0820151816005015560c08201518160060160006101000a81548160ff021916908360ff16021790555060e08201518160060160016101000a81548160ff021916908360ff16021790555050506000600f828154811062000723577f4e487b7100000000000000000000000000000000000000000000000000000000600052603260045260246000fd5b90600052602060002090600702016040518061010001604052908160008201548152602001600182018054620007599062001210565b80601f0160208091040260200160405190810160405280929190818152602001828054620007879062001210565b8015620007d85780601f10620007ac57610100808354040283529160200191620007d8565b820191906000526020600020905b815481529060010190602001808311620007ba57829003601f168201915b50505050508152602001600282018054620007f39062001210565b80601f0160208091040260200160405190810160405280929190818152602001828054620008219062001210565b8015620008725780601f10620008465761010080835404028352916020019162000872565b820191906000526020600020905b8154815290600101906020018083116200085457829003601f168201915b505050505081526020016003820154815260200160048201548152602001600582015481526020016006820160009054906101000a900460ff1660ff1660ff1681526020016006820160019054906101000a900460ff1660ff1660ff168152505090506200091360405180606001604052806025815260200162007336602591398260200151836060015184604001516200095460201b62002f3d1760201c565b6200092a601362000a0060201b62002fdf1760201c565b506001816200093a919062001132565b905062000440565b50505050505050505050505062001368565b620009fa8484848460405160240162000971949392919062000fc8565b6040516020818303038152906040527f8d142cdd000000000000000000000000000000000000000000000000000000007bffffffffffffffffffffffffffffffffffffffffffffffffffffffff19166020820180517bffffffffffffffffffffffffffffffffffffffffffffffffffffffff838183161783525050505062000a1660201b60201c565b50505050565b6001816000016000828254019250508190555050565b60008151905060006a636f6e736f6c652e6c6f679050602083016000808483855afa5050505050565b82805462000a4d9062001210565b90600052602060002090601f01602090048101928262000a71576000855562000abd565b82601f1062000a8c57805160ff191683800117855562000abd565b8280016001018555821562000abd579182015b8281111562000abc57825182559160200191906001019062000a9f565b5b50905062000acc919062000ad0565b5090565b5b8082111562000aeb57600081600090555060010162000ad1565b5090565b600062000b0662000b008462001053565b6200102a565b9050808382526020820190508285602086028201111562000b2657600080fd5b60005b8581101562000b7557815167ffffffffffffffff81111562000b4a57600080fd5b80860162000b59898262000d4c565b8552602085019450602084019350505060018101905062000b29565b5050509392505050565b600062000b9662000b908462001082565b6200102a565b9050808382526020820190508285602086028201111562000bb657600080fd5b60005b8581101562000bea578162000bcf888262000d79565b84526020840193506020830192505060018101905062000bb9565b5050509392505050565b600062000c0b62000c0584620010b1565b6200102a565b9050808382526020820190508285602086028201111562000c2b57600080fd5b60005b8581101562000c5f578162000c44888262000d90565b84526020840193506020830192505060018101905062000c2e565b5050509392505050565b600062000c8062000c7a84620010e0565b6200102a565b90508281526020810184848401111562000c9957600080fd5b62000ca6848285620011da565b509392505050565b60008151905062000cbf816200131a565b92915050565b600082601f83011262000cd757600080fd5b815162000ce984826020860162000aef565b91505092915050565b600082601f83011262000d0457600080fd5b815162000d1684826020860162000b7f565b91505092915050565b600082601f83011262000d3157600080fd5b815162000d4384826020860162000bf4565b91505092915050565b600082601f83011262000d5e57600080fd5b815162000d7084826020860162000c69565b91505092915050565b60008151905062000d8a8162001334565b92915050565b60008151905062000da1816200134e565b92915050565b60008060008060008060008060008060006101608c8e03121562000dca57600080fd5b600062000dda8e828f0162000cae565b9b505060208c015167ffffffffffffffff81111562000df857600080fd5b62000e068e828f0162000cc5565b9a505060408c015167ffffffffffffffff81111562000e2457600080fd5b62000e328e828f0162000cc5565b99505060608c015167ffffffffffffffff81111562000e5057600080fd5b62000e5e8e828f0162000cf2565b98505060808c015167ffffffffffffffff81111562000e7c57600080fd5b62000e8a8e828f0162000d1f565b97505060a08c015167ffffffffffffffff81111562000ea857600080fd5b62000eb68e828f0162000d1f565b96505060c08c015167ffffffffffffffff81111562000ed457600080fd5b62000ee28e828f0162000d4c565b95505060e08c015167ffffffffffffffff81111562000f0057600080fd5b62000f0e8e828f0162000d4c565b94505061010062000f228e828f0162000d79565b93505061012062000f368e828f0162000d79565b9250506101408c015167ffffffffffffffff81111562000f5557600080fd5b62000f638e828f0162000d1f565b9150509295989b509295989b9093969950565b600062000f838262001116565b62000f8f818562001121565b935062000fa1818560208601620011da565b62000fac8162001309565b840191505092915050565b62000fc281620011c3565b82525050565b6000608082019050818103600083015262000fe4818762000f76565b9050818103602083015262000ffa818662000f76565b90506200100b604083018562000fb7565b81810360608301526200101f818462000f76565b905095945050505050565b60006200103662001049565b905062001044828262001246565b919050565b6000604051905090565b600067ffffffffffffffff821115620010715762001070620012da565b5b602082029050602081019050919050565b600067ffffffffffffffff821115620010a0576200109f620012da565b5b602082029050602081019050919050565b600067ffffffffffffffff821115620010cf57620010ce620012da565b5b602082029050602081019050919050565b600067ffffffffffffffff821115620010fe57620010fd620012da565b5b620011098262001309565b9050602081019050919050565b600081519050919050565b600082825260208201905092915050565b60006200113f82620011c3565b91506200114c83620011c3565b9250827fffffffffffffffffffffffffffffffffffffffffffffffffffffffffffffffff038211156200118457620011836200127c565b5b828201905092915050565b60006200119c82620011a3565b9050919050565b600073ffffffffffffffffffffffffffffffffffffffff82169050919050565b6000819050919050565b600060ff82169050919050565b60005b83811015620011fa578082015181840152602081019050620011dd565b838111156200120a576000848401525b50505050565b600060028204905060018216806200122957607f821691505b6020821081141562001240576200123f620012ab565b5b50919050565b620012518262001309565b810181811067ffffffffffffffff82111715620012735762001272620012da565b5b80604052505050565b7f4e487b7100000000000000000000000000000000000000000000000000000000600052601160045260246000fd5b7f4e487b7100000000000000000000000000000000000000000000000000000000600052602260045260246000fd5b7f4e487b7100000000000000000000000000000000000000000000000000000000600052604160045260246000fd5b6000601f19601f8301169050919050565b62001325816200118f565b81146200133157600080fd5b50565b6200133f81620011c3565b81146200134b57600080fd5b50565b6200135981620011cd565b81146200136557600080fd5b50565b615fbe80620013786000396000f3fe608060405234801561001057600080fd5b50600436106101a95760003560e01c80637df124a1116100f9578063b953084e11610097578063d355ae9911610071578063d355ae99146104dc578063d4f24c5b146104e6578063e00b726d146104f0578063e985e9c51461050c576101a9565b8063b953084e14610470578063c87b56dd1461048e578063c8cf27f4146104be576101a9565b806398da4c95116100d357806398da4c95146103dc578063a22cb46514610413578063a9c326791461042f578063b88d4fde14610454576101a9565b80637df124a11461035e5780638a5208a61461038e57806395d89b41146103be576101a9565b80631e0ccb3d116101665780632b8c5d03116101405780632b8c5d03146102c657806342842e0e146102e25780636352211e146102fe57806370a082311461032e576101a9565b80631e0ccb3d1461027057806323b872dd1461028c5780632990b471146102a8576101a9565b806301ffc9a7146101ae578063020a0ec8146101de5780630665f961146101e857806306fdde0314610206578063081812fc14610224578063095ea7b314610254575b600080fd5b6101c860048036038101906101c391906143eb565b61053c565b6040516101d59190614f5d565b60405180910390f35b6101e661061e565b005b6101f061091d565b6040516101fd9190615265565b60405180910390f35b61020e610b0a565b60405161021b9190614f78565b60405180910390f35b61023e6004803603810190610239919061450e565b610b9c565b60405161024b9190614e11565b60405180910390f35b61026e600480360381019061026991906143af565b610c21565b005b61028a6004803603810190610285919061450e565b610d39565b005b6102a660048036038101906102a191906142a9565b611110565b005b6102b0611170565b6040516102bd91906152a9565b60405180910390f35b6102e060048036038101906102db919061450e565b6111d8565b005b6102fc60048036038101906102f791906142a9565b61135a565b005b6103186004803603810190610313919061450e565b61137a565b6040516103259190614e11565b60405180910390f35b6103486004803603810190610343919061421b565b61142c565b60405161035591906152a9565b60405180910390f35b6103786004803603810190610373919061421b565b6114e4565b60405161038591906152a9565b60405180910390f35b6103a860048036038101906103a3919061421b565b6114fc565b6040516103b591906152a9565b60405180910390f35b6103c6611514565b6040516103d39190614f78565b60405180910390f35b6103f660048036038101906103f1919061450e565b6115a6565b60405161040a9897969594939291906152c4565b60405180910390f35b61042d60048036038101906104289190614373565b611718565b005b610437611899565b60405161044b989796959493929190614e78565b60405180910390f35b61046e600480360381019061046991906142f8565b611a19565b005b610478611a7b565b6040516104859190614f3b565b60405180910390f35b6104a860048036038101906104a3919061450e565b611c61565b6040516104b59190614f78565b60405180910390f35b6104c6611f9f565b6040516104d39190615287565b60405180910390f35b6104e46121b2565b005b6104ee6122fc565b005b61050a60048036038101906105059190614537565b6129ab565b005b6105266004803603810190610521919061426d565b612ea9565b6040516105339190614f5d565b60405180910390f35b60007f80ac58cd000000000000000000000000000000000000000000000000000000007bffffffffffffffffffffffffffffffffffffffffffffffffffffffff1916827bffffffffffffffffffffffffffffffffffffffffffffffffffffffff1916148061060757507f5b5e139f000000000000000000000000000000000000000000000000000000007bffffffffffffffffffffffffffffffffffffffffffffffffffffffff1916827bffffffffffffffffffffffffffffffffffffffffffffffffffffffff1916145b80610617575061061682612ff5565b5b9050919050565b60006007600301541461063057600080fd5b61066e6040518060400160405280601d81526020017f547279696e6720746f206265636f6d65207468652062696720626f737300000081525061305f565b6000601160003373ffffffffffffffffffffffffffffffffffffffff1673ffffffffffffffffffffffffffffffffffffffff168152602001908152602001600020549050600081111561091a576010600082815260200190815260200160002060020160076002019080546106e290615665565b6106ed929190613ec7565b506000600660009054906101000a900473ffffffffffffffffffffffffffffffffffffffff1673ffffffffffffffffffffffffffffffffffffffff16631c001d7760106000858152602001908152602001600020600501546040518263ffffffff1660e01b815260040161076191906152a9565b60006040518083038186803b15801561077957600080fd5b505afa15801561078d573d6000803e3d6000fd5b505050506040513d6000823e3d601f19601f820116820180604052508101906107b6919061443d565b50945050505050806007600501819055506010600083815260200190815260200160002060010160076001019080546107ee90615665565b6107f9929190613ec7565b50600a601060008481526020019081526020016000206004015461081d9190615514565b600760030181905550600a60106000848152602001908152602001600020600401546108499190615514565b60076004018190555033600760000160006101000a81548173ffffffffffffffffffffffffffffffffffffffff021916908373ffffffffffffffffffffffffffffffffffffffff1602179055506010600083815260200190815260200160002060060160009054906101000a900460ff16600760060160006101000a81548160ff021916908360ff1602179055506010600083815260200190815260200160002060060160019054906101000a900460ff16600760060160016101000a81548160ff021916908360ff160217905550505b50565b610925613f54565b6007604051806101000160405290816000820160009054906101000a900473ffffffffffffffffffffffffffffffffffffffff1673ffffffffffffffffffffffffffffffffffffffff1673ffffffffffffffffffffffffffffffffffffffff16815260200160018201805461099990615665565b80601f01602080910402602001604051908101604052809291908181526020018280546109c590615665565b8015610a125780601f106109e757610100808354040283529160200191610a12565b820191906000526020600020905b8154815290600101906020018083116109f557829003601f168201915b50505050508152602001600282018054610a2b90615665565b80601f0160208091040260200160405190810160405280929190818152602001828054610a5790615665565b8015610aa45780601f10610a7957610100808354040283529160200191610aa4565b820191906000526020600020905b815481529060010190602001808311610a8757829003601f168201915b505050505081526020016003820154815260200160048201548152602001600582015481526020016006820160009054906101000a900460ff1660ff1660ff1681526020016006820160019054906101000a900460ff1660ff1660ff1681525050905090565b606060008054610b1990615665565b80601f0160208091040260200160405190810160405280929190818152602001828054610b4590615665565b8015610b925780601f10610b6757610100808354040283529160200191610b92565b820191906000526020600020905b815481529060010190602001808311610b7557829003601f168201915b5050505050905090565b6000610ba7826130f8565b610be6576040517f08c379a0000000000000000000000000000000000000000000000000000000008152600401610bdd906151e5565b60405180910390fd5b6004600083815260200190815260200160002060009054906101000a900473ffffffffffffffffffffffffffffffffffffffff169050919050565b6000610c2c8261137a565b90508073ffffffffffffffffffffffffffffffffffffffff168373ffffffffffffffffffffffffffffffffffffffff161415610c9d576040517f08c379a0000000000000000000000000000000000000000000000000000000008152600401610c9490615225565b60405180910390fd5b8073ffffffffffffffffffffffffffffffffffffffff16610cbc613164565b73ffffffffffffffffffffffffffffffffffffffff161480610ceb5750610cea81610ce5613164565b612ea9565b5b610d2a576040517f08c379a0000000000000000000000000000000000000000000000000000000008152600401610d2190615145565b60405180910390fd5b610d34838361316c565b505050565b6000610d456013613225565b9050610d513382613233565b6000600f8381548110610d8d577f4e487b7100000000000000000000000000000000000000000000000000000000600052603260045260246000fd5b90600052602060002090600702016040518061010001604052908160008201548152602001600182018054610dc190615665565b80601f0160208091040260200160405190810160405280929190818152602001828054610ded90615665565b8015610e3a5780601f10610e0f57610100808354040283529160200191610e3a565b820191906000526020600020905b815481529060010190602001808311610e1d57829003601f168201915b50505050508152602001600282018054610e5390615665565b80601f0160208091040260200160405190810160405280929190818152602001828054610e7f90615665565b8015610ecc5780601f10610ea157610100808354040283529160200191610ecc565b820191906000526020600020905b815481529060010190602001808311610eaf57829003601f168201915b505050505081526020016003820154815260200160048201548152602001600582015481526020016006820160009054906101000a900460ff1660ff1660ff1681526020016006820160019054906101000a900460ff1660ff1660ff1681525050905060405180610100016040528084815260200182602001518152602001826040015181526020018260600151815260200182608001518152602001600081526020018260c0015160ff1681526020018260e0015160ff1681525060106000848152602001908152602001600020600082015181600001556020820151816001019080519060200190610fc1929190613fb5565b506040820151816002019080519060200190610fde929190613fb5565b50606082015181600301556080820151816004015560a0820151816005015560c08201518160060160006101000a81548160ff021916908360ff16021790555060e08201518160060160016101000a81548160ff021916908360ff1602179055509050506110826040518060400160405280601b81526020017f4d696e7465642063686172616374657220666f722025733a20256400000000008152503384613251565b81601160003373ffffffffffffffffffffffffffffffffffffffff1673ffffffffffffffffffffffffffffffffffffffff168152602001908152602001600020819055506110d06013612fdf565b7f4bc303fd457a97b4691b9af582ce71868a3d258638c8d4f8c60988a0f0bfb8cd33838560405161110393929190614f04565b60405180910390a1505050565b61112161111b613164565b826132f0565b611160576040517f08c379a000000000000000000000000000000000000000000000000000000000815260040161115790615245565b60405180910390fd5b61116b8383836133ce565b505050565b600080601160003373ffffffffffffffffffffffffffffffffffffffff1673ffffffffffffffffffffffffffffffffffffffff168152602001908152602001600020549050600060106000838152602001908152602001600020905080600301549250505090565b600660009054906101000a900473ffffffffffffffffffffffffffffffffffffffff1673ffffffffffffffffffffffffffffffffffffffff16636352211e826040518263ffffffff1660e01b815260040161123391906152a9565b60206040518083038186803b15801561124b57600080fd5b505afa15801561125f573d6000803e3d6000fd5b505050506040513d601f19601f820116820180604052508101906112839190614244565b73ffffffffffffffffffffffffffffffffffffffff163373ffffffffffffffffffffffffffffffffffffffff16146112ba57600080fd5b6000601160003373ffffffffffffffffffffffffffffffffffffffff1673ffffffffffffffffffffffffffffffffffffffff16815260200190815260200160002054905060006010600083815260200190815260200160002090508281600501819055507f0d933ee2633a9f934f170379efbfb6ef948ddd09580403bbbbddaa6a8c9f90938360405161134d91906152a9565b60405180910390a1505050565b61137583838360405180602001604052806000815250611a19565b505050565b6000806002600084815260200190815260200160002060009054906101000a900473ffffffffffffffffffffffffffffffffffffffff169050600073ffffffffffffffffffffffffffffffffffffffff168173ffffffffffffffffffffffffffffffffffffffff161415611423576040517f08c379a000000000000000000000000000000000000000000000000000000000815260040161141a90615185565b60405180910390fd5b80915050919050565b60008073ffffffffffffffffffffffffffffffffffffffff168273ffffffffffffffffffffffffffffffffffffffff16141561149d576040517f08c379a000000000000000000000000000000000000000000000000000000000815260040161149490615165565b60405180910390fd5b600360008373ffffffffffffffffffffffffffffffffffffffff1673ffffffffffffffffffffffffffffffffffffffff168152602001908152602001600020549050919050565b60116020528060005260406000206000915090505481565b60126020528060005260406000206000915090505481565b60606001805461152390615665565b80601f016020809104026020016040519081016040528092919081815260200182805461154f90615665565b801561159c5780601f106115715761010080835404028352916020019161159c565b820191906000526020600020905b81548152906001019060200180831161157f57829003601f168201915b5050505050905090565b60106020528060005260406000206000915090508060000154908060010180546115cf90615665565b80601f01602080910402602001604051908101604052809291908181526020018280546115fb90615665565b80156116485780601f1061161d57610100808354040283529160200191611648565b820191906000526020600020905b81548152906001019060200180831161162b57829003601f168201915b50505050509080600201805461165d90615665565b80601f016020809104026020016040519081016040528092919081815260200182805461168990615665565b80156116d65780601f106116ab576101008083540402835291602001916116d6565b820191906000526020600020905b8154815290600101906020018083116116b957829003601f168201915b5050505050908060030154908060040154908060050154908060060160009054906101000a900460ff16908060060160019054906101000a900460ff16905088565b611720613164565b73ffffffffffffffffffffffffffffffffffffffff168273ffffffffffffffffffffffffffffffffffffffff16141561178e576040517f08c379a000000000000000000000000000000000000000000000000000000000815260040161178590615105565b60405180910390fd5b806005600061179b613164565b73ffffffffffffffffffffffffffffffffffffffff1673ffffffffffffffffffffffffffffffffffffffff16815260200190815260200160002060008473ffffffffffffffffffffffffffffffffffffffff1673ffffffffffffffffffffffffffffffffffffffff16815260200190815260200160002060006101000a81548160ff0219169083151502179055508173ffffffffffffffffffffffffffffffffffffffff16611848613164565b73ffffffffffffffffffffffffffffffffffffffff167f17307eab39ab6107e8899845ad3d59bd9653f200f220920489ca2b5937696c318360405161188d9190614f5d565b60405180910390a35050565b60078060000160009054906101000a900473ffffffffffffffffffffffffffffffffffffffff16908060010180546118d090615665565b80601f01602080910402602001604051908101604052809291908181526020018280546118fc90615665565b80156119495780601f1061191e57610100808354040283529160200191611949565b820191906000526020600020905b81548152906001019060200180831161192c57829003601f168201915b50505050509080600201805461195e90615665565b80601f016020809104026020016040519081016040528092919081815260200182805461198a90615665565b80156119d75780601f106119ac576101008083540402835291602001916119d7565b820191906000526020600020905b8154815290600101906020018083116119ba57829003601f168201915b5050505050908060030154908060040154908060050154908060060160009054906101000a900460ff16908060060160019054906101000a900460ff16905088565b611a2a611a24613164565b836132f0565b611a69576040517f08c379a0000000000000000000000000000000000000000000000000000000008152600401611a6090615245565b60405180910390fd5b611a758484848461362a565b50505050565b6060600f805480602002602001604051908101604052809291908181526020016000905b82821015611c5857838290600052602060002090600702016040518061010001604052908160008201548152602001600182018054611add90615665565b80601f0160208091040260200160405190810160405280929190818152602001828054611b0990615665565b8015611b565780601f10611b2b57610100808354040283529160200191611b56565b820191906000526020600020905b815481529060010190602001808311611b3957829003601f168201915b50505050508152602001600282018054611b6f90615665565b80601f0160208091040260200160405190810160405280929190818152602001828054611b9b90615665565b8015611be85780601f10611bbd57610100808354040283529160200191611be8565b820191906000526020600020905b815481529060010190602001808311611bcb57829003601f168201915b505050505081526020016003820154815260200160048201548152602001600582015481526020016006820160009054906101000a900460ff1660ff1660ff1681526020016006820160019054906101000a900460ff1660ff1660ff168152505081526020019060010190611a9f565b50505050905090565b60606000601060008481526020019081526020016000206040518061010001604052908160008201548152602001600182018054611c9e90615665565b80601f0160208091040260200160405190810160405280929190818152602001828054611cca90615665565b8015611d175780601f10611cec57610100808354040283529160200191611d17565b820191906000526020600020905b815481529060010190602001808311611cfa57829003601f168201915b50505050508152602001600282018054611d3090615665565b80601f0160208091040260200160405190810160405280929190818152602001828054611d5c90615665565b8015611da95780601f10611d7e57610100808354040283529160200191611da9565b820191906000526020600020905b815481529060010190602001808311611d8c57829003601f168201915b505050505081526020016003820154815260200160048201548152602001600582015481526020016006820160009054906101000a900460ff1660ff1660ff1681526020016006820160019054906101000a900460ff1660ff1660ff168152505090506000600660009054906101000a900473ffffffffffffffffffffffffffffffffffffffff1673ffffffffffffffffffffffffffffffffffffffff16631c001d778360a001516040518263ffffffff1660e01b8152600401611e6d91906152a9565b60006040518083038186803b158015611e8557600080fd5b505afa158015611e99573d6000803e3d6000fd5b505050506040513d6000823e3d601f19601f82011682018060405250810190611ec2919061443d565b509450505050506000611ed88360600151613686565b90506000611ee98460800151613686565b90506000611ef684613686565b90506000611f0a8660c0015160ff16613686565b90506000611f1e8760e0015160ff16613686565b90506000611f688860200151611f338c613686565b8a604001518989898989604051602001611f54989796959493929190614cff565b604051602081830303815290604052613833565b9050600081604051602001611f7d9190614dd4565b6040516020818303038152906040529050809950505050505050505050919050565b611fa761403b565b6000601160003373ffffffffffffffffffffffffffffffffffffffff1673ffffffffffffffffffffffffffffffffffffffff16815260200190815260200160002054905060008111156121a15760106000828152602001908152602001600020604051806101000160405290816000820154815260200160018201805461202d90615665565b80601f016020809104026020016040519081016040528092919081815260200182805461205990615665565b80156120a65780601f1061207b576101008083540402835291602001916120a6565b820191906000526020600020905b81548152906001019060200180831161208957829003601f168201915b505050505081526020016002820180546120bf90615665565b80601f01602080910402602001604051908101604052809291908181526020018280546120eb90615665565b80156121385780601f1061210d57610100808354040283529160200191612138565b820191906000526020600020905b81548152906001019060200180831161211b57829003601f168201915b505050505081526020016003820154815260200160048201548152602001600582015481526020016006820160009054906101000a900460ff1660ff1660ff1681526020016006820160019054906101000a900460ff1660ff1660ff16815250509150506121af565b6121a961403b565b80925050505b90565b6002601260003373ffffffffffffffffffffffffffffffffffffffff1673ffffffffffffffffffffffffffffffffffffffff16815260200190815260200160002054116121fe57600080fd5b6000601260003373ffffffffffffffffffffffffffffffffffffffff1673ffffffffffffffffffffffffffffffffffffffff168152602001908152602001600020819055506000601160003373ffffffffffffffffffffffffffffffffffffffff1673ffffffffffffffffffffffffffffffffffffffff16815260200190815260200160002054905060008111156122c257601060008281526020019081526020016000206004015460106000838152602001908152602001600020600301819055505b7fc97b5066626c6d7ba7c464a1c02c80bce95570331f0d860ac5fd2d50eab38951816040516122f191906152a9565b60405180910390a150565b6000601160003373ffffffffffffffffffffffffffffffffffffffff1673ffffffffffffffffffffffffffffffffffffffff16815260200190815260200160002054905060006010600083815260200190815260200160002090506000600660009054906101000a900473ffffffffffffffffffffffffffffffffffffffff1673ffffffffffffffffffffffffffffffffffffffff16631c001d7783600501546040518263ffffffff1660e01b81526004016123b891906152a9565b60006040518083038186803b1580156123d057600080fd5b505afa1580156123e4573d6000803e3d6000fd5b505050506040513d6000823e3d601f19601f8201168201806040525081019061240d919061443d565b509450505050506124c86040518060600160405280603c8152602001615f4d603c913983600101805461243f90615665565b80601f016020809104026020016040519081016040528092919081815260200182805461246b90615665565b80156124b85780601f1061248d576101008083540402835291602001916124b8565b820191906000526020600020905b81548152906001019060200180831161249b57829003601f168201915b50505050508460030154846139f1565b6125a06040518060400160405280601b81526020017f426f73732025732068617320257320485020616e6420257320414400000000008152506007600101805461251190615665565b80601f016020809104026020016040519081016040528092919081815260200182805461253d90615665565b801561258a5780601f1061255f5761010080835404028352916020019161258a565b820191906000526020600020905b81548152906001019060200180831161256d57829003601f168201915b50505050506007600301546007600501546139f1565b60008260030154116125e7576040517f08c379a00000000000000000000000000000000000000000000000000000000081526004016125de906151a5565b60405180910390fd5b60006007600301541161262f576040517f08c379a0000000000000000000000000000000000000000000000000000000008152600401612626906150a5565b60405180910390fd5b600060646126664342612642919061571b565b6040516020016126529190614df6565b604051602081830303815290604052613a93565b612670919061571b565b90508260060160009054906101000a900460ff1660ff168160ff1610156126cd577fc15be762233748a965c4604eeb4ff6004bfb95b9bb3b7b8c895f8ea4802fde02336040516126c09190614e11565b60405180910390a16127dc565b600760060160019054906101000a900460ff1660ff168160ff161015612729577fac283a10414591c839389573389de3828dee65ba42e5270dabcf181c91897b0b3360405161271c9190614e11565b60405180910390a16127db565b8160076003015410156127c057600060076003018190555061274961061e565b7f838ab28464562786a6c4ab2311964b82fa60bd9b14aa7e856af1f3f18d41a4146007600301548460030154604051612783929190615350565b60405180910390a17fbfc52f25aeff3f9d56efa60278eebbb9757546128249ae94b5276a8989536ab260405160405180910390a1505050506129a9565b816007600301546127d1919061556e565b6007600301819055505b5b600760060160009054906101000a900460ff1660ff168160ff161015612838577f6d3925885a36187ea1577beb1d4292df926e1262f00d3d8c34a789025b8d11593360405161282b9190614e11565b60405180910390a16128d3565b8260060160019054906101000a900460ff1660ff168160ff161015612893577ff9c586632d73ec108578229be6c19146e28c07598492642850ba5f9cae02f3f9336040516128869190614e11565b60405180910390a16128d2565b600760050154836003015410156128b357600083600301819055506128d1565b60076005015483600301546128c8919061556e565b83600301819055505b5b5b6001601260003373ffffffffffffffffffffffffffffffffffffffff1673ffffffffffffffffffffffffffffffffffffffff1681526020019081526020016000205461291f919061548d565b601260003373ffffffffffffffffffffffffffffffffffffffff1673ffffffffffffffffffffffffffffffffffffffff168152602001908152602001600020819055507f838ab28464562786a6c4ab2311964b82fa60bd9b14aa7e856af1f3f18d41a414600760030154846003015460405161299c929190615350565b60405180910390a1505050505b565b60006129b76013613225565b9050600660009054906101000a900473ffffffffffffffffffffffffffffffffffffffff1673ffffffffffffffffffffffffffffffffffffffff16636352211e836040518263ffffffff1660e01b8152600401612a1491906152a9565b60206040518083038186803b158015612a2c57600080fd5b505afa158015612a40573d6000803e3d6000fd5b505050506040513d601f19601f82011682018060405250810190612a649190614244565b73ffffffffffffffffffffffffffffffffffffffff163373ffffffffffffffffffffffffffffffffffffffff1614612a9b57600080fd5b612aa53382613233565b6000600f8481548110612ae1577f4e487b7100000000000000000000000000000000000000000000000000000000600052603260045260246000fd5b90600052602060002090600702016040518061010001604052908160008201548152602001600182018054612b1590615665565b80601f0160208091040260200160405190810160405280929190818152602001828054612b4190615665565b8015612b8e5780601f10612b6357610100808354040283529160200191612b8e565b820191906000526020600020905b815481529060010190602001808311612b7157829003601f168201915b50505050508152602001600282018054612ba790615665565b80601f0160208091040260200160405190810160405280929190818152602001828054612bd390615665565b8015612c205780601f10612bf557610100808354040283529160200191612c20565b820191906000526020600020905b815481529060010190602001808311612c0357829003601f168201915b505050505081526020016003820154815260200160048201548152602001600582015481526020016006820160009054906101000a900460ff1660ff1660ff1681526020016006820160019054906101000a900460ff1660ff1660ff16815250509050604051806101000160405280858152602001826020015181526020018260400151815260200182606001518152602001826080015181526020018481526020018260c0015160ff1681526020018260e0015160ff1681525060106000848152602001908152602001600020600082015181600001556020820151816001019080519060200190612d14929190613fb5565b506040820151816002019080519060200190612d31929190613fb5565b50606082015181600301556080820151816004015560a0820151816005015560c08201518160060160006101000a81548160ff021916908360ff16021790555060e08201518160060160016101000a81548160ff021916908360ff160217905550905050612dd56040518060400160405280601b81526020017f4d696e7465642063686172616374657220666f722025733a20256400000000008152503384613251565b81601160003373ffffffffffffffffffffffffffffffffffffffff1673ffffffffffffffffffffffffffffffffffffffff16815260200190815260200160002081905550612e236013612fdf565b6000601260003373ffffffffffffffffffffffffffffffffffffffff1673ffffffffffffffffffffffffffffffffffffffff168152602001908152602001600020819055507f4bc303fd457a97b4691b9af582ce71868a3d258638c8d4f8c60988a0f0bfb8cd338386604051612e9b93929190614f04565b60405180910390a150505050565b6000600560008473ffffffffffffffffffffffffffffffffffffffff1673ffffffffffffffffffffffffffffffffffffffff16815260200190815260200160002060008373ffffffffffffffffffffffffffffffffffffffff1673ffffffffffffffffffffffffffffffffffffffff16815260200190815260200160002060009054906101000a900460ff16905092915050565b612fd984848484604051602401612f579493929190614fd8565b6040516020818303038152906040527f8d142cdd000000000000000000000000000000000000000000000000000000007bffffffffffffffffffffffffffffffffffffffffffffffffffffffff19166020820180517bffffffffffffffffffffffffffffffffffffffffffffffffffffffff8381831617835250505050613ac6565b50505050565b6001816000016000828254019250508190555050565b60007f01ffc9a7000000000000000000000000000000000000000000000000000000007bffffffffffffffffffffffffffffffffffffffffffffffffffffffff1916827bffffffffffffffffffffffffffffffffffffffffffffffffffffffff1916149050919050565b6130f5816040516024016130739190614f78565b6040516020818303038152906040527f41304fac000000000000000000000000000000000000000000000000000000007bffffffffffffffffffffffffffffffffffffffffffffffffffffffff19166020820180517bffffffffffffffffffffffffffffffffffffffffffffffffffffffff8381831617835250505050613ac6565b50565b60008073ffffffffffffffffffffffffffffffffffffffff166002600084815260200190815260200160002060009054906101000a900473ffffffffffffffffffffffffffffffffffffffff1673ffffffffffffffffffffffffffffffffffffffff1614159050919050565b600033905090565b816004600083815260200190815260200160002060006101000a81548173ffffffffffffffffffffffffffffffffffffffff021916908373ffffffffffffffffffffffffffffffffffffffff160217905550808273ffffffffffffffffffffffffffffffffffffffff166131df8361137a565b73ffffffffffffffffffffffffffffffffffffffff167f8c5be1e5ebec7d5bd14f71427d1e84f3dd0314c0f7b2291e5b200ac8c7c3b92560405160405180910390a45050565b600081600001549050919050565b61324d828260405180602001604052806000815250613aef565b5050565b6132eb83838360405160240161326993929190614f9a565b6040516020818303038152906040527f07c81217000000000000000000000000000000000000000000000000000000007bffffffffffffffffffffffffffffffffffffffffffffffffffffffff19166020820180517bffffffffffffffffffffffffffffffffffffffffffffffffffffffff8381831617835250505050613ac6565b505050565b60006132fb826130f8565b61333a576040517f08c379a000000000000000000000000000000000000000000000000000000000815260040161333190615125565b60405180910390fd5b60006133458361137a565b90508073ffffffffffffffffffffffffffffffffffffffff168473ffffffffffffffffffffffffffffffffffffffff1614806133b457508373ffffffffffffffffffffffffffffffffffffffff1661339c84610b9c565b73ffffffffffffffffffffffffffffffffffffffff16145b806133c557506133c48185612ea9565b5b91505092915050565b8273ffffffffffffffffffffffffffffffffffffffff166133ee8261137a565b73ffffffffffffffffffffffffffffffffffffffff1614613444576040517f08c379a000000000000000000000000000000000000000000000000000000000815260040161343b90615205565b60405180910390fd5b600073ffffffffffffffffffffffffffffffffffffffff168273ffffffffffffffffffffffffffffffffffffffff1614156134b4576040517f08c379a00000000000000000000000000000000000000000000000000000000081526004016134ab906150e5565b60405180910390fd5b6134bf838383613b4a565b6134ca60008261316c565b6001600360008573ffffffffffffffffffffffffffffffffffffffff1673ffffffffffffffffffffffffffffffffffffffff168152602001908152602001600020600082825461351a919061556e565b925050819055506001600360008473ffffffffffffffffffffffffffffffffffffffff1673ffffffffffffffffffffffffffffffffffffffff1681526020019081526020016000206000828254613571919061548d565b92505081905550816002600083815260200190815260200160002060006101000a81548173ffffffffffffffffffffffffffffffffffffffff021916908373ffffffffffffffffffffffffffffffffffffffff160217905550808273ffffffffffffffffffffffffffffffffffffffff168473ffffffffffffffffffffffffffffffffffffffff167fddf252ad1be2c89b69c2b068fc378daa952ba7f163c4a11628f55a4df523b3ef60405160405180910390a4505050565b6136358484846133ce565b61364184848484613b4f565b613680576040517f08c379a000000000000000000000000000000000000000000000000000000000815260040161367790615085565b60405180910390fd5b50505050565b606060008214156136ce576040518060400160405280600181526020017f3000000000000000000000000000000000000000000000000000000000000000815250905061382e565b600082905060005b600082146137005780806136e9906156c8565b915050600a826136f991906154e3565b91506136d6565b60008167ffffffffffffffff811115613742577f4e487b7100000000000000000000000000000000000000000000000000000000600052604160045260246000fd5b6040519080825280601f01601f1916602001820160405280156137745781602001600182028036833780820191505090505b5090505b600085146138275760018261378d919061556e565b9150600a8561379c919061571b565b60306137a8919061548d565b60f81b8183815181106137e4577f4e487b7100000000000000000000000000000000000000000000000000000000600052603260045260246000fd5b60200101907effffffffffffffffffffffffffffffffffffffffffffffffffffffffffffff1916908160001a905350600a8561382091906154e3565b9450613778565b8093505050505b919050565b6060600082519050600081141561385c57604051806020016040528060008152509150506139ec565b6000600360028361386d919061548d565b61387791906154e3565b60046138839190615514565b90506000602082613894919061548d565b67ffffffffffffffff8111156138d3577f4e487b7100000000000000000000000000000000000000000000000000000000600052604160045260246000fd5b6040519080825280601f01601f1916602001820160405280156139055781602001600182028036833780820191505090505b5090506000604051806060016040528060408152602001615f0d604091399050600181016020830160005b868110156139a95760038101905062ffffff818a015116603f8160121c168401518060081b905060ff603f83600c1c1686015116810190508060081b905060ff603f8360061c1686015116810190508060081b905060ff603f831686015116810190508060e01b90508084526004840193505050613930565b5060038606600181146139c357600281146139d3576139de565b613d3d60f01b60028303526139de565b603d60f81b60018303525b508484525050819450505050505b919050565b613a8d84848484604051602401613a0b9493929190615032565b6040516020818303038152906040527fd5cf17d0000000000000000000000000000000000000000000000000000000007bffffffffffffffffffffffffffffffffffffffffffffffffffffffff19166020820180517bffffffffffffffffffffffffffffffffffffffffffffffffffffffff8381831617835250505050613ac6565b50505050565b600081604051602001613aa69190614ce8565b6040516020818303038152906040528051906020012060001c9050919050565b60008151905060006a636f6e736f6c652e6c6f679050602083016000808483855afa5050505050565b613af98383613ce6565b613b066000848484613b4f565b613b45576040517f08c379a0000000000000000000000000000000000000000000000000000000008152600401613b3c90615085565b60405180910390fd5b505050565b505050565b6000613b708473ffffffffffffffffffffffffffffffffffffffff16613eb4565b15613cd9578373ffffffffffffffffffffffffffffffffffffffff1663150b7a02613b99613164565b8786866040518563ffffffff1660e01b8152600401613bbb9493929190614e2c565b602060405180830381600087803b158015613bd557600080fd5b505af1925050508015613c0657506040513d601f19601f82011682018060405250810190613c039190614414565b60015b613c89573d8060008114613c36576040519150601f19603f3d011682016040523d82523d6000602084013e613c3b565b606091505b50600081511415613c81576040517f08c379a0000000000000000000000000000000000000000000000000000000008152600401613c7890615085565b60405180910390fd5b805181602001fd5b63150b7a0260e01b7bffffffffffffffffffffffffffffffffffffffffffffffffffffffff1916817bffffffffffffffffffffffffffffffffffffffffffffffffffffffff191614915050613cde565b600190505b949350505050565b600073ffffffffffffffffffffffffffffffffffffffff168273ffffffffffffffffffffffffffffffffffffffff161415613d56576040517f08c379a0000000000000000000000000000000000000000000000000000000008152600401613d4d906151c5565b60405180910390fd5b613d5f816130f8565b15613d9f576040517f08c379a0000000000000000000000000000000000000000000000000000000008152600401613d96906150c5565b60405180910390fd5b613dab60008383613b4a565b6001600360008473ffffffffffffffffffffffffffffffffffffffff1673ffffffffffffffffffffffffffffffffffffffff1681526020019081526020016000206000828254613dfb919061548d565b92505081905550816002600083815260200190815260200160002060006101000a81548173ffffffffffffffffffffffffffffffffffffffff021916908373ffffffffffffffffffffffffffffffffffffffff160217905550808273ffffffffffffffffffffffffffffffffffffffff16600073ffffffffffffffffffffffffffffffffffffffff167fddf252ad1be2c89b69c2b068fc378daa952ba7f163c4a11628f55a4df523b3ef60405160405180910390a45050565b600080823b905060008111915050919050565b828054613ed390615665565b90600052602060002090601f016020900481019282613ef55760008555613f43565b82601f10613f065780548555613f43565b82800160010185558215613f4357600052602060002091601f016020900482015b82811115613f42578254825591600101919060010190613f27565b5b509050613f509190614086565b5090565b604051806101000160405280600073ffffffffffffffffffffffffffffffffffffffff1681526020016060815260200160608152602001600081526020016000815260200160008152602001600060ff168152602001600060ff1681525090565b828054613fc190615665565b90600052602060002090601f016020900481019282613fe3576000855561402a565b82601f10613ffc57805160ff191683800117855561402a565b8280016001018555821561402a579182015b8281111561402957825182559160200191906001019061400e565b5b5090506140379190614086565b5090565b604051806101000160405280600081526020016060815260200160608152602001600081526020016000815260200160008152602001600060ff168152602001600060ff1681525090565b5b8082111561409f576000816000905550600101614087565b5090565b60006140b66140b18461539e565b615379565b9050828152602081018484840111156140ce57600080fd5b6140d9848285615623565b509392505050565b60006140f46140ef846153cf565b615379565b90508281526020810184848401111561410c57600080fd5b614117848285615632565b509392505050565b60008135905061412e81615ea0565b92915050565b60008151905061414381615ea0565b92915050565b60008135905061415881615eb7565b92915050565b60008135905061416d81615ece565b92915050565b60008151905061418281615ece565b92915050565b600082601f83011261419957600080fd5b81356141a98482602086016140a3565b91505092915050565b6000815190506141c181615ee5565b92915050565b600082601f8301126141d857600080fd5b81516141e88482602086016140e1565b91505092915050565b60008135905061420081615ef5565b92915050565b60008151905061421581615ef5565b92915050565b60006020828403121561422d57600080fd5b600061423b8482850161411f565b91505092915050565b60006020828403121561425657600080fd5b600061426484828501614134565b91505092915050565b6000806040838503121561428057600080fd5b600061428e8582860161411f565b925050602061429f8582860161411f565b9150509250929050565b6000806000606084860312156142be57600080fd5b60006142cc8682870161411f565b93505060206142dd8682870161411f565b92505060406142ee868287016141f1565b9150509250925092565b6000806000806080858703121561430e57600080fd5b600061431c8782880161411f565b945050602061432d8782880161411f565b935050604061433e878288016141f1565b925050606085013567ffffffffffffffff81111561435b57600080fd5b61436787828801614188565b91505092959194509250565b6000806040838503121561438657600080fd5b60006143948582860161411f565b92505060206143a585828601614149565b9150509250929050565b600080604083850312156143c257600080fd5b60006143d08582860161411f565b92505060206143e1858286016141f1565b9150509250929050565b6000602082840312156143fd57600080fd5b600061440b8482850161415e565b91505092915050565b60006020828403121561442657600080fd5b600061443484828501614173565b91505092915050565b60008060008060008060c0878903121561445657600080fd5b600087015167ffffffffffffffff81111561447057600080fd5b61447c89828a016141c7565b965050602087015167ffffffffffffffff81111561449957600080fd5b6144a589828a016141c7565b955050604087015167ffffffffffffffff8111156144c257600080fd5b6144ce89828a016141c7565b94505060606144df89828a016141b2565b93505060806144f089828a01614206565b92505060a061450189828a01614206565b9150509295509295509295565b60006020828403121561452057600080fd5b600061452e848285016141f1565b91505092915050565b6000806040838503121561454a57600080fd5b6000614558858286016141f1565b9250506020614569858286016141f1565b9150509250929050565b600061457f8383614b27565b905092915050565b614590816155a2565b82525050565b61459f816155a2565b82525050565b60006145b082615410565b6145ba818561543e565b9350836020820285016145cc85615400565b8060005b8581101561460857848403895281516145e98582614573565b94506145f483615431565b925060208a019950506001810190506145d0565b50829750879550505050505092915050565b614623816155b4565b82525050565b60006146348261541b565b61463e818561544f565b935061464e818560208601615632565b61465781615808565b840191505092915050565b600061466d82615426565b6146778185615460565b9350614687818560208601615632565b61469081615808565b840191505092915050565b60006146a682615426565b6146b08185615471565b93506146c0818560208601615632565b6146c981615808565b840191505092915050565b60006146df82615426565b6146e98185615482565b93506146f9818560208601615632565b80840191505092915050565b6000614712600b83615482565b915061471d82615819565b600b82019050919050565b6000614735603283615471565b915061474082615842565b604082019050919050565b6000614758602883615471565b915061476382615891565b604082019050919050565b600061477b601c83615471565b9150614786826158e0565b602082019050919050565b600061479e600e83615482565b91506147a982615909565b600e82019050919050565b60006147c1602483615471565b91506147cc82615932565b604082019050919050565b60006147e4601983615471565b91506147ef82615981565b602082019050919050565b6000614807602c83615471565b9150614812826159aa565b604082019050919050565b600061482a602f83615482565b9150614835826159f9565b602f82019050919050565b600061484d602883615482565b915061485882615a48565b602882019050919050565b6000614870603883615471565b915061487b82615a97565b604082019050919050565b6000614893602a83615471565b915061489e82615ae6565b604082019050919050565b60006148b6602983615471565b91506148c182615b35565b604082019050919050565b60006148d9602d83615471565b91506148e482615b84565b604082019050919050565b60006148fc602083615471565b915061490782615bd3565b602082019050919050565b600061491f602c83615471565b915061492a82615bfc565b604082019050919050565b6000614942602983615471565b915061494d82615c4b565b604082019050919050565b6000614965602783615482565b915061497082615c9a565b602782019050919050565b6000614988600a83615482565b915061499382615ce9565b600a82019050919050565b60006149ab602183615471565b91506149b682615d12565b604082019050919050565b60006149ce601d83615482565b91506149d982615d61565b601d82019050919050565b60006149f1603183615471565b91506149fc82615d8a565b604082019050919050565b6000614a14603d83615482565b9150614a1f82615dd9565b603d82019050919050565b6000614a37602d83615482565b9150614a4282615e28565b602d82019050919050565b6000614a5a600483615482565b9150614a6582615e77565b600482019050919050565b600061010083016000830151614a896000860182614587565b5060208301518482036020860152614aa18282614662565b91505060408301518482036040860152614abb8282614662565b9150506060830151614ad06060860182614c95565b506080830151614ae36080860182614c95565b5060a0830151614af660a0860182614c95565b5060c0830151614b0960c0860182614cca565b5060e0830151614b1c60e0860182614cca565b508091505092915050565b600061010083016000830151614b406000860182614c95565b5060208301518482036020860152614b588282614662565b91505060408301518482036040860152614b728282614662565b9150506060830151614b876060860182614c95565b506080830151614b9a6080860182614c95565b5060a0830151614bad60a0860182614c95565b5060c0830151614bc060c0860182614cca565b5060e0830151614bd360e0860182614cca565b508091505092915050565b600061010083016000830151614bf76000860182614c95565b5060208301518482036020860152614c0f8282614662565b91505060408301518482036040860152614c298282614662565b9150506060830151614c3e6060860182614c95565b506080830151614c516080860182614c95565b5060a0830151614c6460a0860182614c95565b5060c0830151614c7760c0860182614cca565b5060e0830151614c8a60e0860182614cca565b508091505092915050565b614c9e8161560c565b82525050565b614cad8161560c565b82525050565b614cc4614cbf8261560c565b615711565b82525050565b614cd381615616565b82525050565b614ce281615616565b82525050565b6000614cf482846146d4565b915081905092915050565b6000614d0a8261497b565b9150614d16828b6146d4565b9150614d2182614705565b9150614d2d828a6146d4565b9150614d388261481d565b9150614d4482896146d4565b9150614d4f82614a07565b9150614d5b82886146d4565b9150614d6682614791565b9150614d7282876146d4565b9150614d7d82614a2a565b9150614d8982866146d4565b9150614d9482614840565b9150614da082856146d4565b9150614dab82614958565b9150614db782846146d4565b9150614dc282614a4d565b91508190509998505050505050505050565b6000614ddf826149c1565b9150614deb82846146d4565b915081905092915050565b6000614e028284614cb3565b60208201915081905092915050565b6000602082019050614e266000830184614596565b92915050565b6000608082019050614e416000830187614596565b614e4e6020830186614596565b614e5b6040830185614ca4565b8181036060830152614e6d8184614629565b905095945050505050565b600061010082019050614e8e600083018b614596565b8181036020830152614ea0818a61469b565b90508181036040830152614eb4818961469b565b9050614ec36060830188614ca4565b614ed06080830187614ca4565b614edd60a0830186614ca4565b614eea60c0830185614cd9565b614ef760e0830184614cd9565b9998505050505050505050565b6000606082019050614f196000830186614596565b614f266020830185614ca4565b614f336040830184614ca4565b949350505050565b60006020820190508181036000830152614f5581846145a5565b905092915050565b6000602082019050614f72600083018461461a565b92915050565b60006020820190508181036000830152614f92818461469b565b905092915050565b60006060820190508181036000830152614fb4818661469b565b9050614fc36020830185614596565b614fd06040830184614ca4565b949350505050565b60006080820190508181036000830152614ff2818761469b565b90508181036020830152615006818661469b565b90506150156040830185614ca4565b8181036060830152615027818461469b565b905095945050505050565b6000608082019050818103600083015261504c818761469b565b90508181036020830152615060818661469b565b905061506f6040830185614ca4565b61507c6060830184614ca4565b95945050505050565b6000602082019050818103600083015261509e81614728565b9050919050565b600060208201905081810360008301526150be8161474b565b9050919050565b600060208201905081810360008301526150de8161476e565b9050919050565b600060208201905081810360008301526150fe816147b4565b9050919050565b6000602082019050818103600083015261511e816147d7565b9050919050565b6000602082019050818103600083015261513e816147fa565b9050919050565b6000602082019050818103600083015261515e81614863565b9050919050565b6000602082019050818103600083015261517e81614886565b9050919050565b6000602082019050818103600083015261519e816148a9565b9050919050565b600060208201905081810360008301526151be816148cc565b9050919050565b600060208201905081810360008301526151de816148ef565b9050919050565b600060208201905081810360008301526151fe81614912565b9050919050565b6000602082019050818103600083015261521e81614935565b9050919050565b6000602082019050818103600083015261523e8161499e565b9050919050565b6000602082019050818103600083015261525e816149e4565b9050919050565b6000602082019050818103600083015261527f8184614a70565b905092915050565b600060208201905081810360008301526152a18184614bde565b905092915050565b60006020820190506152be6000830184614ca4565b92915050565b6000610100820190506152da600083018b614ca4565b81810360208301526152ec818a61469b565b90508181036040830152615300818961469b565b905061530f6060830188614ca4565b61531c6080830187614ca4565b61532960a0830186614ca4565b61533660c0830185614cd9565b61534360e0830184614cd9565b9998505050505050505050565b60006040820190506153656000830185614ca4565b6153726020830184614ca4565b9392505050565b6000615383615394565b905061538f8282615697565b919050565b6000604051905090565b600067ffffffffffffffff8211156153b9576153b86157d9565b5b6153c282615808565b9050602081019050919050565b600067ffffffffffffffff8211156153ea576153e96157d9565b5b6153f382615808565b9050602081019050919050565b6000819050602082019050919050565b600081519050919050565b600081519050919050565b600081519050919050565b6000602082019050919050565b600082825260208201905092915050565b600082825260208201905092915050565b600082825260208201905092915050565b600082825260208201905092915050565b600081905092915050565b60006154988261560c565b91506154a38361560c565b9250827fffffffffffffffffffffffffffffffffffffffffffffffffffffffffffffffff038211156154d8576154d761574c565b5b828201905092915050565b60006154ee8261560c565b91506154f98361560c565b9250826155095761550861577b565b5b828204905092915050565b600061551f8261560c565b915061552a8361560c565b9250817fffffffffffffffffffffffffffffffffffffffffffffffffffffffffffffffff04831182151516156155635761556261574c565b5b828202905092915050565b60006155798261560c565b91506155848361560c565b9250828210156155975761559661574c565b5b828203905092915050565b60006155ad826155ec565b9050919050565b60008115159050919050565b60007fffffffff0000000000000000000000000000000000000000000000000000000082169050919050565b600073ffffffffffffffffffffffffffffffffffffffff82169050919050565b6000819050919050565b600060ff82169050919050565b82818337600083830152505050565b60005b83811015615650578082015181840152602081019050615635565b8381111561565f576000848401525b50505050565b6000600282049050600182168061567d57607f821691505b60208210811415615691576156906157aa565b5b50919050565b6156a082615808565b810181811067ffffffffffffffff821117156156bf576156be6157d9565b5b80604052505050565b60006156d38261560c565b91507fffffffffffffffffffffffffffffffffffffffffffffffffffffffffffffffff8214156157065761570561574c565b5b600182019050919050565b6000819050919050565b60006157268261560c565b91506157318361560c565b9250826157415761574061577b565b5b828206905092915050565b7f4e487b7100000000000000000000000000000000000000000000000000000000600052601160045260246000fd5b7f4e487b7100000000000000000000000000000000000000000000000000000000600052601260045260246000fd5b7f4e487b7100000000000000000000000000000000000000000000000000000000600052602260045260246000fd5b7f4e487b7100000000000000000000000000000000000000000000000000000000600052604160045260246000fd5b6000601f19601f8301169050919050565b7f202d2d204e465420233a20000000000000000000000000000000000000000000600082015250565b7f4552433732313a207472616e7366657220746f206e6f6e20455243373231526560008201527f63656976657220696d706c656d656e7465720000000000000000000000000000602082015250565b7f4572726f723a20626f7373206d757374206861766520485020746f206174746160008201527f636b20626f73732e000000000000000000000000000000000000000000000000602082015250565b7f4552433732313a20746f6b656e20616c7265616479206d696e74656400000000600082015250565b7f2c20226d61785f76616c7565223a000000000000000000000000000000000000600082015250565b7f4552433732313a207472616e7366657220746f20746865207a65726f2061646460008201527f7265737300000000000000000000000000000000000000000000000000000000602082015250565b7f4552433732313a20617070726f766520746f2063616c6c657200000000000000600082015250565b7f4552433732313a206f70657261746f7220717565727920666f72206e6f6e657860008201527f697374656e7420746f6b656e0000000000000000000000000000000000000000602082015250565b7f222c20226465736372697074696f6e223a202249746073206c696b65206d616760008201527f6963222c2022696d616765223a20220000000000000000000000000000000000602082015250565b7f227d2c207b202274726169745f74797065223a20224d6973732e2025222c202260008201527f76616c7565223a20000000000000000000000000000000000000000000000000602082015250565b7f4552433732313a20617070726f76652063616c6c6572206973206e6f74206f7760008201527f6e6572206e6f7220617070726f76656420666f7220616c6c0000000000000000602082015250565b7f4552433732313a2062616c616e636520717565727920666f7220746865207a6560008201527f726f206164647265737300000000000000000000000000000000000000000000602082015250565b7f4552433732313a206f776e657220717565727920666f72206e6f6e657869737460008201527f656e7420746f6b656e0000000000000000000000000000000000000000000000602082015250565b7f4572726f723a20636861726163746572206d757374206861766520485020746f60008201527f2061747461636b20626f73732e00000000000000000000000000000000000000602082015250565b7f4552433732313a206d696e7420746f20746865207a65726f2061646472657373600082015250565b7f4552433732313a20617070726f76656420717565727920666f72206e6f6e657860008201527f697374656e7420746f6b656e0000000000000000000000000000000000000000602082015250565b7f4552433732313a207472616e73666572206f6620746f6b656e2074686174206960008201527f73206e6f74206f776e0000000000000000000000000000000000000000000000602082015250565b7f7d2c207b202274726169745f74797065223a2022446f6467652025222c20227660008201527f616c7565223a2000000000000000000000000000000000000000000000000000602082015250565b7f7b226e616d65223a202200000000000000000000000000000000000000000000600082015250565b7f4552433732313a20617070726f76616c20746f2063757272656e74206f776e6560008201527f7200000000000000000000000000000000000000000000000000000000000000602082015250565b7f646174613a6170706c69636174696f6e2f6a736f6e3b6261736536342c000000600082015250565b7f4552433732313a207472616e736665722063616c6c6572206973206e6f74206f60008201527f776e6572206e6f7220617070726f766564000000000000000000000000000000602082015250565b7f222c202261747472696275746573223a205b207b202274726169745f7479706560008201527f223a20224865616c746820506f696e7473222c202276616c7565223a20000000602082015250565b7f7d2c207b202274726169745f74797065223a202241747461636b2044616d616760008201527f65222c202276616c7565223a2000000000000000000000000000000000000000602082015250565b7f227d5d7d00000000000000000000000000000000000000000000000000000000600082015250565b615ea9816155a2565b8114615eb457600080fd5b50565b615ec0816155b4565b8114615ecb57600080fd5b50565b615ed7816155c0565b8114615ee257600080fd5b50565b60038110615ef257600080fd5b50565b615efe8161560c565b8114615f0957600080fd5b5056fe4142434445464748494a4b4c4d4e4f505152535455565758595a6162636465666768696a6b6c6d6e6f707172737475767778797a303132333435363738392b2f0a506c6179657220772f206368617261637465722025732061626f757420746f2061747461636b2e2048617320257320485020616e64202573204144a2646970667358221220182b2007e107520d210c741f3442196c18660b58e305568dd163dad56de112e764736f6c63430008040033446f6e6520696e697469616c697a696e6720257320772f2048502025732c20696d67202573446f6e6520696e697469616c697a696e6720626f737320257320772f2048502025732c20696d67202573",
  "linkReferences": {},
  "deployedLinkReferences": {}
}