{
  "_format": "hh-sol-artifact-1",
  "contractName": "LootNFT",
  "sourceName": "contracts/LootNFT.sol",
  "abi": [
    {
      "inputs": [],
      "stateMutability": "nonpayable",
      "type": "constructor"
    },
    {
      "anonymous": false,
      "inputs": [
        {
          "indexed": true,
          "internalType": "address",
          "name": "owner",
          "type": "address"
        },
        {
          "indexed": true,
          "internalType": "address",
          "name": "approved",
          "type": "address"
        },
        {
          "indexed": true,
          "internalType": "uint256",
          "name": "tokenId",
          "type": "uint256"
        }
      ],
      "name": "Approval",
      "type": "event"
    },
    {
      "anonymous": false,
      "inputs": [
        {
          "indexed": true,
          "internalType": "address",
          "name": "owner",
          "type": "address"
        },
        {
          "indexed": true,
          "internalType": "address",
          "name": "operator",
          "type": "address"
        },
        {
          "indexed": false,
          "internalType": "bool",
          "name": "approved",
          "type": "bool"
        }
      ],
      "name": "ApprovalForAll",
      "type": "event"
    },
    {
      "anonymous": false,
      "inputs": [
        {
          "indexed": true,
          "internalType": "address",
          "name": "from",
          "type": "address"
        },
        {
          "indexed": true,
          "internalType": "address",
          "name": "to",
          "type": "address"
        },
        {
          "indexed": true,
          "internalType": "uint256",
          "name": "tokenId",
          "type": "uint256"
        }
      ],
      "name": "Transfer",
      "type": "event"
    },
    {
      "anonymous": false,
      "inputs": [
        {
          "indexed": false,
          "internalType": "uint256",
          "name": "id",
          "type": "uint256"
        }
      ],
      "name": "WeaponMinted",
      "type": "event"
    },
    {
      "inputs": [
        {
          "internalType": "address",
          "name": "to",
          "type": "address"
        },
        {
          "internalType": "uint256",
          "name": "tokenId",
          "type": "uint256"
        }
      ],
      "name": "approve",
      "outputs": [],
      "stateMutability": "nonpayable",
      "type": "function"
    },
    {
      "inputs": [
        {
          "internalType": "address",
          "name": "owner",
          "type": "address"
        }
      ],
      "name": "balanceOf",
      "outputs": [
        {
          "internalType": "uint256",
          "name": "",
          "type": "uint256"
        }
      ],
      "stateMutability": "view",
      "type": "function"
    },
    {
      "inputs": [
        {
          "internalType": "uint256",
          "name": "tokenId",
          "type": "uint256"
        }
      ],
      "name": "getApproved",
      "outputs": [
        {
          "internalType": "address",
          "name": "",
          "type": "address"
        }
      ],
      "stateMutability": "view",
      "type": "function"
    },
    {
      "inputs": [],
      "name": "getAvailableItems",
      "outputs": [
        {
          "components": [
            {
              "internalType": "uint256",
              "name": "tokenId",
              "type": "uint256"
            },
            {
              "components": [
                {
                  "internalType": "string",
                  "name": "name",
                  "type": "string"
                },
                {
                  "internalType": "string",
                  "name": "description",
                  "type": "string"
                },
                {
                  "internalType": "enum LootNFT.ItemType",
                  "name": "itemType",
                  "type": "uint8"
                },
                {
                  "internalType": "uint256",
                  "name": "dmg",
                  "type": "uint256"
                },
                {
                  "internalType": "uint256",
                  "name": "level",
                  "type": "uint256"
                }
              ],
              "internalType": "struct LootNFT.ItemAttributes",
              "name": "attribs",
              "type": "tuple"
            }
          ],
          "internalType": "struct LootNFT.TokenAndItemAttributes[]",
          "name": "",
          "type": "tuple[]"
        }
      ],
      "stateMutability": "view",
      "type": "function"
    },
    {
      "inputs": [
        {
          "internalType": "address",
          "name": "owner",
          "type": "address"
        },
        {
          "internalType": "address",
          "name": "operator",
          "type": "address"
        }
      ],
      "name": "isApprovedForAll",
      "outputs": [
        {
          "internalType": "bool",
          "name": "",
          "type": "bool"
        }
      ],
      "stateMutability": "view",
      "type": "function"
    },
    {
      "inputs": [
        {
          "internalType": "uint256",
          "name": "",
          "type": "uint256"
        }
      ],
      "name": "itemAttributes",
      "outputs": [
        {
          "internalType": "string",
          "name": "name",
          "type": "string"
        },
        {
          "internalType": "string",
          "name": "description",
          "type": "string"
        },
        {
          "internalType": "enum LootNFT.ItemType",
          "name": "itemType",
          "type": "uint8"
        },
        {
          "internalType": "uint256",
          "name": "dmg",
          "type": "uint256"
        },
        {
          "internalType": "uint256",
          "name": "level",
          "type": "uint256"
        }
      ],
      "stateMutability": "view",
      "type": "function"
    },
    {
      "inputs": [
        {
          "internalType": "enum LootNFT.ItemType",
          "name": "itemType",
          "type": "uint8"
        },
        {
          "internalType": "string",
          "name": "itemName",
          "type": "string"
        },
        {
          "internalType": "string",
          "name": "itemDescription",
          "type": "string"
        }
      ],
      "name": "mintLoot",
      "outputs": [
        {
          "internalType": "uint256",
          "name": "",
          "type": "uint256"
        }
      ],
      "stateMutability": "nonpayable",
      "type": "function"
    },
    {
      "inputs": [],
      "name": "name",
      "outputs": [
        {
          "internalType": "string",
          "name": "",
          "type": "string"
        }
      ],
      "stateMutability": "view",
      "type": "function"
    },
    {
      "inputs": [
        {
          "internalType": "address",
          "name": "",
          "type": "address"
        },
        {
          "internalType": "uint256",
          "name": "",
          "type": "uint256"
        }
      ],
      "name": "ownedWeapons",
      "outputs": [
        {
          "internalType": "uint256",
          "name": "",
          "type": "uint256"
        }
      ],
      "stateMutability": "view",
      "type": "function"
    },
    {
      "inputs": [
        {
          "internalType": "uint256",
          "name": "tokenId",
          "type": "uint256"
        }
      ],
      "name": "ownerOf",
      "outputs": [
        {
          "internalType": "address",
          "name": "",
          "type": "address"
        }
      ],
      "stateMutability": "view",
      "type": "function"
    },
    {
      "inputs": [
        {
          "internalType": "address",
          "name": "from",
          "type": "address"
        },
        {
          "internalType": "address",
          "name": "to",
          "type": "address"
        },
        {
          "internalType": "uint256",
          "name": "tokenId",
          "type": "uint256"
        }
      ],
      "name": "safeTransferFrom",
      "outputs": [],
      "stateMutability": "nonpayable",
      "type": "function"
    },
    {
      "inputs": [
        {
          "internalType": "address",
          "name": "from",
          "type": "address"
        },
        {
          "internalType": "address",
          "name": "to",
          "type": "address"
        },
        {
          "internalType": "uint256",
          "name": "tokenId",
          "type": "uint256"
        },
        {
          "internalType": "bytes",
          "name": "_data",
          "type": "bytes"
        }
      ],
      "name": "safeTransferFrom",
      "outputs": [],
      "stateMutability": "nonpayable",
      "type": "function"
    },
    {
      "inputs": [
        {
          "internalType": "address",
          "name": "operator",
          "type": "address"
        },
        {
          "internalType": "bool",
          "name": "approved",
          "type": "bool"
        }
      ],
      "name": "setApprovalForAll",
      "outputs": [],
      "stateMutability": "nonpayable",
      "type": "function"
    },
    {
      "inputs": [
        {
          "internalType": "bytes4",
          "name": "interfaceId",
          "type": "bytes4"
        }
      ],
      "name": "supportsInterface",
      "outputs": [
        {
          "internalType": "bool",
          "name": "",
          "type": "bool"
        }
      ],
      "stateMutability": "view",
      "type": "function"
    },
    {
      "inputs": [],
      "name": "symbol",
      "outputs": [
        {
          "internalType": "string",
          "name": "",
          "type": "string"
        }
      ],
      "stateMutability": "view",
      "type": "function"
    },
    {
      "inputs": [
        {
          "internalType": "uint256",
          "name": "_tokenId",
          "type": "uint256"
        }
      ],
      "name": "tokenURI",
      "outputs": [
        {
          "internalType": "string",
          "name": "",
          "type": "string"
        }
      ],
      "stateMutability": "view",
      "type": "function"
    },
    {
      "inputs": [
        {
          "internalType": "address",
          "name": "from",
          "type": "address"
        },
        {
          "internalType": "address",
          "name": "to",
          "type": "address"
        },
        {
          "internalType": "uint256",
          "name": "tokenId",
          "type": "uint256"
        }
      ],
      "name": "transferFrom",
      "outputs": [],
      "stateMutability": "nonpayable",
      "type": "function"
    }
  ],
  "bytecode": "0x60806040523480156200001157600080fd5b506040518060400160405280600781526020017f4c6f6f744e4654000000000000000000000000000000000000000000000000008152506040518060400160405280600481526020017f4c6f6f5400000000000000000000000000000000000000000000000000000000815250816000908051906020019062000096929190620000b8565b508060019080519060200190620000af929190620000b8565b505050620001cd565b828054620000c69062000168565b90600052602060002090601f016020900481019282620000ea576000855562000136565b82601f106200010557805160ff191683800117855562000136565b8280016001018555821562000136579182015b828111156200013557825182559160200191906001019062000118565b5b50905062000145919062000149565b5090565b5b80821115620001645760008160009055506001016200014a565b5090565b600060028204905060018216806200018157607f821691505b602082108114156200019857620001976200019e565b5b50919050565b7f4e487b7100000000000000000000000000000000000000000000000000000000600052602260045260246000fd5b613d9680620001dd6000396000f3fe608060405234801561001057600080fd5b506004361061010b5760003560e01c80636352211e116100a2578063a22cb46511610071578063a22cb465146102e2578063b88d4fde146102fe578063c87b56dd1461031a578063e985e9c51461034a578063fc0a08d51461037a5761010b565b80636352211e1461023457806370a082311461026457806395d89b41146102945780639c6b8656146102b25761010b565b80630c43d6f3116100de5780630c43d6f3146101aa5780631c001d77146101c857806323b872dd146101fc57806342842e0e146102185761010b565b806301ffc9a71461011057806306fdde0314610140578063081812fc1461015e578063095ea7b31461018e575b600080fd5b61012a600480360381019061012591906127bb565b6103aa565b604051610137919061300c565b60405180910390f35b61014861048c565b6040516101559190613027565b60405180910390f35b6101786004803603810190610173919061288c565b61051e565b6040516101859190612f83565b60405180910390f35b6101a860048036038101906101a3919061277f565b6105a3565b005b6101b26106bb565b6040516101bf9190612fea565b60405180910390f35b6101e260048036038101906101dd919061288c565b610a5d565b6040516101f3959493929190613049565b60405180910390f35b61021660048036038101906102119190612679565b610bb0565b005b610232600480360381019061022d9190612679565b610c10565b005b61024e6004803603810190610249919061288c565b610c30565b60405161025b9190612f83565b60405180910390f35b61027e60048036038101906102799190612614565b610ce2565b60405161028b919061324a565b60405180910390f35b61029c610d9a565b6040516102a99190613027565b60405180910390f35b6102cc60048036038101906102c7919061280d565b610e2c565b6040516102d9919061324a565b60405180910390f35b6102fc60048036038101906102f79190612743565b611061565b005b610318600480360381019061031391906126c8565b6111e2565b005b610334600480360381019061032f919061288c565b611244565b6040516103419190613027565b60405180910390f35b610364600480360381019061035f919061263d565b6116f2565b604051610371919061300c565b60405180910390f35b610394600480360381019061038f919061277f565b611786565b6040516103a1919061324a565b60405180910390f35b60007f80ac58cd000000000000000000000000000000000000000000000000000000007bffffffffffffffffffffffffffffffffffffffffffffffffffffffff1916827bffffffffffffffffffffffffffffffffffffffffffffffffffffffff1916148061047557507f5b5e139f000000000000000000000000000000000000000000000000000000007bffffffffffffffffffffffffffffffffffffffffffffffffffffffff1916827bffffffffffffffffffffffffffffffffffffffffffffffffffffffff1916145b806104855750610484826117b7565b5b9050919050565b60606000805461049b90613569565b80601f01602080910402602001604051908101604052809291908181526020018280546104c790613569565b80156105145780601f106104e957610100808354040283529160200191610514565b820191906000526020600020905b8154815290600101906020018083116104f757829003601f168201915b5050505050905090565b600061052982611821565b610568576040517f08c379a000000000000000000000000000000000000000000000000000000000815260040161055f906131ca565b60405180910390fd5b6004600083815260200190815260200160002060009054906101000a900473ffffffffffffffffffffffffffffffffffffffff169050919050565b60006105ae82610c30565b90508073ffffffffffffffffffffffffffffffffffffffff168373ffffffffffffffffffffffffffffffffffffffff16141561061f576040517f08c379a00000000000000000000000000000000000000000000000000000000081526004016106169061320a565b60405180910390fd5b8073ffffffffffffffffffffffffffffffffffffffff1661063e61188d565b73ffffffffffffffffffffffffffffffffffffffff16148061066d575061066c8161066761188d565b6116f2565b5b6106ac576040517f08c379a00000000000000000000000000000000000000000000000000000000081526004016106a39061314a565b60405180910390fd5b6106b68383611895565b505050565b60608060005b600a60003373ffffffffffffffffffffffffffffffffffffffff1673ffffffffffffffffffffffffffffffffffffffff16815260200190815260200160002080549050811015610a55576040518060400160405280600a60003373ffffffffffffffffffffffffffffffffffffffff1673ffffffffffffffffffffffffffffffffffffffff168152602001908152602001600020838154811061078d577f4e487b7100000000000000000000000000000000000000000000000000000000600052603260045260246000fd5b9060005260206000200154815260200160096000600a60003373ffffffffffffffffffffffffffffffffffffffff1673ffffffffffffffffffffffffffffffffffffffff1681526020019081526020016000208581548110610818577f4e487b7100000000000000000000000000000000000000000000000000000000600052603260045260246000fd5b906000526020600020015481526020019081526020016000206040518060a001604052908160008201805461084c90613569565b80601f016020809104026020016040519081016040528092919081815260200182805461087890613569565b80156108c55780601f1061089a576101008083540402835291602001916108c5565b820191906000526020600020905b8154815290600101906020018083116108a857829003601f168201915b505050505081526020016001820180546108de90613569565b80601f016020809104026020016040519081016040528092919081815260200182805461090a90613569565b80156109575780601f1061092c57610100808354040283529160200191610957565b820191906000526020600020905b81548152906001019060200180831161093a57829003601f168201915b505050505081526020016002820160009054906101000a900460ff1660028111156109ab577f4e487b7100000000000000000000000000000000000000000000000000000000600052602160045260246000fd5b60028111156109e3577f4e487b7100000000000000000000000000000000000000000000000000000000600052602160045260246000fd5b815260200160038201548152602001600482015481525050815250828281518110610a37577f4e487b7100000000000000000000000000000000000000000000000000000000600052603260045260246000fd5b60200260200101819052508080610a4d906135cc565b9150506106c1565b508091505090565b6009602052806000526040600020600091509050806000018054610a8090613569565b80601f0160208091040260200160405190810160405280929190818152602001828054610aac90613569565b8015610af95780601f10610ace57610100808354040283529160200191610af9565b820191906000526020600020905b815481529060010190602001808311610adc57829003601f168201915b505050505090806001018054610b0e90613569565b80601f0160208091040260200160405190810160405280929190818152602001828054610b3a90613569565b8015610b875780601f10610b5c57610100808354040283529160200191610b87565b820191906000526020600020905b815481529060010190602001808311610b6a57829003601f168201915b5050505050908060020160009054906101000a900460ff16908060030154908060040154905085565b610bc1610bbb61188d565b8261194e565b610c00576040517f08c379a0000000000000000000000000000000000000000000000000000000008152600401610bf79061322a565b60405180910390fd5b610c0b838383611a2c565b505050565b610c2b838383604051806020016040528060008152506111e2565b505050565b6000806002600084815260200190815260200160002060009054906101000a900473ffffffffffffffffffffffffffffffffffffffff169050600073ffffffffffffffffffffffffffffffffffffffff168173ffffffffffffffffffffffffffffffffffffffff161415610cd9576040517f08c379a0000000000000000000000000000000000000000000000000000000008152600401610cd09061318a565b60405180910390fd5b80915050919050565b60008073ffffffffffffffffffffffffffffffffffffffff168273ffffffffffffffffffffffffffffffffffffffff161415610d53576040517f08c379a0000000000000000000000000000000000000000000000000000000008152600401610d4a9061316a565b60405180910390fd5b600360008373ffffffffffffffffffffffffffffffffffffffff1673ffffffffffffffffffffffffffffffffffffffff168152602001908152602001600020549050919050565b606060018054610da990613569565b80601f0160208091040260200160405190810160405280929190818152602001828054610dd590613569565b8015610e225780601f10610df757610100808354040283529160200191610e22565b820191906000526020600020905b815481529060010190602001808311610e0557829003601f168201915b5050505050905090565b6000610e386007611c88565b6000610e446007611c9e565b9050600060326064610e7e42610e5986611cac565b604051602001610e6a929190612f5b565b604051602081830303815290604052611e59565b610e88919061361f565b610e929190613379565b90506040518060a00160405280868152602001858152602001876002811115610ee4577f4e487b7100000000000000000000000000000000000000000000000000000000600052602160045260246000fd5b81526020018281526020016001815250600960008481526020019081526020016000206000820151816000019080519060200190610f23929190612423565b506020820151816001019080519060200190610f40929190612423565b5060408201518160020160006101000a81548160ff02191690836002811115610f92577f4e487b7100000000000000000000000000000000000000000000000000000000600052602160045260246000fd5b02179055506060820151816003015560808201518160040155905050610fb83383611e8c565b600a60003373ffffffffffffffffffffffffffffffffffffffff1673ffffffffffffffffffffffffffffffffffffffff1681526020019081526020016000208290806001815401808255809150506001900390600052602060002001600090919091909150557f0e8294bc1a352ab6d177f8d8b46b4601db94a5f9392643ab9b0dfd5826a02cb28260405161104d919061324a565b60405180910390a181925050509392505050565b61106961188d565b73ffffffffffffffffffffffffffffffffffffffff168273ffffffffffffffffffffffffffffffffffffffff1614156110d7576040517f08c379a00000000000000000000000000000000000000000000000000000000081526004016110ce9061310a565b60405180910390fd5b80600560006110e461188d565b73ffffffffffffffffffffffffffffffffffffffff1673ffffffffffffffffffffffffffffffffffffffff16815260200190815260200160002060008473ffffffffffffffffffffffffffffffffffffffff1673ffffffffffffffffffffffffffffffffffffffff16815260200190815260200160002060006101000a81548160ff0219169083151502179055508173ffffffffffffffffffffffffffffffffffffffff1661119161188d565b73ffffffffffffffffffffffffffffffffffffffff167f17307eab39ab6107e8899845ad3d59bd9653f200f220920489ca2b5937696c31836040516111d6919061300c565b60405180910390a35050565b6111f36111ed61188d565b8361194e565b611232576040517f08c379a00000000000000000000000000000000000000000000000000000000081526004016112299061322a565b60405180910390fd5b61123e8484848461205a565b50505050565b60606000600960008481526020019081526020016000206040518060a001604052908160008201805461127690613569565b80601f01602080910402602001604051908101604052809291908181526020018280546112a290613569565b80156112ef5780601f106112c4576101008083540402835291602001916112ef565b820191906000526020600020905b8154815290600101906020018083116112d257829003601f168201915b5050505050815260200160018201805461130890613569565b80601f016020809104026020016040519081016040528092919081815260200182805461133490613569565b80156113815780601f1061135657610100808354040283529160200191611381565b820191906000526020600020905b81548152906001019060200180831161136457829003601f168201915b505050505081526020016002820160009054906101000a900460ff1660028111156113d5577f4e487b7100000000000000000000000000000000000000000000000000000000600052602160045260246000fd5b600281111561140d577f4e487b7100000000000000000000000000000000000000000000000000000000600052602160045260246000fd5b81526020016003820154815260200160048201548152505090506000604051806020016040528060008152509050600060405180602001604052806000815250905060006002811115611489577f4e487b7100000000000000000000000000000000000000000000000000000000600052602160045260246000fd5b836040015160028111156114c6577f4e487b7100000000000000000000000000000000000000000000000000000000600052602160045260246000fd5b1415611517576040518060200160405280600081525091506040518060400160405280600581526020017f53776f726400000000000000000000000000000000000000000000000000000081525090505b60016002811115611551577f4e487b7100000000000000000000000000000000000000000000000000000000600052602160045260246000fd5b8360400151600281111561158e577f4e487b7100000000000000000000000000000000000000000000000000000000600052602160045260246000fd5b14156115df576040518060200160405280600081525091506040518060400160405280600381526020017f417865000000000000000000000000000000000000000000000000000000000081525090505b600280811115611618577f4e487b7100000000000000000000000000000000000000000000000000000000600052602160045260246000fd5b83604001516002811115611655577f4e487b7100000000000000000000000000000000000000000000000000000000600052602160045260246000fd5b14156116a6576040518060200160405280600081525091506040518060400160405280600381526020017f426f77000000000000000000000000000000000000000000000000000000000081525090505b6116e8836000015184602001516116c08660600151611cac565b846040516020016116d49493929190612ea4565b6040516020818303038152906040526120b6565b9350505050919050565b6000600560008473ffffffffffffffffffffffffffffffffffffffff1673ffffffffffffffffffffffffffffffffffffffff16815260200190815260200160002060008373ffffffffffffffffffffffffffffffffffffffff1673ffffffffffffffffffffffffffffffffffffffff16815260200190815260200160002060009054906101000a900460ff16905092915050565b600a60205281600052604060002081815481106117a257600080fd5b90600052602060002001600091509150505481565b60007f01ffc9a7000000000000000000000000000000000000000000000000000000007bffffffffffffffffffffffffffffffffffffffffffffffffffffffff1916827bffffffffffffffffffffffffffffffffffffffffffffffffffffffff1916149050919050565b60008073ffffffffffffffffffffffffffffffffffffffff166002600084815260200190815260200160002060009054906101000a900473ffffffffffffffffffffffffffffffffffffffff1673ffffffffffffffffffffffffffffffffffffffff1614159050919050565b600033905090565b816004600083815260200190815260200160002060006101000a81548173ffffffffffffffffffffffffffffffffffffffff021916908373ffffffffffffffffffffffffffffffffffffffff160217905550808273ffffffffffffffffffffffffffffffffffffffff1661190883610c30565b73ffffffffffffffffffffffffffffffffffffffff167f8c5be1e5ebec7d5bd14f71427d1e84f3dd0314c0f7b2291e5b200ac8c7c3b92560405160405180910390a45050565b600061195982611821565b611998576040517f08c379a000000000000000000000000000000000000000000000000000000000815260040161198f9061312a565b60405180910390fd5b60006119a383610c30565b90508073ffffffffffffffffffffffffffffffffffffffff168473ffffffffffffffffffffffffffffffffffffffff161480611a1257508373ffffffffffffffffffffffffffffffffffffffff166119fa8461051e565b73ffffffffffffffffffffffffffffffffffffffff16145b80611a235750611a2281856116f2565b5b91505092915050565b8273ffffffffffffffffffffffffffffffffffffffff16611a4c82610c30565b73ffffffffffffffffffffffffffffffffffffffff1614611aa2576040517f08c379a0000000000000000000000000000000000000000000000000000000008152600401611a99906131ea565b60405180910390fd5b600073ffffffffffffffffffffffffffffffffffffffff168273ffffffffffffffffffffffffffffffffffffffff161415611b12576040517f08c379a0000000000000000000000000000000000000000000000000000000008152600401611b09906130ea565b60405180910390fd5b611b1d838383612274565b611b28600082611895565b6001600360008573ffffffffffffffffffffffffffffffffffffffff1673ffffffffffffffffffffffffffffffffffffffff1681526020019081526020016000206000828254611b78919061345a565b925050819055506001600360008473ffffffffffffffffffffffffffffffffffffffff1673ffffffffffffffffffffffffffffffffffffffff1681526020019081526020016000206000828254611bcf9190613379565b92505081905550816002600083815260200190815260200160002060006101000a81548173ffffffffffffffffffffffffffffffffffffffff021916908373ffffffffffffffffffffffffffffffffffffffff160217905550808273ffffffffffffffffffffffffffffffffffffffff168473ffffffffffffffffffffffffffffffffffffffff167fddf252ad1be2c89b69c2b068fc378daa952ba7f163c4a11628f55a4df523b3ef60405160405180910390a4505050565b6001816000016000828254019250508190555050565b600081600001549050919050565b60606000821415611cf4576040518060400160405280600181526020017f30000000000000000000000000000000000000000000000000000000000000008152509050611e54565b600082905060005b60008214611d26578080611d0f906135cc565b915050600a82611d1f91906133cf565b9150611cfc565b60008167ffffffffffffffff811115611d68577f4e487b7100000000000000000000000000000000000000000000000000000000600052604160045260246000fd5b6040519080825280601f01601f191660200182016040528015611d9a5781602001600182028036833780820191505090505b5090505b60008514611e4d57600182611db3919061345a565b9150600a85611dc2919061361f565b6030611dce9190613379565b60f81b818381518110611e0a577f4e487b7100000000000000000000000000000000000000000000000000000000600052603260045260246000fd5b60200101907effffffffffffffffffffffffffffffffffffffffffffffffffffffffffffff1916908160001a905350600a85611e4691906133cf565b9450611d9e565b8093505050505b919050565b600081604051602001611e6c9190612e8d565b6040516020818303038152906040528051906020012060001c9050919050565b600073ffffffffffffffffffffffffffffffffffffffff168273ffffffffffffffffffffffffffffffffffffffff161415611efc576040517f08c379a0000000000000000000000000000000000000000000000000000000008152600401611ef3906131aa565b60405180910390fd5b611f0581611821565b15611f45576040517f08c379a0000000000000000000000000000000000000000000000000000000008152600401611f3c906130ca565b60405180910390fd5b611f5160008383612274565b6001600360008473ffffffffffffffffffffffffffffffffffffffff1673ffffffffffffffffffffffffffffffffffffffff1681526020019081526020016000206000828254611fa19190613379565b92505081905550816002600083815260200190815260200160002060006101000a81548173ffffffffffffffffffffffffffffffffffffffff021916908373ffffffffffffffffffffffffffffffffffffffff160217905550808273ffffffffffffffffffffffffffffffffffffffff16600073ffffffffffffffffffffffffffffffffffffffff167fddf252ad1be2c89b69c2b068fc378daa952ba7f163c4a11628f55a4df523b3ef60405160405180910390a45050565b612065848484611a2c565b61207184848484612279565b6120b0576040517f08c379a00000000000000000000000000000000000000000000000000000000081526004016120a7906130aa565b60405180910390fd5b50505050565b606060008251905060008114156120df576040518060200160405280600081525091505061226f565b600060036002836120f09190613379565b6120fa91906133cf565b60046121069190613400565b905060006020826121179190613379565b67ffffffffffffffff811115612156577f4e487b7100000000000000000000000000000000000000000000000000000000600052604160045260246000fd5b6040519080825280601f01601f1916602001820160405280156121885781602001600182028036833780820191505090505b5090506000604051806060016040528060408152602001613d21604091399050600181016020830160005b8681101561222c5760038101905062ffffff818a015116603f8160121c168401518060081b905060ff603f83600c1c1686015116810190508060081b905060ff603f8360061c1686015116810190508060081b905060ff603f831686015116810190508060e01b905080845260048401935050506121b3565b506003860660018114612246576002811461225657612261565b613d3d60f01b6002830352612261565b603d60f81b60018303525b508484525050819450505050505b919050565b505050565b600061229a8473ffffffffffffffffffffffffffffffffffffffff16612410565b15612403578373ffffffffffffffffffffffffffffffffffffffff1663150b7a026122c361188d565b8786866040518563ffffffff1660e01b81526004016122e59493929190612f9e565b602060405180830381600087803b1580156122ff57600080fd5b505af192505050801561233057506040513d601f19601f8201168201806040525081019061232d91906127e4565b60015b6123b3573d8060008114612360576040519150601f19603f3d011682016040523d82523d6000602084013e612365565b606091505b506000815114156123ab576040517f08c379a00000000000000000000000000000000000000000000000000000000081526004016123a2906130aa565b60405180910390fd5b805181602001fd5b63150b7a0260e01b7bffffffffffffffffffffffffffffffffffffffffffffffffffffffff1916817bffffffffffffffffffffffffffffffffffffffffffffffffffffffff191614915050612408565b600190505b949350505050565b600080823b905060008111915050919050565b82805461242f90613569565b90600052602060002090601f0160209004810192826124515760008555612498565b82601f1061246a57805160ff1916838001178555612498565b82800160010185558215612498579182015b8281111561249757825182559160200191906001019061247c565b5b5090506124a591906124a9565b5090565b5b808211156124c25760008160009055506001016124aa565b5090565b60006124d96124d48461328a565b613265565b9050828152602081018484840111156124f157600080fd5b6124fc848285613527565b509392505050565b6000612517612512846132bb565b613265565b90508281526020810184848401111561252f57600080fd5b61253a848285613527565b509392505050565b60008135905061255181613cb4565b92915050565b60008135905061256681613ccb565b92915050565b60008135905061257b81613ce2565b92915050565b60008151905061259081613ce2565b92915050565b600082601f8301126125a757600080fd5b81356125b78482602086016124c6565b91505092915050565b6000813590506125cf81613cf9565b92915050565b600082601f8301126125e657600080fd5b81356125f6848260208601612504565b91505092915050565b60008135905061260e81613d09565b92915050565b60006020828403121561262657600080fd5b600061263484828501612542565b91505092915050565b6000806040838503121561265057600080fd5b600061265e85828601612542565b925050602061266f85828601612542565b9150509250929050565b60008060006060848603121561268e57600080fd5b600061269c86828701612542565b93505060206126ad86828701612542565b92505060406126be868287016125ff565b9150509250925092565b600080600080608085870312156126de57600080fd5b60006126ec87828801612542565b94505060206126fd87828801612542565b935050604061270e878288016125ff565b925050606085013567ffffffffffffffff81111561272b57600080fd5b61273787828801612596565b91505092959194509250565b6000806040838503121561275657600080fd5b600061276485828601612542565b925050602061277585828601612557565b9150509250929050565b6000806040838503121561279257600080fd5b60006127a085828601612542565b92505060206127b1858286016125ff565b9150509250929050565b6000602082840312156127cd57600080fd5b60006127db8482850161256c565b91505092915050565b6000602082840312156127f657600080fd5b600061280484828501612581565b91505092915050565b60008060006060848603121561282257600080fd5b6000612830868287016125c0565b935050602084013567ffffffffffffffff81111561284d57600080fd5b612859868287016125d5565b925050604084013567ffffffffffffffff81111561287657600080fd5b612882868287016125d5565b9150509250925092565b60006020828403121561289e57600080fd5b60006128ac848285016125ff565b91505092915050565b60006128c18383612e1b565b905092915050565b6128d28161348e565b82525050565b60006128e3826132fc565b6128ed818561332a565b9350836020820285016128ff856132ec565b8060005b8581101561293b578484038952815161291c85826128b5565b94506129278361331d565b925060208a01995050600181019050612903565b50829750879550505050505092915050565b612956816134a0565b82525050565b600061296782613307565b612971818561333b565b9350612981818560208601613536565b61298a8161373b565b840191505092915050565b61299e81613515565b82525050565b6129ad81613515565b82525050565b60006129be82613312565b6129c8818561334c565b93506129d8818560208601613536565b6129e18161373b565b840191505092915050565b60006129f782613312565b612a01818561335d565b9350612a11818560208601613536565b612a1a8161373b565b840191505092915050565b6000612a3082613312565b612a3a818561336e565b9350612a4a818560208601613536565b80840191505092915050565b6000612a6360108361336e565b9150612a6e8261374c565b601082019050919050565b6000612a8660138361336e565b9150612a9182613775565b601382019050919050565b6000612aa960328361335d565b9150612ab48261379e565b604082019050919050565b6000612acc601c8361335d565b9150612ad7826137ed565b602082019050919050565b6000612aef600f8361336e565b9150612afa82613816565b600f82019050919050565b6000612b1260248361335d565b9150612b1d8261383f565b604082019050919050565b6000612b3560198361335d565b9150612b408261388e565b602082019050919050565b6000612b5860038361336e565b9150612b63826138b7565b600382019050919050565b6000612b7b602c8361335d565b9150612b86826138e0565b604082019050919050565b6000612b9e60388361335d565b9150612ba98261392f565b604082019050919050565b6000612bc1602a8361335d565b9150612bcc8261397e565b604082019050919050565b6000612be460298361335d565b9150612bef826139cd565b604082019050919050565b6000612c0760098361336e565b9150612c1282613a1c565b600982019050919050565b6000612c2a60178361336e565b9150612c3582613a45565b601782019050919050565b6000612c4d60208361335d565b9150612c5882613a6e565b602082019050919050565b6000612c7060018361336e565b9150612c7b82613a97565b600182019050919050565b6000612c93602c8361335d565b9150612c9e82613ac0565b604082019050919050565b6000612cb660158361336e565b9150612cc182613b0f565b601582019050919050565b6000612cd960298361335d565b9150612ce482613b38565b604082019050919050565b6000612cfc600a8361336e565b9150612d0782613b87565b600a82019050919050565b6000612d1f600a8361336e565b9150612d2a82613bb0565b600a82019050919050565b6000612d4260218361335d565b9150612d4d82613bd9565b604082019050919050565b6000612d6560038361336e565b9150612d7082613c28565b600382019050919050565b6000612d8860318361335d565b9150612d9382613c51565b604082019050919050565b600060a0830160008301518482036000860152612dbb82826129b3565b91505060208301518482036020860152612dd582826129b3565b9150506040830151612dea6040860182612995565b506060830151612dfd6060860182612e58565b506080830151612e106080860182612e58565b508091505092915050565b6000604083016000830151612e336000860182612e58565b5060208301518482036020860152612e4b8282612d9e565b9150508091505092915050565b612e618161350b565b82525050565b612e708161350b565b82525050565b612e87612e828261350b565b613615565b82525050565b6000612e998284612a25565b915081905092915050565b6000612eaf82612cef565b9150612ebb8287612a25565b9150612ec682612a79565b9150612ed28286612a25565b9150612edd82612ae2565b9150612ee882612a56565b9150612ef382612c1d565b9150612efe82612bfa565b9150612f0a8285612a25565b9150612f1582612d58565b9150612f2082612ca9565b9150612f2b82612d12565b9150612f378284612a25565b9150612f4282612b4b565b9150612f4d82612c63565b915081905095945050505050565b6000612f678285612e76565b602082019150612f778284612a25565b91508190509392505050565b6000602082019050612f9860008301846128c9565b92915050565b6000608082019050612fb360008301876128c9565b612fc060208301866128c9565b612fcd6040830185612e67565b8181036060830152612fdf818461295c565b905095945050505050565b6000602082019050818103600083015261300481846128d8565b905092915050565b6000602082019050613021600083018461294d565b92915050565b6000602082019050818103600083015261304181846129ec565b905092915050565b600060a082019050818103600083015261306381886129ec565b9050818103602083015261307781876129ec565b905061308660408301866129a4565b6130936060830185612e67565b6130a06080830184612e67565b9695505050505050565b600060208201905081810360008301526130c381612a9c565b9050919050565b600060208201905081810360008301526130e381612abf565b9050919050565b6000602082019050818103600083015261310381612b05565b9050919050565b6000602082019050818103600083015261312381612b28565b9050919050565b6000602082019050818103600083015261314381612b6e565b9050919050565b6000602082019050818103600083015261316381612b91565b9050919050565b6000602082019050818103600083015261318381612bb4565b9050919050565b600060208201905081810360008301526131a381612bd7565b9050919050565b600060208201905081810360008301526131c381612c40565b9050919050565b600060208201905081810360008301526131e381612c86565b9050919050565b6000602082019050818103600083015261320381612ccc565b9050919050565b6000602082019050818103600083015261322381612d35565b9050919050565b6000602082019050818103600083015261324381612d7b565b9050919050565b600060208201905061325f6000830184612e67565b92915050565b600061326f613280565b905061327b828261359b565b919050565b6000604051905090565b600067ffffffffffffffff8211156132a5576132a461370c565b5b6132ae8261373b565b9050602081019050919050565b600067ffffffffffffffff8211156132d6576132d561370c565b5b6132df8261373b565b9050602081019050919050565b6000819050602082019050919050565b600081519050919050565b600081519050919050565b600081519050919050565b6000602082019050919050565b600082825260208201905092915050565b600082825260208201905092915050565b600082825260208201905092915050565b600082825260208201905092915050565b600081905092915050565b60006133848261350b565b915061338f8361350b565b9250827fffffffffffffffffffffffffffffffffffffffffffffffffffffffffffffffff038211156133c4576133c3613650565b5b828201905092915050565b60006133da8261350b565b91506133e58361350b565b9250826133f5576133f461367f565b5b828204905092915050565b600061340b8261350b565b91506134168361350b565b9250817fffffffffffffffffffffffffffffffffffffffffffffffffffffffffffffffff048311821515161561344f5761344e613650565b5b828202905092915050565b60006134658261350b565b91506134708361350b565b92508282101561348357613482613650565b5b828203905092915050565b6000613499826134eb565b9050919050565b60008115159050919050565b60007fffffffff0000000000000000000000000000000000000000000000000000000082169050919050565b60008190506134e682613ca0565b919050565b600073ffffffffffffffffffffffffffffffffffffffff82169050919050565b6000819050919050565b6000613520826134d8565b9050919050565b82818337600083830152505050565b60005b83811015613554578082015181840152602081019050613539565b83811115613563576000848401525b50505050565b6000600282049050600182168061358157607f821691505b60208210811415613595576135946136dd565b5b50919050565b6135a48261373b565b810181811067ffffffffffffffff821117156135c3576135c261370c565b5b80604052505050565b60006135d78261350b565b91507fffffffffffffffffffffffffffffffffffffffffffffffffffffffffffffffff82141561360a57613609613650565b5b600182019050919050565b6000819050919050565b600061362a8261350b565b91506136358361350b565b9250826136455761364461367f565b5b828206905092915050565b7f4e487b7100000000000000000000000000000000000000000000000000000000600052601160045260246000fd5b7f4e487b7100000000000000000000000000000000000000000000000000000000600052601260045260246000fd5b7f4e487b7100000000000000000000000000000000000000000000000000000000600052602160045260246000fd5b7f4e487b7100000000000000000000000000000000000000000000000000000000600052602260045260246000fd5b7f4e487b7100000000000000000000000000000000000000000000000000000000600052604160045260246000fd5b6000601f19601f8301169050919050565b7f2261747472696275746573223a205b7b00000000000000000000000000000000600082015250565b7f222c20226465736372697074696f6e223a202200000000000000000000000000600082015250565b7f4552433732313a207472616e7366657220746f206e6f6e20455243373231526560008201527f63656976657220696d706c656d656e7465720000000000000000000000000000602082015250565b7f4552433732313a20746f6b656e20616c7265616479206d696e74656400000000600082015250565b7f222c2022696d616765223a2022222c0000000000000000000000000000000000600082015250565b7f4552433732313a207472616e7366657220746f20746865207a65726f2061646460008201527f7265737300000000000000000000000000000000000000000000000000000000602082015250565b7f4552433732313a20617070726f766520746f2063616c6c657200000000000000600082015250565b7f227d5d0000000000000000000000000000000000000000000000000000000000600082015250565b7f4552433732313a206f70657261746f7220717565727920666f72206e6f6e657860008201527f697374656e7420746f6b656e0000000000000000000000000000000000000000602082015250565b7f4552433732313a20617070726f76652063616c6c6572206973206e6f74206f7760008201527f6e6572206e6f7220617070726f76656420666f7220616c6c0000000000000000602082015250565b7f4552433732313a2062616c616e636520717565727920666f7220746865207a6560008201527f726f206164647265737300000000000000000000000000000000000000000000602082015250565b7f4552433732313a206f776e657220717565727920666f72206e6f6e657869737460008201527f656e7420746f6b656e0000000000000000000000000000000000000000000000602082015250565b7f2276616c7565223a200000000000000000000000000000000000000000000000600082015250565b7f2274726169745f74797065223a202244616d616765222c000000000000000000600082015250565b7f4552433732313a206d696e7420746f20746865207a65726f2061646472657373600082015250565b7f7d00000000000000000000000000000000000000000000000000000000000000600082015250565b7f4552433732313a20617070726f76656420717565727920666f72206e6f6e657860008201527f697374656e7420746f6b656e0000000000000000000000000000000000000000602082015250565b7f2274726169745f74797065223a202254797065222c0000000000000000000000600082015250565b7f4552433732313a207472616e73666572206f6620746f6b656e2074686174206960008201527f73206e6f74206f776e0000000000000000000000000000000000000000000000602082015250565b7f7b226e616d65223a202200000000000000000000000000000000000000000000600082015250565b7f2276616c7565223a202200000000000000000000000000000000000000000000600082015250565b7f4552433732313a20617070726f76616c20746f2063757272656e74206f776e6560008201527f7200000000000000000000000000000000000000000000000000000000000000602082015250565b7f7d2c7b0000000000000000000000000000000000000000000000000000000000600082015250565b7f4552433732313a207472616e736665722063616c6c6572206973206e6f74206f60008201527f776e6572206e6f7220617070726f766564000000000000000000000000000000602082015250565b60038110613cb157613cb06136ae565b5b50565b613cbd8161348e565b8114613cc857600080fd5b50565b613cd4816134a0565b8114613cdf57600080fd5b50565b613ceb816134ac565b8114613cf657600080fd5b50565b60038110613d0657600080fd5b50565b613d128161350b565b8114613d1d57600080fd5b5056fe4142434445464748494a4b4c4d4e4f505152535455565758595a6162636465666768696a6b6c6d6e6f707172737475767778797a303132333435363738392b2fa2646970667358221220b5487d07e6bfdbceb2b0515ed28c5a87ce89b1f6c3393aa087dcc077872237b764736f6c63430008040033",
  "linkReferences": {},
  "deployedLinkReferences": {}
}