{
  "_format": "hh-sol-artifact-1",
  "contractName": "LootNFT",
  "sourceName": "contracts/LootNFT.sol",
  "abi": [
    {
      "inputs": [],
      "stateMutability": "nonpayable",
      "type": "constructor"
    },
    {
      "anonymous": false,
      "inputs": [
        {
          "indexed": true,
          "internalType": "address",
          "name": "owner",
          "type": "address"
        },
        {
          "indexed": true,
          "internalType": "address",
          "name": "approved",
          "type": "address"
        },
        {
          "indexed": true,
          "internalType": "uint256",
          "name": "tokenId",
          "type": "uint256"
        }
      ],
      "name": "Approval",
      "type": "event"
    },
    {
      "anonymous": false,
      "inputs": [
        {
          "indexed": true,
          "internalType": "address",
          "name": "owner",
          "type": "address"
        },
        {
          "indexed": true,
          "internalType": "address",
          "name": "operator",
          "type": "address"
        },
        {
          "indexed": false,
          "internalType": "bool",
          "name": "approved",
          "type": "bool"
        }
      ],
      "name": "ApprovalForAll",
      "type": "event"
    },
    {
      "anonymous": false,
      "inputs": [
        {
          "indexed": true,
          "internalType": "address",
          "name": "from",
          "type": "address"
        },
        {
          "indexed": true,
          "internalType": "address",
          "name": "to",
          "type": "address"
        },
        {
          "indexed": true,
          "internalType": "uint256",
          "name": "tokenId",
          "type": "uint256"
        }
      ],
      "name": "Transfer",
      "type": "event"
    },
    {
      "anonymous": false,
      "inputs": [
        {
          "indexed": false,
          "internalType": "uint256",
          "name": "id",
          "type": "uint256"
        }
      ],
      "name": "WeaponMinted",
      "type": "event"
    },
    {
      "inputs": [
        {
          "internalType": "address",
          "name": "to",
          "type": "address"
        },
        {
          "internalType": "uint256",
          "name": "tokenId",
          "type": "uint256"
        }
      ],
      "name": "approve",
      "outputs": [],
      "stateMutability": "nonpayable",
      "type": "function"
    },
    {
      "inputs": [
        {
          "internalType": "address",
          "name": "owner",
          "type": "address"
        }
      ],
      "name": "balanceOf",
      "outputs": [
        {
          "internalType": "uint256",
          "name": "",
          "type": "uint256"
        }
      ],
      "stateMutability": "view",
      "type": "function"
    },
    {
      "inputs": [
        {
          "internalType": "uint256",
          "name": "tokenId",
          "type": "uint256"
        }
      ],
      "name": "getApproved",
      "outputs": [
        {
          "internalType": "address",
          "name": "",
          "type": "address"
        }
      ],
      "stateMutability": "view",
      "type": "function"
    },
    {
      "inputs": [],
      "name": "getAvailableItems",
      "outputs": [
        {
          "components": [
            {
              "internalType": "uint256",
              "name": "tokenId",
              "type": "uint256"
            },
            {
              "components": [
                {
                  "internalType": "string",
                  "name": "name",
                  "type": "string"
                },
                {
                  "internalType": "string",
                  "name": "description",
                  "type": "string"
                },
                {
                  "internalType": "string",
                  "name": "imageUri",
                  "type": "string"
                },
                {
                  "internalType": "enum LootNFT.ItemType",
                  "name": "itemType",
                  "type": "uint8"
                },
                {
                  "internalType": "uint256",
                  "name": "dmg",
                  "type": "uint256"
                },
                {
                  "internalType": "uint256",
                  "name": "level",
                  "type": "uint256"
                }
              ],
              "internalType": "struct LootNFT.ItemAttributes",
              "name": "attribs",
              "type": "tuple"
            }
          ],
          "internalType": "struct LootNFT.TokenAndItemAttributes[]",
          "name": "",
          "type": "tuple[]"
        }
      ],
      "stateMutability": "view",
      "type": "function"
    },
    {
      "inputs": [
        {
          "internalType": "address",
          "name": "owner",
          "type": "address"
        },
        {
          "internalType": "address",
          "name": "operator",
          "type": "address"
        }
      ],
      "name": "isApprovedForAll",
      "outputs": [
        {
          "internalType": "bool",
          "name": "",
          "type": "bool"
        }
      ],
      "stateMutability": "view",
      "type": "function"
    },
    {
      "inputs": [
        {
          "internalType": "uint256",
          "name": "",
          "type": "uint256"
        }
      ],
      "name": "itemAttributes",
      "outputs": [
        {
          "internalType": "string",
          "name": "name",
          "type": "string"
        },
        {
          "internalType": "string",
          "name": "description",
          "type": "string"
        },
        {
          "internalType": "string",
          "name": "imageUri",
          "type": "string"
        },
        {
          "internalType": "enum LootNFT.ItemType",
          "name": "itemType",
          "type": "uint8"
        },
        {
          "internalType": "uint256",
          "name": "dmg",
          "type": "uint256"
        },
        {
          "internalType": "uint256",
          "name": "level",
          "type": "uint256"
        }
      ],
      "stateMutability": "view",
      "type": "function"
    },
    {
      "inputs": [
        {
          "internalType": "enum LootNFT.ItemType",
          "name": "itemType",
          "type": "uint8"
        },
        {
          "internalType": "string",
          "name": "itemName",
          "type": "string"
        },
        {
          "internalType": "string",
          "name": "itemDescription",
          "type": "string"
        }
      ],
      "name": "mintLoot",
      "outputs": [
        {
          "internalType": "uint256",
          "name": "",
          "type": "uint256"
        }
      ],
      "stateMutability": "nonpayable",
      "type": "function"
    },
    {
      "inputs": [],
      "name": "name",
      "outputs": [
        {
          "internalType": "string",
          "name": "",
          "type": "string"
        }
      ],
      "stateMutability": "view",
      "type": "function"
    },
    {
      "inputs": [
        {
          "internalType": "address",
          "name": "",
          "type": "address"
        },
        {
          "internalType": "uint256",
          "name": "",
          "type": "uint256"
        }
      ],
      "name": "ownedWeapons",
      "outputs": [
        {
          "internalType": "uint256",
          "name": "",
          "type": "uint256"
        }
      ],
      "stateMutability": "view",
      "type": "function"
    },
    {
      "inputs": [
        {
          "internalType": "uint256",
          "name": "tokenId",
          "type": "uint256"
        }
      ],
      "name": "ownerOf",
      "outputs": [
        {
          "internalType": "address",
          "name": "",
          "type": "address"
        }
      ],
      "stateMutability": "view",
      "type": "function"
    },
    {
      "inputs": [
        {
          "internalType": "address",
          "name": "from",
          "type": "address"
        },
        {
          "internalType": "address",
          "name": "to",
          "type": "address"
        },
        {
          "internalType": "uint256",
          "name": "tokenId",
          "type": "uint256"
        }
      ],
      "name": "safeTransferFrom",
      "outputs": [],
      "stateMutability": "nonpayable",
      "type": "function"
    },
    {
      "inputs": [
        {
          "internalType": "address",
          "name": "from",
          "type": "address"
        },
        {
          "internalType": "address",
          "name": "to",
          "type": "address"
        },
        {
          "internalType": "uint256",
          "name": "tokenId",
          "type": "uint256"
        },
        {
          "internalType": "bytes",
          "name": "_data",
          "type": "bytes"
        }
      ],
      "name": "safeTransferFrom",
      "outputs": [],
      "stateMutability": "nonpayable",
      "type": "function"
    },
    {
      "inputs": [
        {
          "internalType": "address",
          "name": "operator",
          "type": "address"
        },
        {
          "internalType": "bool",
          "name": "approved",
          "type": "bool"
        }
      ],
      "name": "setApprovalForAll",
      "outputs": [],
      "stateMutability": "nonpayable",
      "type": "function"
    },
    {
      "inputs": [
        {
          "internalType": "bytes4",
          "name": "interfaceId",
          "type": "bytes4"
        }
      ],
      "name": "supportsInterface",
      "outputs": [
        {
          "internalType": "bool",
          "name": "",
          "type": "bool"
        }
      ],
      "stateMutability": "view",
      "type": "function"
    },
    {
      "inputs": [],
      "name": "symbol",
      "outputs": [
        {
          "internalType": "string",
          "name": "",
          "type": "string"
        }
      ],
      "stateMutability": "view",
      "type": "function"
    },
    {
      "inputs": [
        {
          "internalType": "uint256",
          "name": "_tokenId",
          "type": "uint256"
        }
      ],
      "name": "tokenURI",
      "outputs": [
        {
          "internalType": "string",
          "name": "",
          "type": "string"
        }
      ],
      "stateMutability": "view",
      "type": "function"
    },
    {
      "inputs": [
        {
          "internalType": "address",
          "name": "from",
          "type": "address"
        },
        {
          "internalType": "address",
          "name": "to",
          "type": "address"
        },
        {
          "internalType": "uint256",
          "name": "tokenId",
          "type": "uint256"
        }
      ],
      "name": "transferFrom",
      "outputs": [],
      "stateMutability": "nonpayable",
      "type": "function"
    }
  ],
  "bytecode": "0x60806040523480156200001157600080fd5b506040518060400160405280600781526020017f4c6f6f744e4654000000000000000000000000000000000000000000000000008152506040518060400160405280600481526020017f4c6f6f5400000000000000000000000000000000000000000000000000000000815250816000908051906020019062000096929190620000b8565b508060019080519060200190620000af929190620000b8565b505050620001cd565b828054620000c69062000168565b90600052602060002090601f016020900481019282620000ea576000855562000136565b82601f106200010557805160ff191683800117855562000136565b8280016001018555821562000136579182015b828111156200013557825182559160200191906001019062000118565b5b50905062000145919062000149565b5090565b5b80821115620001645760008160009055506001016200014a565b5090565b600060028204905060018216806200018157607f821691505b602082108114156200019857620001976200019e565b5b50919050565b7f4e487b7100000000000000000000000000000000000000000000000000000000600052602260045260246000fd5b61452c80620001dd6000396000f3fe608060405234801561001057600080fd5b506004361061010b5760003560e01c80636352211e116100a2578063a22cb46511610071578063a22cb465146102e3578063b88d4fde146102ff578063c87b56dd1461031b578063e985e9c51461034b578063fc0a08d51461037b5761010b565b80636352211e1461023557806370a082311461026557806395d89b41146102955780639c6b8656146102b35761010b565b80630c43d6f3116100de5780630c43d6f3146101aa5780631c001d77146101c857806323b872dd146101fd57806342842e0e146102195761010b565b806301ffc9a71461011057806306fdde0314610140578063081812fc1461015e578063095ea7b31461018e575b600080fd5b61012a60048036038101906101259190612d51565b6103ab565b60405161013791906135f7565b60405180910390f35b61014861048d565b6040516101559190613612565b60405180910390f35b61017860048036038101906101739190612e22565b61051f565b604051610185919061356e565b60405180910390f35b6101a860048036038101906101a39190612d15565b6105a4565b005b6101b26106bc565b6040516101bf91906135d5565b60405180910390f35b6101e260048036038101906101dd9190612e22565b610baf565b6040516101f496959493929190613634565b60405180910390f35b61021760048036038101906102129190612c0f565b610d90565b005b610233600480360381019061022e9190612c0f565b610df0565b005b61024f600480360381019061024a9190612e22565b610e10565b60405161025c919061356e565b60405180910390f35b61027f600480360381019061027a9190612baa565b610ec2565b60405161028c919061384a565b60405180910390f35b61029d610f7a565b6040516102aa9190613612565b60405180910390f35b6102cd60048036038101906102c89190612da3565b61100c565b6040516102da919061384a565b60405180910390f35b6102fd60048036038101906102f89190612cd9565b6114d1565b005b61031960048036038101906103149190612c5e565b611652565b005b61033560048036038101906103309190612e22565b6116b4565b6040516103429190613612565b60405180910390f35b61036560048036038101906103609190612bd3565b611bfa565b60405161037291906135f7565b60405180910390f35b61039560048036038101906103909190612d15565b611c8e565b6040516103a2919061384a565b60405180910390f35b60007f80ac58cd000000000000000000000000000000000000000000000000000000007bffffffffffffffffffffffffffffffffffffffffffffffffffffffff1916827bffffffffffffffffffffffffffffffffffffffffffffffffffffffff1916148061047657507f5b5e139f000000000000000000000000000000000000000000000000000000007bffffffffffffffffffffffffffffffffffffffffffffffffffffffff1916827bffffffffffffffffffffffffffffffffffffffffffffffffffffffff1916145b80610486575061048582611cbf565b5b9050919050565b60606000805461049c90613bad565b80601f01602080910402602001604051908101604052809291908181526020018280546104c890613bad565b80156105155780601f106104ea57610100808354040283529160200191610515565b820191906000526020600020905b8154815290600101906020018083116104f857829003601f168201915b5050505050905090565b600061052a82611d29565b610569576040517f08c379a0000000000000000000000000000000000000000000000000000000008152600401610560906137ca565b60405180910390fd5b6004600083815260200190815260200160002060009054906101000a900473ffffffffffffffffffffffffffffffffffffffff169050919050565b60006105af82610e10565b90508073ffffffffffffffffffffffffffffffffffffffff168373ffffffffffffffffffffffffffffffffffffffff161415610620576040517f08c379a00000000000000000000000000000000000000000000000000000000081526004016106179061380a565b60405180910390fd5b8073ffffffffffffffffffffffffffffffffffffffff1661063f611d95565b73ffffffffffffffffffffffffffffffffffffffff16148061066e575061066d81610668611d95565b611bfa565b5b6106ad576040517f08c379a00000000000000000000000000000000000000000000000000000000081526004016106a49061374a565b60405180910390fd5b6106b78383611d9d565b505050565b60606000600a60003373ffffffffffffffffffffffffffffffffffffffff1673ffffffffffffffffffffffffffffffffffffffff1681526020019081526020016000208054905067ffffffffffffffff811115610742577f4e487b7100000000000000000000000000000000000000000000000000000000600052604160045260246000fd5b60405190808252806020026020018201604052801561077b57816020015b61076861292b565b8152602001906001900390816107605790505b50905060005b600a60003373ffffffffffffffffffffffffffffffffffffffff1673ffffffffffffffffffffffffffffffffffffffff16815260200190815260200160002080549050811015610ba7576040518060400160405280600a60003373ffffffffffffffffffffffffffffffffffffffff1673ffffffffffffffffffffffffffffffffffffffff168152602001908152602001600020838154811061084d577f4e487b7100000000000000000000000000000000000000000000000000000000600052603260045260246000fd5b9060005260206000200154815260200160096000600a60003373ffffffffffffffffffffffffffffffffffffffff1673ffffffffffffffffffffffffffffffffffffffff16815260200190815260200160002085815481106108d8577f4e487b7100000000000000000000000000000000000000000000000000000000600052603260045260246000fd5b906000526020600020015481526020019081526020016000206040518060c001604052908160008201805461090c90613bad565b80601f016020809104026020016040519081016040528092919081815260200182805461093890613bad565b80156109855780601f1061095a57610100808354040283529160200191610985565b820191906000526020600020905b81548152906001019060200180831161096857829003601f168201915b5050505050815260200160018201805461099e90613bad565b80601f01602080910402602001604051908101604052809291908181526020018280546109ca90613bad565b8015610a175780601f106109ec57610100808354040283529160200191610a17565b820191906000526020600020905b8154815290600101906020018083116109fa57829003601f168201915b50505050508152602001600282018054610a3090613bad565b80601f0160208091040260200160405190810160405280929190818152602001828054610a5c90613bad565b8015610aa95780601f10610a7e57610100808354040283529160200191610aa9565b820191906000526020600020905b815481529060010190602001808311610a8c57829003601f168201915b505050505081526020016003820160009054906101000a900460ff166002811115610afd577f4e487b7100000000000000000000000000000000000000000000000000000000600052602160045260246000fd5b6002811115610b35577f4e487b7100000000000000000000000000000000000000000000000000000000600052602160045260246000fd5b815260200160048201548152602001600582015481525050815250828281518110610b89577f4e487b7100000000000000000000000000000000000000000000000000000000600052603260045260246000fd5b60200260200101819052508080610b9f90613c10565b915050610781565b508091505090565b6009602052806000526040600020600091509050806000018054610bd290613bad565b80601f0160208091040260200160405190810160405280929190818152602001828054610bfe90613bad565b8015610c4b5780601f10610c2057610100808354040283529160200191610c4b565b820191906000526020600020905b815481529060010190602001808311610c2e57829003601f168201915b505050505090806001018054610c6090613bad565b80601f0160208091040260200160405190810160405280929190818152602001828054610c8c90613bad565b8015610cd95780601f10610cae57610100808354040283529160200191610cd9565b820191906000526020600020905b815481529060010190602001808311610cbc57829003601f168201915b505050505090806002018054610cee90613bad565b80601f0160208091040260200160405190810160405280929190818152602001828054610d1a90613bad565b8015610d675780601f10610d3c57610100808354040283529160200191610d67565b820191906000526020600020905b815481529060010190602001808311610d4a57829003601f168201915b5050505050908060030160009054906101000a900460ff16908060040154908060050154905086565b610da1610d9b611d95565b82611e56565b610de0576040517f08c379a0000000000000000000000000000000000000000000000000000000008152600401610dd79061382a565b60405180910390fd5b610deb838383611f34565b505050565b610e0b83838360405180602001604052806000815250611652565b505050565b6000806002600084815260200190815260200160002060009054906101000a900473ffffffffffffffffffffffffffffffffffffffff169050600073ffffffffffffffffffffffffffffffffffffffff168173ffffffffffffffffffffffffffffffffffffffff161415610eb9576040517f08c379a0000000000000000000000000000000000000000000000000000000008152600401610eb09061378a565b60405180910390fd5b80915050919050565b60008073ffffffffffffffffffffffffffffffffffffffff168273ffffffffffffffffffffffffffffffffffffffff161415610f33576040517f08c379a0000000000000000000000000000000000000000000000000000000008152600401610f2a9061376a565b60405180910390fd5b600360008373ffffffffffffffffffffffffffffffffffffffff1673ffffffffffffffffffffffffffffffffffffffff168152602001908152602001600020549050919050565b606060018054610f8990613bad565b80601f0160208091040260200160405190810160405280929190818152602001828054610fb590613bad565b80156110025780601f10610fd757610100808354040283529160200191611002565b820191906000526020600020905b815481529060010190602001808311610fe557829003601f168201915b5050505050905090565b60006110186007612190565b600061102460076121a6565b905060006040518060200160405280600081525090506000806002811115611075577f4e487b7100000000000000000000000000000000000000000000000000000000600052602160045260246000fd5b8760028111156110ae577f4e487b7100000000000000000000000000000000000000000000000000000000600052602160045260246000fd5b141561111c576040518060800160405280605381526020016144a460539139915060506028611105426110e0876121b4565b6040516020016110f1929190613546565b604051602081830303815290604052612361565b61110f9190613c94565b61111991906139cf565b90505b60016002811115611156577f4e487b7100000000000000000000000000000000000000000000000000000000600052602160045260246000fd5b87600281111561118f577f4e487b7100000000000000000000000000000000000000000000000000000000600052602160045260246000fd5b14156111fd576040518060800160405280605381526020016143ff6053913991506032605a6111e6426111c1876121b4565b6040516020016111d2929190613546565b604051602081830303815290604052612361565b6111f09190613c94565b6111fa91906139cf565b90505b600280811115611236577f4e487b7100000000000000000000000000000000000000000000000000000000600052602160045260246000fd5b87600281111561126f577f4e487b7100000000000000000000000000000000000000000000000000000000600052602160045260246000fd5b14156112dd57604051806080016040528060528152602001614452605291399150601e60506112c6426112a1876121b4565b6040516020016112b2929190613546565b604051602081830303815290604052612361565b6112d09190613c94565b6112da91906139cf565b90505b6040518060c00160405280878152602001868152602001838152602001886002811115611333577f4e487b7100000000000000000000000000000000000000000000000000000000600052602160045260246000fd5b81526020018260ff168152602001600181525060096000858152602001908152602001600020600082015181600001908051906020019061137592919061294b565b50602082015181600101908051906020019061139292919061294b565b5060408201518160020190805190602001906113af92919061294b565b5060608201518160030160006101000a81548160ff02191690836002811115611401577f4e487b7100000000000000000000000000000000000000000000000000000000600052602160045260246000fd5b02179055506080820151816004015560a082015181600501559050506114273384612394565b600a60003373ffffffffffffffffffffffffffffffffffffffff1673ffffffffffffffffffffffffffffffffffffffff1681526020019081526020016000208390806001815401808255809150506001900390600052602060002001600090919091909150557f0e8294bc1a352ab6d177f8d8b46b4601db94a5f9392643ab9b0dfd5826a02cb2836040516114bc919061384a565b60405180910390a18293505050509392505050565b6114d9611d95565b73ffffffffffffffffffffffffffffffffffffffff168273ffffffffffffffffffffffffffffffffffffffff161415611547576040517f08c379a000000000000000000000000000000000000000000000000000000000815260040161153e9061370a565b60405180910390fd5b8060056000611554611d95565b73ffffffffffffffffffffffffffffffffffffffff1673ffffffffffffffffffffffffffffffffffffffff16815260200190815260200160002060008473ffffffffffffffffffffffffffffffffffffffff1673ffffffffffffffffffffffffffffffffffffffff16815260200190815260200160002060006101000a81548160ff0219169083151502179055508173ffffffffffffffffffffffffffffffffffffffff16611601611d95565b73ffffffffffffffffffffffffffffffffffffffff167f17307eab39ab6107e8899845ad3d59bd9653f200f220920489ca2b5937696c318360405161164691906135f7565b60405180910390a35050565b61166361165d611d95565b83611e56565b6116a2576040517f08c379a00000000000000000000000000000000000000000000000000000000081526004016116999061382a565b60405180910390fd5b6116ae84848484612562565b50505050565b60606000600960008481526020019081526020016000206040518060c00160405290816000820180546116e690613bad565b80601f016020809104026020016040519081016040528092919081815260200182805461171290613bad565b801561175f5780601f106117345761010080835404028352916020019161175f565b820191906000526020600020905b81548152906001019060200180831161174257829003601f168201915b5050505050815260200160018201805461177890613bad565b80601f01602080910402602001604051908101604052809291908181526020018280546117a490613bad565b80156117f15780601f106117c6576101008083540402835291602001916117f1565b820191906000526020600020905b8154815290600101906020018083116117d457829003601f168201915b5050505050815260200160028201805461180a90613bad565b80601f016020809104026020016040519081016040528092919081815260200182805461183690613bad565b80156118835780601f1061185857610100808354040283529160200191611883565b820191906000526020600020905b81548152906001019060200180831161186657829003601f168201915b505050505081526020016003820160009054906101000a900460ff1660028111156118d7577f4e487b7100000000000000000000000000000000000000000000000000000000600052602160045260246000fd5b600281111561190f577f4e487b7100000000000000000000000000000000000000000000000000000000600052602160045260246000fd5b8152602001600482015481526020016005820154815250509050600060405180602001604052806000815250905060006040518060200160405280600081525090506000600281111561198b577f4e487b7100000000000000000000000000000000000000000000000000000000600052602160045260246000fd5b836060015160028111156119c8577f4e487b7100000000000000000000000000000000000000000000000000000000600052602160045260246000fd5b1415611a19576040518060200160405280600081525091506040518060400160405280600581526020017f53776f726400000000000000000000000000000000000000000000000000000081525090505b60016002811115611a53577f4e487b7100000000000000000000000000000000000000000000000000000000600052602160045260246000fd5b83606001516002811115611a90577f4e487b7100000000000000000000000000000000000000000000000000000000600052602160045260246000fd5b1415611ae1576040518060200160405280600081525091506040518060400160405280600381526020017f417865000000000000000000000000000000000000000000000000000000000081525090505b600280811115611b1a577f4e487b7100000000000000000000000000000000000000000000000000000000600052602160045260246000fd5b83606001516002811115611b57577f4e487b7100000000000000000000000000000000000000000000000000000000600052602160045260246000fd5b1415611ba8576040518060200160405280600081525091506040518060400160405280600381526020017f426f77000000000000000000000000000000000000000000000000000000000081525090505b611bf0836000015184602001518560400151611bc787608001516121b4565b85604051602001611bdc959493929190613477565b6040516020818303038152906040526125be565b9350505050919050565b6000600560008473ffffffffffffffffffffffffffffffffffffffff1673ffffffffffffffffffffffffffffffffffffffff16815260200190815260200160002060008373ffffffffffffffffffffffffffffffffffffffff1673ffffffffffffffffffffffffffffffffffffffff16815260200190815260200160002060009054906101000a900460ff16905092915050565b600a6020528160005260406000208181548110611caa57600080fd5b90600052602060002001600091509150505481565b60007f01ffc9a7000000000000000000000000000000000000000000000000000000007bffffffffffffffffffffffffffffffffffffffffffffffffffffffff1916827bffffffffffffffffffffffffffffffffffffffffffffffffffffffff1916149050919050565b60008073ffffffffffffffffffffffffffffffffffffffff166002600084815260200190815260200160002060009054906101000a900473ffffffffffffffffffffffffffffffffffffffff1673ffffffffffffffffffffffffffffffffffffffff1614159050919050565b600033905090565b816004600083815260200190815260200160002060006101000a81548173ffffffffffffffffffffffffffffffffffffffff021916908373ffffffffffffffffffffffffffffffffffffffff160217905550808273ffffffffffffffffffffffffffffffffffffffff16611e1083610e10565b73ffffffffffffffffffffffffffffffffffffffff167f8c5be1e5ebec7d5bd14f71427d1e84f3dd0314c0f7b2291e5b200ac8c7c3b92560405160405180910390a45050565b6000611e6182611d29565b611ea0576040517f08c379a0000000000000000000000000000000000000000000000000000000008152600401611e979061372a565b60405180910390fd5b6000611eab83610e10565b90508073ffffffffffffffffffffffffffffffffffffffff168473ffffffffffffffffffffffffffffffffffffffff161480611f1a57508373ffffffffffffffffffffffffffffffffffffffff16611f028461051f565b73ffffffffffffffffffffffffffffffffffffffff16145b80611f2b5750611f2a8185611bfa565b5b91505092915050565b8273ffffffffffffffffffffffffffffffffffffffff16611f5482610e10565b73ffffffffffffffffffffffffffffffffffffffff1614611faa576040517f08c379a0000000000000000000000000000000000000000000000000000000008152600401611fa1906137ea565b60405180910390fd5b600073ffffffffffffffffffffffffffffffffffffffff168273ffffffffffffffffffffffffffffffffffffffff16141561201a576040517f08c379a0000000000000000000000000000000000000000000000000000000008152600401612011906136ea565b60405180910390fd5b61202583838361277c565b612030600082611d9d565b6001600360008573ffffffffffffffffffffffffffffffffffffffff1673ffffffffffffffffffffffffffffffffffffffff16815260200190815260200160002060008282546120809190613a91565b925050819055506001600360008473ffffffffffffffffffffffffffffffffffffffff1673ffffffffffffffffffffffffffffffffffffffff16815260200190815260200160002060008282546120d79190613979565b92505081905550816002600083815260200190815260200160002060006101000a81548173ffffffffffffffffffffffffffffffffffffffff021916908373ffffffffffffffffffffffffffffffffffffffff160217905550808273ffffffffffffffffffffffffffffffffffffffff168473ffffffffffffffffffffffffffffffffffffffff167fddf252ad1be2c89b69c2b068fc378daa952ba7f163c4a11628f55a4df523b3ef60405160405180910390a4505050565b6001816000016000828254019250508190555050565b600081600001549050919050565b606060008214156121fc576040518060400160405280600181526020017f3000000000000000000000000000000000000000000000000000000000000000815250905061235c565b600082905060005b6000821461222e57808061221790613c10565b915050600a826122279190613a06565b9150612204565b60008167ffffffffffffffff811115612270577f4e487b7100000000000000000000000000000000000000000000000000000000600052604160045260246000fd5b6040519080825280601f01601f1916602001820160405280156122a25781602001600182028036833780820191505090505b5090505b60008514612355576001826122bb9190613a91565b9150600a856122ca9190613c63565b60306122d69190613979565b60f81b818381518110612312577f4e487b7100000000000000000000000000000000000000000000000000000000600052603260045260246000fd5b60200101907effffffffffffffffffffffffffffffffffffffffffffffffffffffffffffff1916908160001a905350600a8561234e9190613a06565b94506122a6565b8093505050505b919050565b6000816040516020016123749190613460565b6040516020818303038152906040528051906020012060001c9050919050565b600073ffffffffffffffffffffffffffffffffffffffff168273ffffffffffffffffffffffffffffffffffffffff161415612404576040517f08c379a00000000000000000000000000000000000000000000000000000000081526004016123fb906137aa565b60405180910390fd5b61240d81611d29565b1561244d576040517f08c379a0000000000000000000000000000000000000000000000000000000008152600401612444906136ca565b60405180910390fd5b6124596000838361277c565b6001600360008473ffffffffffffffffffffffffffffffffffffffff1673ffffffffffffffffffffffffffffffffffffffff16815260200190815260200160002060008282546124a99190613979565b92505081905550816002600083815260200190815260200160002060006101000a81548173ffffffffffffffffffffffffffffffffffffffff021916908373ffffffffffffffffffffffffffffffffffffffff160217905550808273ffffffffffffffffffffffffffffffffffffffff16600073ffffffffffffffffffffffffffffffffffffffff167fddf252ad1be2c89b69c2b068fc378daa952ba7f163c4a11628f55a4df523b3ef60405160405180910390a45050565b61256d848484611f34565b61257984848484612781565b6125b8576040517f08c379a00000000000000000000000000000000000000000000000000000000081526004016125af906136aa565b60405180910390fd5b50505050565b606060008251905060008114156125e75760405180602001604052806000815250915050612777565b600060036002836125f89190613979565b6126029190613a06565b600461260e9190613a37565b9050600060208261261f9190613979565b67ffffffffffffffff81111561265e577f4e487b7100000000000000000000000000000000000000000000000000000000600052604160045260246000fd5b6040519080825280601f01601f1916602001820160405280156126905781602001600182028036833780820191505090505b50905060006040518060600160405280604081526020016143bf604091399050600181016020830160005b868110156127345760038101905062ffffff818a015116603f8160121c168401518060081b905060ff603f83600c1c1686015116810190508060081b905060ff603f8360061c1686015116810190508060081b905060ff603f831686015116810190508060e01b905080845260048401935050506126bb565b50600386066001811461274e576002811461275e57612769565b613d3d60f01b6002830352612769565b603d60f81b60018303525b508484525050819450505050505b919050565b505050565b60006127a28473ffffffffffffffffffffffffffffffffffffffff16612918565b1561290b578373ffffffffffffffffffffffffffffffffffffffff1663150b7a026127cb611d95565b8786866040518563ffffffff1660e01b81526004016127ed9493929190613589565b602060405180830381600087803b15801561280757600080fd5b505af192505050801561283857506040513d601f19601f820116820180604052508101906128359190612d7a565b60015b6128bb573d8060008114612868576040519150601f19603f3d011682016040523d82523d6000602084013e61286d565b606091505b506000815114156128b3576040517f08c379a00000000000000000000000000000000000000000000000000000000081526004016128aa906136aa565b60405180910390fd5b805181602001fd5b63150b7a0260e01b7bffffffffffffffffffffffffffffffffffffffffffffffffffffffff1916817bffffffffffffffffffffffffffffffffffffffffffffffffffffffff191614915050612910565b600190505b949350505050565b600080823b905060008111915050919050565b6040518060400160405280600081526020016129456129d1565b81525090565b82805461295790613bad565b90600052602060002090601f01602090048101928261297957600085556129c0565b82601f1061299257805160ff19168380011785556129c0565b828001600101855582156129c0579182015b828111156129bf5782518255916020019190600101906129a4565b5b5090506129cd9190612a3f565b5090565b6040518060c0016040528060608152602001606081526020016060815260200160006002811115612a2b577f4e487b7100000000000000000000000000000000000000000000000000000000600052602160045260246000fd5b815260200160008152602001600081525090565b5b80821115612a58576000816000905550600101612a40565b5090565b6000612a6f612a6a8461388a565b613865565b905082815260208101848484011115612a8757600080fd5b612a92848285613b6b565b509392505050565b6000612aad612aa8846138bb565b613865565b905082815260208101848484011115612ac557600080fd5b612ad0848285613b6b565b509392505050565b600081359050612ae781614352565b92915050565b600081359050612afc81614369565b92915050565b600081359050612b1181614380565b92915050565b600081519050612b2681614380565b92915050565b600082601f830112612b3d57600080fd5b8135612b4d848260208601612a5c565b91505092915050565b600081359050612b6581614397565b92915050565b600082601f830112612b7c57600080fd5b8135612b8c848260208601612a9a565b91505092915050565b600081359050612ba4816143a7565b92915050565b600060208284031215612bbc57600080fd5b6000612bca84828501612ad8565b91505092915050565b60008060408385031215612be657600080fd5b6000612bf485828601612ad8565b9250506020612c0585828601612ad8565b9150509250929050565b600080600060608486031215612c2457600080fd5b6000612c3286828701612ad8565b9350506020612c4386828701612ad8565b9250506040612c5486828701612b95565b9150509250925092565b60008060008060808587031215612c7457600080fd5b6000612c8287828801612ad8565b9450506020612c9387828801612ad8565b9350506040612ca487828801612b95565b925050606085013567ffffffffffffffff811115612cc157600080fd5b612ccd87828801612b2c565b91505092959194509250565b60008060408385031215612cec57600080fd5b6000612cfa85828601612ad8565b9250506020612d0b85828601612aed565b9150509250929050565b60008060408385031215612d2857600080fd5b6000612d3685828601612ad8565b9250506020612d4785828601612b95565b9150509250929050565b600060208284031215612d6357600080fd5b6000612d7184828501612b02565b91505092915050565b600060208284031215612d8c57600080fd5b6000612d9a84828501612b17565b91505092915050565b600080600060608486031215612db857600080fd5b6000612dc686828701612b56565b935050602084013567ffffffffffffffff811115612de357600080fd5b612def86828701612b6b565b925050604084013567ffffffffffffffff811115612e0c57600080fd5b612e1886828701612b6b565b9150509250925092565b600060208284031215612e3457600080fd5b6000612e4284828501612b95565b91505092915050565b6000612e5783836133ee565b905092915050565b612e6881613ac5565b82525050565b6000612e79826138fc565b612e83818561392a565b935083602082028501612e95856138ec565b8060005b85811015612ed15784840389528151612eb28582612e4b565b9450612ebd8361391d565b925060208a01995050600181019050612e99565b50829750879550505050505092915050565b612eec81613ad7565b82525050565b6000612efd82613907565b612f07818561393b565b9350612f17818560208601613b7a565b612f2081613db0565b840191505092915050565b612f3481613b59565b82525050565b612f4381613b59565b82525050565b6000612f5482613912565b612f5e818561394c565b9350612f6e818560208601613b7a565b612f7781613db0565b840191505092915050565b6000612f8d82613912565b612f97818561395d565b9350612fa7818560208601613b7a565b612fb081613db0565b840191505092915050565b6000612fc682613912565b612fd0818561396e565b9350612fe0818560208601613b7a565b80840191505092915050565b6000612ff960108361396e565b915061300482613dc1565b601082019050919050565b600061301c60138361396e565b915061302782613dea565b601382019050919050565b600061303f60328361395d565b915061304a82613e13565b604082019050919050565b600061306260028361396e565b915061306d82613e62565b600282019050919050565b6000613085601c8361395d565b915061309082613e8b565b602082019050919050565b60006130a860248361395d565b91506130b382613eb4565b604082019050919050565b60006130cb60198361395d565b91506130d682613f03565b602082019050919050565b60006130ee60038361396e565b91506130f982613f2c565b600382019050919050565b6000613111602c8361395d565b915061311c82613f55565b604082019050919050565b600061313460388361395d565b915061313f82613fa4565b604082019050919050565b6000613157602a8361395d565b915061316282613ff3565b604082019050919050565b600061317a60298361395d565b915061318582614042565b604082019050919050565b600061319d60098361396e565b91506131a882614091565b600982019050919050565b60006131c060178361396e565b91506131cb826140ba565b601782019050919050565b60006131e360208361395d565b91506131ee826140e3565b602082019050919050565b6000613206600d8361396e565b91506132118261410c565b600d82019050919050565b600061322960018361396e565b915061323482614135565b600182019050919050565b600061324c602c8361395d565b91506132578261415e565b604082019050919050565b600061326f60158361396e565b915061327a826141ad565b601582019050919050565b600061329260298361395d565b915061329d826141d6565b604082019050919050565b60006132b5600a8361396e565b91506132c082614225565b600a82019050919050565b60006132d8600a8361396e565b91506132e38261424e565b600a82019050919050565b60006132fb60218361395d565b915061330682614277565b604082019050919050565b600061331e60038361396e565b9150613329826142c6565b600382019050919050565b600061334160318361395d565b915061334c826142ef565b604082019050919050565b600060c08301600083015184820360008601526133748282612f49565b9150506020830151848203602086015261338e8282612f49565b915050604083015184820360408601526133a88282612f49565b91505060608301516133bd6060860182612f2b565b5060808301516133d0608086018261342b565b5060a08301516133e360a086018261342b565b508091505092915050565b6000604083016000830151613406600086018261342b565b506020830151848203602086015261341e8282613357565b9150508091505092915050565b61343481613b42565b82525050565b61344381613b42565b82525050565b61345a61345582613b42565b613c59565b82525050565b600061346c8284612fbb565b915081905092915050565b6000613482826132a8565b915061348e8288612fbb565b91506134998261300f565b91506134a58287612fbb565b91506134b0826131f9565b91506134bc8286612fbb565b91506134c782613055565b91506134d282612fec565b91506134dd826131b3565b91506134e882613190565b91506134f48285612fbb565b91506134ff82613311565b915061350a82613262565b9150613515826132cb565b91506135218284612fbb565b915061352c826130e1565b91506135378261321c565b91508190509695505050505050565b60006135528285613449565b6020820191506135628284612fbb565b91508190509392505050565b60006020820190506135836000830184612e5f565b92915050565b600060808201905061359e6000830187612e5f565b6135ab6020830186612e5f565b6135b8604083018561343a565b81810360608301526135ca8184612ef2565b905095945050505050565b600060208201905081810360008301526135ef8184612e6e565b905092915050565b600060208201905061360c6000830184612ee3565b92915050565b6000602082019050818103600083015261362c8184612f82565b905092915050565b600060c082019050818103600083015261364e8189612f82565b905081810360208301526136628188612f82565b905081810360408301526136768187612f82565b90506136856060830186612f3a565b613692608083018561343a565b61369f60a083018461343a565b979650505050505050565b600060208201905081810360008301526136c381613032565b9050919050565b600060208201905081810360008301526136e381613078565b9050919050565b600060208201905081810360008301526137038161309b565b9050919050565b60006020820190508181036000830152613723816130be565b9050919050565b6000602082019050818103600083015261374381613104565b9050919050565b6000602082019050818103600083015261376381613127565b9050919050565b600060208201905081810360008301526137838161314a565b9050919050565b600060208201905081810360008301526137a38161316d565b9050919050565b600060208201905081810360008301526137c3816131d6565b9050919050565b600060208201905081810360008301526137e38161323f565b9050919050565b6000602082019050818103600083015261380381613285565b9050919050565b60006020820190508181036000830152613823816132ee565b9050919050565b6000602082019050818103600083015261384381613334565b9050919050565b600060208201905061385f600083018461343a565b92915050565b600061386f613880565b905061387b8282613bdf565b919050565b6000604051905090565b600067ffffffffffffffff8211156138a5576138a4613d81565b5b6138ae82613db0565b9050602081019050919050565b600067ffffffffffffffff8211156138d6576138d5613d81565b5b6138df82613db0565b9050602081019050919050565b6000819050602082019050919050565b600081519050919050565b600081519050919050565b600081519050919050565b6000602082019050919050565b600082825260208201905092915050565b600082825260208201905092915050565b600082825260208201905092915050565b600082825260208201905092915050565b600081905092915050565b600061398482613b42565b915061398f83613b42565b9250827fffffffffffffffffffffffffffffffffffffffffffffffffffffffffffffffff038211156139c4576139c3613cc5565b5b828201905092915050565b60006139da82613b4c565b91506139e583613b4c565b92508260ff038211156139fb576139fa613cc5565b5b828201905092915050565b6000613a1182613b42565b9150613a1c83613b42565b925082613a2c57613a2b613cf4565b5b828204905092915050565b6000613a4282613b42565b9150613a4d83613b42565b9250817fffffffffffffffffffffffffffffffffffffffffffffffffffffffffffffffff0483118215151615613a8657613a85613cc5565b5b828202905092915050565b6000613a9c82613b42565b9150613aa783613b42565b925082821015613aba57613ab9613cc5565b5b828203905092915050565b6000613ad082613b22565b9050919050565b60008115159050919050565b60007fffffffff0000000000000000000000000000000000000000000000000000000082169050919050565b6000819050613b1d8261433e565b919050565b600073ffffffffffffffffffffffffffffffffffffffff82169050919050565b6000819050919050565b600060ff82169050919050565b6000613b6482613b0f565b9050919050565b82818337600083830152505050565b60005b83811015613b98578082015181840152602081019050613b7d565b83811115613ba7576000848401525b50505050565b60006002820490506001821680613bc557607f821691505b60208210811415613bd957613bd8613d52565b5b50919050565b613be882613db0565b810181811067ffffffffffffffff82111715613c0757613c06613d81565b5b80604052505050565b6000613c1b82613b42565b91507fffffffffffffffffffffffffffffffffffffffffffffffffffffffffffffffff821415613c4e57613c4d613cc5565b5b600182019050919050565b6000819050919050565b6000613c6e82613b42565b9150613c7983613b42565b925082613c8957613c88613cf4565b5b828206905092915050565b6000613c9f82613b4c565b9150613caa83613b4c565b925082613cba57613cb9613cf4565b5b828206905092915050565b7f4e487b7100000000000000000000000000000000000000000000000000000000600052601160045260246000fd5b7f4e487b7100000000000000000000000000000000000000000000000000000000600052601260045260246000fd5b7f4e487b7100000000000000000000000000000000000000000000000000000000600052602160045260246000fd5b7f4e487b7100000000000000000000000000000000000000000000000000000000600052602260045260246000fd5b7f4e487b7100000000000000000000000000000000000000000000000000000000600052604160045260246000fd5b6000601f19601f8301169050919050565b7f2261747472696275746573223a205b7b00000000000000000000000000000000600082015250565b7f222c20226465736372697074696f6e223a202200000000000000000000000000600082015250565b7f4552433732313a207472616e7366657220746f206e6f6e20455243373231526560008201527f63656976657220696d706c656d656e7465720000000000000000000000000000602082015250565b7f222c000000000000000000000000000000000000000000000000000000000000600082015250565b7f4552433732313a20746f6b656e20616c7265616479206d696e74656400000000600082015250565b7f4552433732313a207472616e7366657220746f20746865207a65726f2061646460008201527f7265737300000000000000000000000000000000000000000000000000000000602082015250565b7f4552433732313a20617070726f766520746f2063616c6c657200000000000000600082015250565b7f227d5d0000000000000000000000000000000000000000000000000000000000600082015250565b7f4552433732313a206f70657261746f7220717565727920666f72206e6f6e657860008201527f697374656e7420746f6b656e0000000000000000000000000000000000000000602082015250565b7f4552433732313a20617070726f76652063616c6c6572206973206e6f74206f7760008201527f6e6572206e6f7220617070726f76656420666f7220616c6c0000000000000000602082015250565b7f4552433732313a2062616c616e636520717565727920666f7220746865207a6560008201527f726f206164647265737300000000000000000000000000000000000000000000602082015250565b7f4552433732313a206f776e657220717565727920666f72206e6f6e657869737460008201527f656e7420746f6b656e0000000000000000000000000000000000000000000000602082015250565b7f2276616c7565223a200000000000000000000000000000000000000000000000600082015250565b7f2274726169745f74797065223a202244616d616765222c000000000000000000600082015250565b7f4552433732313a206d696e7420746f20746865207a65726f2061646472657373600082015250565b7f222c2022696d616765223a202200000000000000000000000000000000000000600082015250565b7f7d00000000000000000000000000000000000000000000000000000000000000600082015250565b7f4552433732313a20617070726f76656420717565727920666f72206e6f6e657860008201527f697374656e7420746f6b656e0000000000000000000000000000000000000000602082015250565b7f2274726169745f74797065223a202254797065222c0000000000000000000000600082015250565b7f4552433732313a207472616e73666572206f6620746f6b656e2074686174206960008201527f73206e6f74206f776e0000000000000000000000000000000000000000000000602082015250565b7f7b226e616d65223a202200000000000000000000000000000000000000000000600082015250565b7f2276616c7565223a202200000000000000000000000000000000000000000000600082015250565b7f4552433732313a20617070726f76616c20746f2063757272656e74206f776e6560008201527f7200000000000000000000000000000000000000000000000000000000000000602082015250565b7f7d2c7b0000000000000000000000000000000000000000000000000000000000600082015250565b7f4552433732313a207472616e736665722063616c6c6572206973206e6f74206f60008201527f776e6572206e6f7220617070726f766564000000000000000000000000000000602082015250565b6003811061434f5761434e613d23565b5b50565b61435b81613ac5565b811461436657600080fd5b50565b61437281613ad7565b811461437d57600080fd5b50565b61438981613ae3565b811461439457600080fd5b50565b600381106143a457600080fd5b50565b6143b081613b42565b81146143bb57600080fd5b5056fe4142434445464748494a4b4c4d4e4f505152535455565758595a6162636465666768696a6b6c6d6e6f707172737475767778797a303132333435363738392b2f68747470733a2f2f6261666b72656962733668707a7a72747371776a37336a6136633575633370706577717778777a6e7a653461756f337970676962686276366369692e697066732e647765622e6c696e6b2f68747470733a2f2f6261666b726569636c666168343534616e6d376663736c66707a6c757278646e756a7372633667727a6b37757168696f376e65626172346d3363612e697066732e647765622e6c696e6b68747470733a2f2f6261666b7265696832753235626f636f35376b6e347964716e6c666c37687962336a346633657237726e797575747278786d6c667979653571756d2e697066732e647765622e6c696e6b2fa2646970667358221220015a67de679fd5142c40db0a967234e5ed0ee6f910062c0558f23096b0994fb664736f6c63430008040033",
  "linkReferences": {},
  "deployedLinkReferences": {}
}